{
	"upgradeable/UUPS_ProxyV2.sol": {
		"ProxyContractV1": {
			"abi": [
				{
					"anonymous": false,
					"inputs": [
						{
							"indexed": false,
							"internalType": "address",
							"name": "previousAdmin",
							"type": "address"
						},
						{
							"indexed": false,
							"internalType": "address",
							"name": "newAdmin",
							"type": "address"
						}
					],
					"name": "AdminChanged",
					"type": "event"
				},
				{
					"anonymous": false,
					"inputs": [
						{
							"indexed": true,
							"internalType": "address",
							"name": "beacon",
							"type": "address"
						}
					],
					"name": "BeaconUpgraded",
					"type": "event"
				},
				{
					"anonymous": false,
					"inputs": [
						{
							"indexed": false,
							"internalType": "uint8",
							"name": "version",
							"type": "uint8"
						}
					],
					"name": "Initialized",
					"type": "event"
				},
				{
					"anonymous": false,
					"inputs": [
						{
							"indexed": true,
							"internalType": "address",
							"name": "previousOwner",
							"type": "address"
						},
						{
							"indexed": true,
							"internalType": "address",
							"name": "newOwner",
							"type": "address"
						}
					],
					"name": "OwnershipTransferred",
					"type": "event"
				},
				{
					"anonymous": false,
					"inputs": [
						{
							"indexed": true,
							"internalType": "address",
							"name": "implementation",
							"type": "address"
						}
					],
					"name": "Upgraded",
					"type": "event"
				},
				{
					"inputs": [],
					"name": "count",
					"outputs": [
						{
							"internalType": "uint256",
							"name": "",
							"type": "uint256"
						}
					],
					"stateMutability": "view",
					"type": "function"
				},
				{
					"inputs": [],
					"name": "inc",
					"outputs": [],
					"stateMutability": "nonpayable",
					"type": "function"
				},
				{
					"inputs": [],
					"name": "initialize",
					"outputs": [],
					"stateMutability": "nonpayable",
					"type": "function"
				},
				{
					"inputs": [],
					"name": "owner",
					"outputs": [
						{
							"internalType": "address",
							"name": "",
							"type": "address"
						}
					],
					"stateMutability": "view",
					"type": "function"
				},
				{
					"inputs": [],
					"name": "proxiableUUID",
					"outputs": [
						{
							"internalType": "bytes32",
							"name": "",
							"type": "bytes32"
						}
					],
					"stateMutability": "view",
					"type": "function"
				},
				{
					"inputs": [],
					"name": "renounceOwnership",
					"outputs": [],
					"stateMutability": "nonpayable",
					"type": "function"
				},
				{
					"inputs": [
						{
							"internalType": "address",
							"name": "newOwner",
							"type": "address"
						}
					],
					"name": "transferOwnership",
					"outputs": [],
					"stateMutability": "nonpayable",
					"type": "function"
				},
				{
					"inputs": [
						{
							"internalType": "address",
							"name": "newImplementation",
							"type": "address"
						}
					],
					"name": "upgradeTo",
					"outputs": [],
					"stateMutability": "nonpayable",
					"type": "function"
				},
				{
					"inputs": [
						{
							"internalType": "address",
							"name": "newImplementation",
							"type": "address"
						},
						{
							"internalType": "bytes",
							"name": "data",
							"type": "bytes"
						}
					],
					"name": "upgradeToAndCall",
					"outputs": [],
					"stateMutability": "payable",
					"type": "function"
				}
			],
			"devdoc": {
				"kind": "dev",
				"methods": {
					"owner()": {
						"details": "Returns the address of the current owner."
					},
					"proxiableUUID()": {
						"details": "Implementation of the ERC1822 {proxiableUUID} function. This returns the storage slot used by the implementation. It is used to validate the implementation's compatibility when performing an upgrade. IMPORTANT: A proxy pointing at a proxiable contract should not be considered proxiable itself, because this risks bricking a proxy that upgrades to it, by delegating to itself until out of gas. Thus it is critical that this function revert if invoked through a proxy. This is guaranteed by the `notDelegated` modifier."
					},
					"renounceOwnership()": {
						"details": "Leaves the contract without owner. It will not be possible to call `onlyOwner` functions anymore. Can only be called by the current owner. NOTE: Renouncing ownership will leave the contract without an owner, thereby removing any functionality that is only available to the owner."
					},
					"transferOwnership(address)": {
						"details": "Transfers ownership of the contract to a new account (`newOwner`). Can only be called by the current owner."
					},
					"upgradeTo(address)": {
						"details": "Upgrade the implementation of the proxy to `newImplementation`. Calls {_authorizeUpgrade}. Emits an {Upgraded} event."
					},
					"upgradeToAndCall(address,bytes)": {
						"details": "Upgrade the implementation of the proxy to `newImplementation`, and subsequently execute the function call encoded in `data`. Calls {_authorizeUpgrade}. Emits an {Upgraded} event."
					}
				},
				"version": 1
			},
			"evm": {
				"assembly": "    /* \"upgradeable/UUPS_ProxyV2.sol\":447:798  contract ProxyContractV1 is Initializable, UUPSUpgradeable, OwnableUpgradeable {\r... */\n  mstore(0x40, 0xa0)\n    /* \"@openzeppelin/contracts-upgradeable/proxy/utils/UUPSUpgradeable.sol\":1332:1336  this */\n  address\n    /* \"@openzeppelin/contracts-upgradeable/proxy/utils/UUPSUpgradeable.sol\":1289:1337  address private immutable __self = address(this) */\n  0xffffffffffffffffffffffffffffffffffffffff\n  and\n  0x80\n  swap1\n  0xffffffffffffffffffffffffffffffffffffffff\n  and\n  0x60\n  shl\n  dup2\n  mstore\n  pop\n    /* \"upgradeable/UUPS_ProxyV2.sol\":447:798  contract ProxyContractV1 is Initializable, UUPSUpgradeable, OwnableUpgradeable {\r... */\n  callvalue\n  dup1\n  iszero\n  tag_1\n  jumpi\n  0x00\n  dup1\n  revert\ntag_1:\n  pop\n  shr(0x60, mload(0x80))\n  codecopy(0x00, dataOffset(sub_0), dataSize(sub_0))\n  0x00\n  assignImmutable(\"0x4c643d5d9b0441803235e222732b65e2dc488f209ae20302cca6cafc813933a8\")\n  return(0x00, dataSize(sub_0))\nstop\n\nsub_0: assembly {\n        /* \"upgradeable/UUPS_ProxyV2.sol\":447:798  contract ProxyContractV1 is Initializable, UUPSUpgradeable, OwnableUpgradeable {\r... */\n      mstore(0x40, 0x80)\n      jumpi(tag_1, lt(calldatasize, 0x04))\n      shr(0xe0, calldataload(0x00))\n      dup1\n      0x52d1902d\n      gt\n      tag_11\n      jumpi\n      dup1\n      0x52d1902d\n      eq\n      tag_6\n      jumpi\n      dup1\n      0x715018a6\n      eq\n      tag_7\n      jumpi\n      dup1\n      0x8129fc1c\n      eq\n      tag_8\n      jumpi\n      dup1\n      0x8da5cb5b\n      eq\n      tag_9\n      jumpi\n      dup1\n      0xf2fde38b\n      eq\n      tag_10\n      jumpi\n      jump(tag_1)\n    tag_11:\n      dup1\n      0x06661abd\n      eq\n      tag_2\n      jumpi\n      dup1\n      0x3659cfe6\n      eq\n      tag_3\n      jumpi\n      dup1\n      0x371303c0\n      eq\n      tag_4\n      jumpi\n      dup1\n      0x4f1ef286\n      eq\n      tag_5\n      jumpi\n    tag_1:\n      0x00\n      dup1\n      revert\n        /* \"upgradeable/UUPS_ProxyV2.sol\":533:553  uint256 public count */\n    tag_2:\n      callvalue\n      dup1\n      iszero\n      tag_12\n      jumpi\n      0x00\n      dup1\n      revert\n    tag_12:\n      pop\n      tag_13\n      tag_14\n      jump\t// in\n    tag_13:\n      mload(0x40)\n      tag_15\n      swap2\n      swap1\n      tag_16\n      jump\t// in\n    tag_15:\n      mload(0x40)\n      dup1\n      swap2\n      sub\n      swap1\n      return\n        /* \"@openzeppelin/contracts-upgradeable/proxy/utils/UUPSUpgradeable.sol\":3317:3514  function upgradeTo(address newImplementation) external virtual onlyProxy {... */\n    tag_3:\n      callvalue\n      dup1\n      iszero\n      tag_17\n      jumpi\n      0x00\n      dup1\n      revert\n    tag_17:\n      pop\n      tag_18\n      0x04\n      dup1\n      calldatasize\n      sub\n      dup2\n      add\n      swap1\n      tag_19\n      swap2\n      swap1\n      tag_20\n      jump\t// in\n    tag_19:\n      tag_21\n      jump\t// in\n    tag_18:\n      stop\n        /* \"upgradeable/UUPS_ProxyV2.sol\":745:795  function inc() external {\r... */\n    tag_4:\n      callvalue\n      dup1\n      iszero\n      tag_22\n      jumpi\n      0x00\n      dup1\n      revert\n    tag_22:\n      pop\n      tag_23\n      tag_24\n      jump\t// in\n    tag_23:\n      stop\n        /* \"@openzeppelin/contracts-upgradeable/proxy/utils/UUPSUpgradeable.sol\":3763:3985  function upgradeToAndCall(address newImplementation, bytes memory data) external payable virtual onlyProxy {... */\n    tag_5:\n      tag_25\n      0x04\n      dup1\n      calldatasize\n      sub\n      dup2\n      add\n      swap1\n      tag_26\n      swap2\n      swap1\n      tag_27\n      jump\t// in\n    tag_26:\n      tag_28\n      jump\t// in\n    tag_25:\n      stop\n        /* \"@openzeppelin/contracts-upgradeable/proxy/utils/UUPSUpgradeable.sol\":3006:3137  function proxiableUUID() external view virtual override notDelegated returns (bytes32) {... */\n    tag_6:\n      callvalue\n      dup1\n      iszero\n      tag_29\n      jumpi\n      0x00\n      dup1\n      revert\n    tag_29:\n      pop\n      tag_30\n      tag_31\n      jump\t// in\n    tag_30:\n      mload(0x40)\n      tag_32\n      swap2\n      swap1\n      tag_33\n      jump\t// in\n    tag_32:\n      mload(0x40)\n      dup1\n      swap2\n      sub\n      swap1\n      return\n        /* \"@openzeppelin/contracts-upgradeable/access/OwnableUpgradeable.sol\":2071:2172  function renounceOwnership() public virtual onlyOwner {... */\n    tag_7:\n      callvalue\n      dup1\n      iszero\n      tag_34\n      jumpi\n      0x00\n      dup1\n      revert\n    tag_34:\n      pop\n      tag_35\n      tag_36\n      jump\t// in\n    tag_35:\n      stop\n        /* \"upgradeable/UUPS_ProxyV2.sol\":566:663  function initialize() public initializer {\r... */\n    tag_8:\n      callvalue\n      dup1\n      iszero\n      tag_37\n      jumpi\n      0x00\n      dup1\n      revert\n    tag_37:\n      pop\n      tag_38\n      tag_39\n      jump\t// in\n    tag_38:\n      stop\n        /* \"@openzeppelin/contracts-upgradeable/access/OwnableUpgradeable.sol\":1441:1526  function owner() public view virtual returns (address) {... */\n    tag_9:\n      callvalue\n      dup1\n      iszero\n      tag_40\n      jumpi\n      0x00\n      dup1\n      revert\n    tag_40:\n      pop\n      tag_41\n      tag_42\n      jump\t// in\n    tag_41:\n      mload(0x40)\n      tag_43\n      swap2\n      swap1\n      tag_44\n      jump\t// in\n    tag_43:\n      mload(0x40)\n      dup1\n      swap2\n      sub\n      swap1\n      return\n        /* \"@openzeppelin/contracts-upgradeable/access/OwnableUpgradeable.sol\":2321:2519  function transferOwnership(address newOwner) public virtual onlyOwner {... */\n    tag_10:\n      callvalue\n      dup1\n      iszero\n      tag_45\n      jumpi\n      0x00\n      dup1\n      revert\n    tag_45:\n      pop\n      tag_46\n      0x04\n      dup1\n      calldatasize\n      sub\n      dup2\n      add\n      swap1\n      tag_47\n      swap2\n      swap1\n      tag_20\n      jump\t// in\n    tag_47:\n      tag_48\n      jump\t// in\n    tag_46:\n      stop\n        /* \"upgradeable/UUPS_ProxyV2.sol\":533:553  uint256 public count */\n    tag_14:\n      sload(0xc9)\n      dup2\n      jump\t// out\n        /* \"@openzeppelin/contracts-upgradeable/proxy/utils/UUPSUpgradeable.sol\":3317:3514  function upgradeTo(address newImplementation) external virtual onlyProxy {... */\n    tag_21:\n        /* \"@openzeppelin/contracts-upgradeable/proxy/utils/UUPSUpgradeable.sol\":1898:1904  __self */\n      immutable(\"0x4c643d5d9b0441803235e222732b65e2dc488f209ae20302cca6cafc813933a8\")\n        /* \"@openzeppelin/contracts-upgradeable/proxy/utils/UUPSUpgradeable.sol\":1881:1904  address(this) != __self */\n      0xffffffffffffffffffffffffffffffffffffffff\n      and\n        /* \"@openzeppelin/contracts-upgradeable/proxy/utils/UUPSUpgradeable.sol\":1889:1893  this */\n      address\n        /* \"@openzeppelin/contracts-upgradeable/proxy/utils/UUPSUpgradeable.sol\":1881:1904  address(this) != __self */\n      0xffffffffffffffffffffffffffffffffffffffff\n      and\n      eq\n      iszero\n        /* \"@openzeppelin/contracts-upgradeable/proxy/utils/UUPSUpgradeable.sol\":1873:1953  require(address(this) != __self, \"Function must be called through delegatecall\") */\n      tag_50\n      jumpi\n      mload(0x40)\n      0x08c379a000000000000000000000000000000000000000000000000000000000\n      dup2\n      mstore\n      0x04\n      add\n      tag_51\n      swap1\n      tag_52\n      jump\t// in\n    tag_51:\n      mload(0x40)\n      dup1\n      swap2\n      sub\n      swap1\n      revert\n    tag_50:\n        /* \"@openzeppelin/contracts-upgradeable/proxy/utils/UUPSUpgradeable.sol\":1995:2001  __self */\n      immutable(\"0x4c643d5d9b0441803235e222732b65e2dc488f209ae20302cca6cafc813933a8\")\n        /* \"@openzeppelin/contracts-upgradeable/proxy/utils/UUPSUpgradeable.sol\":1971:2001  _getImplementation() == __self */\n      0xffffffffffffffffffffffffffffffffffffffff\n      and\n        /* \"@openzeppelin/contracts-upgradeable/proxy/utils/UUPSUpgradeable.sol\":1971:1991  _getImplementation() */\n      tag_53\n        /* \"@openzeppelin/contracts-upgradeable/proxy/utils/UUPSUpgradeable.sol\":1971:1989  _getImplementation */\n      tag_54\n        /* \"@openzeppelin/contracts-upgradeable/proxy/utils/UUPSUpgradeable.sol\":1971:1991  _getImplementation() */\n      jump\t// in\n    tag_53:\n        /* \"@openzeppelin/contracts-upgradeable/proxy/utils/UUPSUpgradeable.sol\":1971:2001  _getImplementation() == __self */\n      0xffffffffffffffffffffffffffffffffffffffff\n      and\n      eq\n        /* \"@openzeppelin/contracts-upgradeable/proxy/utils/UUPSUpgradeable.sol\":1963:2050  require(_getImplementation() == __self, \"Function must be called through active proxy\") */\n      tag_55\n      jumpi\n      mload(0x40)\n      0x08c379a000000000000000000000000000000000000000000000000000000000\n      dup2\n      mstore\n      0x04\n      add\n      tag_56\n      swap1\n      tag_57\n      jump\t// in\n    tag_56:\n      mload(0x40)\n      dup1\n      swap2\n      sub\n      swap1\n      revert\n    tag_55:\n        /* \"@openzeppelin/contracts-upgradeable/proxy/utils/UUPSUpgradeable.sol\":3400:3436  _authorizeUpgrade(newImplementation) */\n      tag_59\n        /* \"@openzeppelin/contracts-upgradeable/proxy/utils/UUPSUpgradeable.sol\":3418:3435  newImplementation */\n      dup2\n        /* \"@openzeppelin/contracts-upgradeable/proxy/utils/UUPSUpgradeable.sol\":3400:3417  _authorizeUpgrade */\n      tag_60\n        /* \"@openzeppelin/contracts-upgradeable/proxy/utils/UUPSUpgradeable.sol\":3400:3436  _authorizeUpgrade(newImplementation) */\n      jump\t// in\n    tag_59:\n        /* \"@openzeppelin/contracts-upgradeable/proxy/utils/UUPSUpgradeable.sol\":3446:3507  _upgradeToAndCallUUPS(newImplementation, new bytes(0), false) */\n      tag_61\n        /* \"@openzeppelin/contracts-upgradeable/proxy/utils/UUPSUpgradeable.sol\":3468:3485  newImplementation */\n      dup2\n        /* \"@openzeppelin/contracts-upgradeable/proxy/utils/UUPSUpgradeable.sol\":3497:3498  0 */\n      0x00\n        /* \"@openzeppelin/contracts-upgradeable/proxy/utils/UUPSUpgradeable.sol\":3487:3499  new bytes(0) */\n      0xffffffffffffffff\n      dup2\n      gt\n      iszero\n      tag_62\n      jumpi\n      tag_63\n      tag_64\n      jump\t// in\n    tag_63:\n    tag_62:\n      mload(0x40)\n      swap1\n      dup1\n      dup3\n      mstore\n      dup1\n      0x1f\n      add\n      not(0x1f)\n      and\n      0x20\n      add\n      dup3\n      add\n      0x40\n      mstore\n      dup1\n      iszero\n      tag_65\n      jumpi\n      dup2\n      0x20\n      add\n      0x01\n      dup3\n      mul\n      dup1\n      calldatasize\n      dup4\n      calldatacopy\n      dup1\n      dup3\n      add\n      swap2\n      pop\n      pop\n      swap1\n      pop\n    tag_65:\n      pop\n        /* \"@openzeppelin/contracts-upgradeable/proxy/utils/UUPSUpgradeable.sol\":3501:3506  false */\n      0x00\n        /* \"@openzeppelin/contracts-upgradeable/proxy/utils/UUPSUpgradeable.sol\":3446:3467  _upgradeToAndCallUUPS */\n      tag_66\n        /* \"@openzeppelin/contracts-upgradeable/proxy/utils/UUPSUpgradeable.sol\":3446:3507  _upgradeToAndCallUUPS(newImplementation, new bytes(0), false) */\n      jump\t// in\n    tag_61:\n        /* \"@openzeppelin/contracts-upgradeable/proxy/utils/UUPSUpgradeable.sol\":3317:3514  function upgradeTo(address newImplementation) external virtual onlyProxy {... */\n      pop\n      jump\t// out\n        /* \"upgradeable/UUPS_ProxyV2.sol\":745:795  function inc() external {\r... */\n    tag_24:\n        /* \"upgradeable/UUPS_ProxyV2.sol\":780:785  count */\n      0xc9\n      0x00\n        /* \"upgradeable/UUPS_ProxyV2.sol\":780:787  count++ */\n      dup2\n      sload\n      dup1\n      swap3\n      swap2\n      swap1\n      tag_68\n      swap1\n      tag_69\n      jump\t// in\n    tag_68:\n      swap2\n      swap1\n      pop\n      sstore\n      pop\n        /* \"upgradeable/UUPS_ProxyV2.sol\":745:795  function inc() external {\r... */\n      jump\t// out\n        /* \"@openzeppelin/contracts-upgradeable/proxy/utils/UUPSUpgradeable.sol\":3763:3985  function upgradeToAndCall(address newImplementation, bytes memory data) external payable virtual onlyProxy {... */\n    tag_28:\n        /* \"@openzeppelin/contracts-upgradeable/proxy/utils/UUPSUpgradeable.sol\":1898:1904  __self */\n      immutable(\"0x4c643d5d9b0441803235e222732b65e2dc488f209ae20302cca6cafc813933a8\")\n        /* \"@openzeppelin/contracts-upgradeable/proxy/utils/UUPSUpgradeable.sol\":1881:1904  address(this) != __self */\n      0xffffffffffffffffffffffffffffffffffffffff\n      and\n        /* \"@openzeppelin/contracts-upgradeable/proxy/utils/UUPSUpgradeable.sol\":1889:1893  this */\n      address\n        /* \"@openzeppelin/contracts-upgradeable/proxy/utils/UUPSUpgradeable.sol\":1881:1904  address(this) != __self */\n      0xffffffffffffffffffffffffffffffffffffffff\n      and\n      eq\n      iszero\n        /* \"@openzeppelin/contracts-upgradeable/proxy/utils/UUPSUpgradeable.sol\":1873:1953  require(address(this) != __self, \"Function must be called through delegatecall\") */\n      tag_71\n      jumpi\n      mload(0x40)\n      0x08c379a000000000000000000000000000000000000000000000000000000000\n      dup2\n      mstore\n      0x04\n      add\n      tag_72\n      swap1\n      tag_52\n      jump\t// in\n    tag_72:\n      mload(0x40)\n      dup1\n      swap2\n      sub\n      swap1\n      revert\n    tag_71:\n        /* \"@openzeppelin/contracts-upgradeable/proxy/utils/UUPSUpgradeable.sol\":1995:2001  __self */\n      immutable(\"0x4c643d5d9b0441803235e222732b65e2dc488f209ae20302cca6cafc813933a8\")\n        /* \"@openzeppelin/contracts-upgradeable/proxy/utils/UUPSUpgradeable.sol\":1971:2001  _getImplementation() == __self */\n      0xffffffffffffffffffffffffffffffffffffffff\n      and\n        /* \"@openzeppelin/contracts-upgradeable/proxy/utils/UUPSUpgradeable.sol\":1971:1991  _getImplementation() */\n      tag_73\n        /* \"@openzeppelin/contracts-upgradeable/proxy/utils/UUPSUpgradeable.sol\":1971:1989  _getImplementation */\n      tag_54\n        /* \"@openzeppelin/contracts-upgradeable/proxy/utils/UUPSUpgradeable.sol\":1971:1991  _getImplementation() */\n      jump\t// in\n    tag_73:\n        /* \"@openzeppelin/contracts-upgradeable/proxy/utils/UUPSUpgradeable.sol\":1971:2001  _getImplementation() == __self */\n      0xffffffffffffffffffffffffffffffffffffffff\n      and\n      eq\n        /* \"@openzeppelin/contracts-upgradeable/proxy/utils/UUPSUpgradeable.sol\":1963:2050  require(_getImplementation() == __self, \"Function must be called through active proxy\") */\n      tag_74\n      jumpi\n      mload(0x40)\n      0x08c379a000000000000000000000000000000000000000000000000000000000\n      dup2\n      mstore\n      0x04\n      add\n      tag_75\n      swap1\n      tag_57\n      jump\t// in\n    tag_75:\n      mload(0x40)\n      dup1\n      swap2\n      sub\n      swap1\n      revert\n    tag_74:\n        /* \"@openzeppelin/contracts-upgradeable/proxy/utils/UUPSUpgradeable.sol\":3880:3916  _authorizeUpgrade(newImplementation) */\n      tag_77\n        /* \"@openzeppelin/contracts-upgradeable/proxy/utils/UUPSUpgradeable.sol\":3898:3915  newImplementation */\n      dup3\n        /* \"@openzeppelin/contracts-upgradeable/proxy/utils/UUPSUpgradeable.sol\":3880:3897  _authorizeUpgrade */\n      tag_60\n        /* \"@openzeppelin/contracts-upgradeable/proxy/utils/UUPSUpgradeable.sol\":3880:3916  _authorizeUpgrade(newImplementation) */\n      jump\t// in\n    tag_77:\n        /* \"@openzeppelin/contracts-upgradeable/proxy/utils/UUPSUpgradeable.sol\":3926:3978  _upgradeToAndCallUUPS(newImplementation, data, true) */\n      tag_78\n        /* \"@openzeppelin/contracts-upgradeable/proxy/utils/UUPSUpgradeable.sol\":3948:3965  newImplementation */\n      dup3\n        /* \"@openzeppelin/contracts-upgradeable/proxy/utils/UUPSUpgradeable.sol\":3967:3971  data */\n      dup3\n        /* \"@openzeppelin/contracts-upgradeable/proxy/utils/UUPSUpgradeable.sol\":3973:3977  true */\n      0x01\n        /* \"@openzeppelin/contracts-upgradeable/proxy/utils/UUPSUpgradeable.sol\":3926:3947  _upgradeToAndCallUUPS */\n      tag_66\n        /* \"@openzeppelin/contracts-upgradeable/proxy/utils/UUPSUpgradeable.sol\":3926:3978  _upgradeToAndCallUUPS(newImplementation, data, true) */\n      jump\t// in\n    tag_78:\n        /* \"@openzeppelin/contracts-upgradeable/proxy/utils/UUPSUpgradeable.sol\":3763:3985  function upgradeToAndCall(address newImplementation, bytes memory data) external payable virtual onlyProxy {... */\n      pop\n      pop\n      jump\t// out\n        /* \"@openzeppelin/contracts-upgradeable/proxy/utils/UUPSUpgradeable.sol\":3006:3137  function proxiableUUID() external view virtual override notDelegated returns (bytes32) {... */\n    tag_31:\n        /* \"@openzeppelin/contracts-upgradeable/proxy/utils/UUPSUpgradeable.sol\":3084:3091  bytes32 */\n      0x00\n        /* \"@openzeppelin/contracts-upgradeable/proxy/utils/UUPSUpgradeable.sol\":2333:2339  __self */\n      immutable(\"0x4c643d5d9b0441803235e222732b65e2dc488f209ae20302cca6cafc813933a8\")\n        /* \"@openzeppelin/contracts-upgradeable/proxy/utils/UUPSUpgradeable.sol\":2316:2339  address(this) == __self */\n      0xffffffffffffffffffffffffffffffffffffffff\n      and\n        /* \"@openzeppelin/contracts-upgradeable/proxy/utils/UUPSUpgradeable.sol\":2324:2328  this */\n      address\n        /* \"@openzeppelin/contracts-upgradeable/proxy/utils/UUPSUpgradeable.sol\":2316:2339  address(this) == __self */\n      0xffffffffffffffffffffffffffffffffffffffff\n      and\n      eq\n        /* \"@openzeppelin/contracts-upgradeable/proxy/utils/UUPSUpgradeable.sol\":2308:2400  require(address(this) == __self, \"UUPSUpgradeable: must not be called through delegatecall\") */\n      tag_80\n      jumpi\n      mload(0x40)\n      0x08c379a000000000000000000000000000000000000000000000000000000000\n      dup2\n      mstore\n      0x04\n      add\n      tag_81\n      swap1\n      tag_82\n      jump\t// in\n    tag_81:\n      mload(0x40)\n      dup1\n      swap2\n      sub\n      swap1\n      revert\n    tag_80:\n        /* \"@openzeppelin/contracts-upgradeable/proxy/ERC1967/ERC1967UpgradeUpgradeable.sol\":1292:1358  0x360894a13ba1a3210667c828492db98dca3e2076cc3735a920a3ca505d382bbc */\n      0x360894a13ba1a3210667c828492db98dca3e2076cc3735a920a3ca505d382bbc\n        /* \"@openzeppelin/contracts-upgradeable/proxy/utils/UUPSUpgradeable.sol\":3110:3130  _IMPLEMENTATION_SLOT */\n      0x00\n      shl\n        /* \"@openzeppelin/contracts-upgradeable/proxy/utils/UUPSUpgradeable.sol\":3103:3130  return _IMPLEMENTATION_SLOT */\n      swap1\n      pop\n        /* \"@openzeppelin/contracts-upgradeable/proxy/utils/UUPSUpgradeable.sol\":3006:3137  function proxiableUUID() external view virtual override notDelegated returns (bytes32) {... */\n      swap1\n      jump\t// out\n        /* \"@openzeppelin/contracts-upgradeable/access/OwnableUpgradeable.sol\":2071:2172  function renounceOwnership() public virtual onlyOwner {... */\n    tag_36:\n        /* \"@openzeppelin/contracts-upgradeable/access/OwnableUpgradeable.sol\":1334:1347  _checkOwner() */\n      tag_85\n        /* \"@openzeppelin/contracts-upgradeable/access/OwnableUpgradeable.sol\":1334:1345  _checkOwner */\n      tag_86\n        /* \"@openzeppelin/contracts-upgradeable/access/OwnableUpgradeable.sol\":1334:1347  _checkOwner() */\n      jump\t// in\n    tag_85:\n        /* \"@openzeppelin/contracts-upgradeable/access/OwnableUpgradeable.sol\":2135:2165  _transferOwnership(address(0)) */\n      tag_88\n        /* \"@openzeppelin/contracts-upgradeable/access/OwnableUpgradeable.sol\":2162:2163  0 */\n      0x00\n        /* \"@openzeppelin/contracts-upgradeable/access/OwnableUpgradeable.sol\":2135:2153  _transferOwnership */\n      tag_89\n        /* \"@openzeppelin/contracts-upgradeable/access/OwnableUpgradeable.sol\":2135:2165  _transferOwnership(address(0)) */\n      jump\t// in\n    tag_88:\n        /* \"@openzeppelin/contracts-upgradeable/access/OwnableUpgradeable.sol\":2071:2172  function renounceOwnership() public virtual onlyOwner {... */\n      jump\t// out\n        /* \"upgradeable/UUPS_ProxyV2.sol\":566:663  function initialize() public initializer {\r... */\n    tag_39:\n        /* \"@openzeppelin/contracts-upgradeable/proxy/utils/Initializable.sol\":3268:3287  bool isTopLevelCall */\n      0x00\n        /* \"@openzeppelin/contracts-upgradeable/proxy/utils/Initializable.sol\":3291:3304  _initializing */\n      dup1\n      0x01\n      swap1\n      sload\n      swap1\n      0x0100\n      exp\n      swap1\n      div\n      0xff\n      and\n        /* \"@openzeppelin/contracts-upgradeable/proxy/utils/Initializable.sol\":3290:3304  !_initializing */\n      iszero\n        /* \"@openzeppelin/contracts-upgradeable/proxy/utils/Initializable.sol\":3268:3304  bool isTopLevelCall = !_initializing */\n      swap1\n      pop\n        /* \"@openzeppelin/contracts-upgradeable/proxy/utils/Initializable.sol\":3336:3350  isTopLevelCall */\n      dup1\n        /* \"@openzeppelin/contracts-upgradeable/proxy/utils/Initializable.sol\":3336:3370  isTopLevelCall && _initialized < 1 */\n      dup1\n      iszero\n      tag_91\n      jumpi\n      pop\n        /* \"@openzeppelin/contracts-upgradeable/proxy/utils/Initializable.sol\":3369:3370  1 */\n      0x01\n        /* \"@openzeppelin/contracts-upgradeable/proxy/utils/Initializable.sol\":3354:3366  _initialized */\n      0x00\n      dup1\n      sload\n      swap1\n      0x0100\n      exp\n      swap1\n      div\n      0xff\n      and\n        /* \"@openzeppelin/contracts-upgradeable/proxy/utils/Initializable.sol\":3354:3370  _initialized < 1 */\n      0xff\n      and\n      lt\n        /* \"@openzeppelin/contracts-upgradeable/proxy/utils/Initializable.sol\":3336:3370  isTopLevelCall && _initialized < 1 */\n    tag_91:\n        /* \"@openzeppelin/contracts-upgradeable/proxy/utils/Initializable.sol\":3335:3443  (isTopLevelCall && _initialized < 1) || (!AddressUpgradeable.isContract(address(this)) && _initialized == 1) */\n      dup1\n      tag_92\n      jumpi\n      pop\n        /* \"@openzeppelin/contracts-upgradeable/proxy/utils/Initializable.sol\":3377:3421  AddressUpgradeable.isContract(address(this)) */\n      tag_93\n        /* \"@openzeppelin/contracts-upgradeable/proxy/utils/Initializable.sol\":3415:3419  this */\n      address\n        /* \"@openzeppelin/contracts-upgradeable/proxy/utils/Initializable.sol\":3377:3406  AddressUpgradeable.isContract */\n      tag_94\n        /* \"@openzeppelin/contracts-upgradeable/proxy/utils/Initializable.sol\":3377:3421  AddressUpgradeable.isContract(address(this)) */\n      jump\t// in\n    tag_93:\n        /* \"@openzeppelin/contracts-upgradeable/proxy/utils/Initializable.sol\":3376:3421  !AddressUpgradeable.isContract(address(this)) */\n      iszero\n        /* \"@openzeppelin/contracts-upgradeable/proxy/utils/Initializable.sol\":3376:3442  !AddressUpgradeable.isContract(address(this)) && _initialized == 1 */\n      dup1\n      iszero\n      tag_95\n      jumpi\n      pop\n        /* \"@openzeppelin/contracts-upgradeable/proxy/utils/Initializable.sol\":3441:3442  1 */\n      0x01\n        /* \"@openzeppelin/contracts-upgradeable/proxy/utils/Initializable.sol\":3425:3437  _initialized */\n      0x00\n      dup1\n      sload\n      swap1\n      0x0100\n      exp\n      swap1\n      div\n      0xff\n      and\n        /* \"@openzeppelin/contracts-upgradeable/proxy/utils/Initializable.sol\":3425:3442  _initialized == 1 */\n      0xff\n      and\n      eq\n        /* \"@openzeppelin/contracts-upgradeable/proxy/utils/Initializable.sol\":3376:3442  !AddressUpgradeable.isContract(address(this)) && _initialized == 1 */\n    tag_95:\n        /* \"@openzeppelin/contracts-upgradeable/proxy/utils/Initializable.sol\":3335:3443  (isTopLevelCall && _initialized < 1) || (!AddressUpgradeable.isContract(address(this)) && _initialized == 1) */\n    tag_92:\n        /* \"@openzeppelin/contracts-upgradeable/proxy/utils/Initializable.sol\":3314:3515  require(... */\n      tag_96\n      jumpi\n      mload(0x40)\n      0x08c379a000000000000000000000000000000000000000000000000000000000\n      dup2\n      mstore\n      0x04\n      add\n      tag_97\n      swap1\n      tag_98\n      jump\t// in\n    tag_97:\n      mload(0x40)\n      dup1\n      swap2\n      sub\n      swap1\n      revert\n    tag_96:\n        /* \"@openzeppelin/contracts-upgradeable/proxy/utils/Initializable.sol\":3540:3541  1 */\n      0x01\n        /* \"@openzeppelin/contracts-upgradeable/proxy/utils/Initializable.sol\":3525:3537  _initialized */\n      0x00\n      dup1\n        /* \"@openzeppelin/contracts-upgradeable/proxy/utils/Initializable.sol\":3525:3541  _initialized = 1 */\n      0x0100\n      exp\n      dup2\n      sload\n      dup2\n      0xff\n      mul\n      not\n      and\n      swap1\n      dup4\n      0xff\n      and\n      mul\n      or\n      swap1\n      sstore\n      pop\n        /* \"@openzeppelin/contracts-upgradeable/proxy/utils/Initializable.sol\":3555:3569  isTopLevelCall */\n      dup1\n        /* \"@openzeppelin/contracts-upgradeable/proxy/utils/Initializable.sol\":3551:3616  if (isTopLevelCall) {... */\n      iszero\n      tag_99\n      jumpi\n        /* \"@openzeppelin/contracts-upgradeable/proxy/utils/Initializable.sol\":3601:3605  true */\n      0x01\n        /* \"@openzeppelin/contracts-upgradeable/proxy/utils/Initializable.sol\":3585:3598  _initializing */\n      0x00\n      0x01\n        /* \"@openzeppelin/contracts-upgradeable/proxy/utils/Initializable.sol\":3585:3605  _initializing = true */\n      0x0100\n      exp\n      dup2\n      sload\n      dup2\n      0xff\n      mul\n      not\n      and\n      swap1\n      dup4\n      iszero\n      iszero\n      mul\n      or\n      swap1\n      sstore\n      pop\n        /* \"@openzeppelin/contracts-upgradeable/proxy/utils/Initializable.sol\":3551:3616  if (isTopLevelCall) {... */\n    tag_99:\n        /* \"upgradeable/UUPS_ProxyV2.sol\":626:628  10 */\n      0x0a\n        /* \"upgradeable/UUPS_ProxyV2.sol\":618:623  count */\n      0xc9\n        /* \"upgradeable/UUPS_ProxyV2.sol\":618:628  count = 10 */\n      dup2\n      swap1\n      sstore\n      pop\n        /* \"upgradeable/UUPS_ProxyV2.sol\":639:655  __Ownable_init() */\n      tag_101\n        /* \"upgradeable/UUPS_ProxyV2.sol\":639:653  __Ownable_init */\n      tag_102\n        /* \"upgradeable/UUPS_ProxyV2.sol\":639:655  __Ownable_init() */\n      jump\t// in\n    tag_101:\n        /* \"@openzeppelin/contracts-upgradeable/proxy/utils/Initializable.sol\":3640:3654  isTopLevelCall */\n      dup1\n        /* \"@openzeppelin/contracts-upgradeable/proxy/utils/Initializable.sol\":3636:3735  if (isTopLevelCall) {... */\n      iszero\n      tag_103\n      jumpi\n        /* \"@openzeppelin/contracts-upgradeable/proxy/utils/Initializable.sol\":3686:3691  false */\n      0x00\n        /* \"@openzeppelin/contracts-upgradeable/proxy/utils/Initializable.sol\":3670:3683  _initializing */\n      dup1\n      0x01\n        /* \"@openzeppelin/contracts-upgradeable/proxy/utils/Initializable.sol\":3670:3691  _initializing = false */\n      0x0100\n      exp\n      dup2\n      sload\n      dup2\n      0xff\n      mul\n      not\n      and\n      swap1\n      dup4\n      iszero\n      iszero\n      mul\n      or\n      swap1\n      sstore\n      pop\n        /* \"@openzeppelin/contracts-upgradeable/proxy/utils/Initializable.sol\":3710:3724  Initialized(1) */\n      0x7f26b83ff96e1f2b6a682f133852f6798a09c465da95921460cefb3847402498\n        /* \"@openzeppelin/contracts-upgradeable/proxy/utils/Initializable.sol\":3722:3723  1 */\n      0x01\n        /* \"@openzeppelin/contracts-upgradeable/proxy/utils/Initializable.sol\":3710:3724  Initialized(1) */\n      mload(0x40)\n      tag_104\n      swap2\n      swap1\n      tag_105\n      jump\t// in\n    tag_104:\n      mload(0x40)\n      dup1\n      swap2\n      sub\n      swap1\n      log1\n        /* \"@openzeppelin/contracts-upgradeable/proxy/utils/Initializable.sol\":3636:3735  if (isTopLevelCall) {... */\n    tag_103:\n        /* \"@openzeppelin/contracts-upgradeable/proxy/utils/Initializable.sol\":3258:3741  {... */\n      pop\n        /* \"upgradeable/UUPS_ProxyV2.sol\":566:663  function initialize() public initializer {\r... */\n      jump\t// out\n        /* \"@openzeppelin/contracts-upgradeable/access/OwnableUpgradeable.sol\":1441:1526  function owner() public view virtual returns (address) {... */\n    tag_42:\n        /* \"@openzeppelin/contracts-upgradeable/access/OwnableUpgradeable.sol\":1487:1494  address */\n      0x00\n        /* \"@openzeppelin/contracts-upgradeable/access/OwnableUpgradeable.sol\":1513:1519  _owner */\n      0x97\n      0x00\n      swap1\n      sload\n      swap1\n      0x0100\n      exp\n      swap1\n      div\n      0xffffffffffffffffffffffffffffffffffffffff\n      and\n        /* \"@openzeppelin/contracts-upgradeable/access/OwnableUpgradeable.sol\":1506:1519  return _owner */\n      swap1\n      pop\n        /* \"@openzeppelin/contracts-upgradeable/access/OwnableUpgradeable.sol\":1441:1526  function owner() public view virtual returns (address) {... */\n      swap1\n      jump\t// out\n        /* \"@openzeppelin/contracts-upgradeable/access/OwnableUpgradeable.sol\":2321:2519  function transferOwnership(address newOwner) public virtual onlyOwner {... */\n    tag_48:\n        /* \"@openzeppelin/contracts-upgradeable/access/OwnableUpgradeable.sol\":1334:1347  _checkOwner() */\n      tag_108\n        /* \"@openzeppelin/contracts-upgradeable/access/OwnableUpgradeable.sol\":1334:1345  _checkOwner */\n      tag_86\n        /* \"@openzeppelin/contracts-upgradeable/access/OwnableUpgradeable.sol\":1334:1347  _checkOwner() */\n      jump\t// in\n    tag_108:\n        /* \"@openzeppelin/contracts-upgradeable/access/OwnableUpgradeable.sol\":2429:2430  0 */\n      0x00\n        /* \"@openzeppelin/contracts-upgradeable/access/OwnableUpgradeable.sol\":2409:2431  newOwner != address(0) */\n      0xffffffffffffffffffffffffffffffffffffffff\n      and\n        /* \"@openzeppelin/contracts-upgradeable/access/OwnableUpgradeable.sol\":2409:2417  newOwner */\n      dup2\n        /* \"@openzeppelin/contracts-upgradeable/access/OwnableUpgradeable.sol\":2409:2431  newOwner != address(0) */\n      0xffffffffffffffffffffffffffffffffffffffff\n      and\n      eq\n      iszero\n        /* \"@openzeppelin/contracts-upgradeable/access/OwnableUpgradeable.sol\":2401:2474  require(newOwner != address(0), \"Ownable: new owner is the zero address\") */\n      tag_110\n      jumpi\n      mload(0x40)\n      0x08c379a000000000000000000000000000000000000000000000000000000000\n      dup2\n      mstore\n      0x04\n      add\n      tag_111\n      swap1\n      tag_112\n      jump\t// in\n    tag_111:\n      mload(0x40)\n      dup1\n      swap2\n      sub\n      swap1\n      revert\n    tag_110:\n        /* \"@openzeppelin/contracts-upgradeable/access/OwnableUpgradeable.sol\":2484:2512  _transferOwnership(newOwner) */\n      tag_113\n        /* \"@openzeppelin/contracts-upgradeable/access/OwnableUpgradeable.sol\":2503:2511  newOwner */\n      dup2\n        /* \"@openzeppelin/contracts-upgradeable/access/OwnableUpgradeable.sol\":2484:2502  _transferOwnership */\n      tag_89\n        /* \"@openzeppelin/contracts-upgradeable/access/OwnableUpgradeable.sol\":2484:2512  _transferOwnership(newOwner) */\n      jump\t// in\n    tag_113:\n        /* \"@openzeppelin/contracts-upgradeable/access/OwnableUpgradeable.sol\":2321:2519  function transferOwnership(address newOwner) public virtual onlyOwner {... */\n      pop\n      jump\t// out\n        /* \"@openzeppelin/contracts-upgradeable/proxy/ERC1967/ERC1967UpgradeUpgradeable.sol\":1563:1714  function _getImplementation() internal view returns (address) {... */\n    tag_54:\n        /* \"@openzeppelin/contracts-upgradeable/proxy/ERC1967/ERC1967UpgradeUpgradeable.sol\":1616:1623  address */\n      0x00\n        /* \"@openzeppelin/contracts-upgradeable/proxy/ERC1967/ERC1967UpgradeUpgradeable.sol\":1642:1701  StorageSlotUpgradeable.getAddressSlot(_IMPLEMENTATION_SLOT) */\n      tag_115\n        /* \"@openzeppelin/contracts-upgradeable/proxy/ERC1967/ERC1967UpgradeUpgradeable.sol\":1292:1358  0x360894a13ba1a3210667c828492db98dca3e2076cc3735a920a3ca505d382bbc */\n      0x360894a13ba1a3210667c828492db98dca3e2076cc3735a920a3ca505d382bbc\n        /* \"@openzeppelin/contracts-upgradeable/proxy/ERC1967/ERC1967UpgradeUpgradeable.sol\":1680:1700  _IMPLEMENTATION_SLOT */\n      0x00\n      shl\n        /* \"@openzeppelin/contracts-upgradeable/proxy/ERC1967/ERC1967UpgradeUpgradeable.sol\":1642:1679  StorageSlotUpgradeable.getAddressSlot */\n      tag_116\n        /* \"@openzeppelin/contracts-upgradeable/proxy/ERC1967/ERC1967UpgradeUpgradeable.sol\":1642:1701  StorageSlotUpgradeable.getAddressSlot(_IMPLEMENTATION_SLOT) */\n      jump\t// in\n    tag_115:\n        /* \"@openzeppelin/contracts-upgradeable/proxy/ERC1967/ERC1967UpgradeUpgradeable.sol\":1642:1707  StorageSlotUpgradeable.getAddressSlot(_IMPLEMENTATION_SLOT).value */\n      0x00\n      add\n      0x00\n      swap1\n      sload\n      swap1\n      0x0100\n      exp\n      swap1\n      div\n      0xffffffffffffffffffffffffffffffffffffffff\n      and\n        /* \"@openzeppelin/contracts-upgradeable/proxy/ERC1967/ERC1967UpgradeUpgradeable.sol\":1635:1707  return StorageSlotUpgradeable.getAddressSlot(_IMPLEMENTATION_SLOT).value */\n      swap1\n      pop\n        /* \"@openzeppelin/contracts-upgradeable/proxy/ERC1967/ERC1967UpgradeUpgradeable.sol\":1563:1714  function _getImplementation() internal view returns (address) {... */\n      swap1\n      jump\t// out\n        /* \"upgradeable/UUPS_ProxyV2.sol\":671:737  function _authorizeUpgrade(address) internal override onlyOwner {} */\n    tag_60:\n        /* \"@openzeppelin/contracts-upgradeable/access/OwnableUpgradeable.sol\":1334:1347  _checkOwner() */\n      tag_118\n        /* \"@openzeppelin/contracts-upgradeable/access/OwnableUpgradeable.sol\":1334:1345  _checkOwner */\n      tag_86\n        /* \"@openzeppelin/contracts-upgradeable/access/OwnableUpgradeable.sol\":1334:1347  _checkOwner() */\n      jump\t// in\n    tag_118:\n        /* \"upgradeable/UUPS_ProxyV2.sol\":671:737  function _authorizeUpgrade(address) internal override onlyOwner {} */\n      pop\n      jump\t// out\n        /* \"@openzeppelin/contracts-upgradeable/proxy/ERC1967/ERC1967UpgradeUpgradeable.sol\":2938:3912  function _upgradeToAndCallUUPS(... */\n    tag_66:\n        /* \"@openzeppelin/contracts-upgradeable/proxy/ERC1967/ERC1967UpgradeUpgradeable.sol\":3384:3437  StorageSlotUpgradeable.getBooleanSlot(_ROLLBACK_SLOT) */\n      tag_121\n        /* \"@openzeppelin/contracts-upgradeable/proxy/ERC1967/ERC1967UpgradeUpgradeable.sol\":951:1017  0x4910fdfa16fed3260ed0e7147f7cc6da11a60208b5b9406d12a635614ffd9143 */\n      0x4910fdfa16fed3260ed0e7147f7cc6da11a60208b5b9406d12a635614ffd9143\n        /* \"@openzeppelin/contracts-upgradeable/proxy/ERC1967/ERC1967UpgradeUpgradeable.sol\":3422:3436  _ROLLBACK_SLOT */\n      0x00\n      shl\n        /* \"@openzeppelin/contracts-upgradeable/proxy/ERC1967/ERC1967UpgradeUpgradeable.sol\":3384:3421  StorageSlotUpgradeable.getBooleanSlot */\n      tag_122\n        /* \"@openzeppelin/contracts-upgradeable/proxy/ERC1967/ERC1967UpgradeUpgradeable.sol\":3384:3437  StorageSlotUpgradeable.getBooleanSlot(_ROLLBACK_SLOT) */\n      jump\t// in\n    tag_121:\n        /* \"@openzeppelin/contracts-upgradeable/proxy/ERC1967/ERC1967UpgradeUpgradeable.sol\":3384:3443  StorageSlotUpgradeable.getBooleanSlot(_ROLLBACK_SLOT).value */\n      0x00\n      add\n      0x00\n      swap1\n      sload\n      swap1\n      0x0100\n      exp\n      swap1\n      div\n      0xff\n      and\n        /* \"@openzeppelin/contracts-upgradeable/proxy/ERC1967/ERC1967UpgradeUpgradeable.sol\":3380:3906  if (StorageSlotUpgradeable.getBooleanSlot(_ROLLBACK_SLOT).value) {... */\n      iszero\n      tag_123\n      jumpi\n        /* \"@openzeppelin/contracts-upgradeable/proxy/ERC1967/ERC1967UpgradeUpgradeable.sol\":3459:3496  _setImplementation(newImplementation) */\n      tag_124\n        /* \"@openzeppelin/contracts-upgradeable/proxy/ERC1967/ERC1967UpgradeUpgradeable.sol\":3478:3495  newImplementation */\n      dup4\n        /* \"@openzeppelin/contracts-upgradeable/proxy/ERC1967/ERC1967UpgradeUpgradeable.sol\":3459:3477  _setImplementation */\n      tag_125\n        /* \"@openzeppelin/contracts-upgradeable/proxy/ERC1967/ERC1967UpgradeUpgradeable.sol\":3459:3496  _setImplementation(newImplementation) */\n      jump\t// in\n    tag_124:\n        /* \"@openzeppelin/contracts-upgradeable/proxy/ERC1967/ERC1967UpgradeUpgradeable.sol\":3380:3906  if (StorageSlotUpgradeable.getBooleanSlot(_ROLLBACK_SLOT).value) {... */\n      jump(tag_126)\n    tag_123:\n        /* \"@openzeppelin/contracts-upgradeable/proxy/ERC1967/ERC1967UpgradeUpgradeable.sol\":3560:3577  newImplementation */\n      dup3\n        /* \"@openzeppelin/contracts-upgradeable/proxy/ERC1967/ERC1967UpgradeUpgradeable.sol\":3531:3592  IERC1822ProxiableUpgradeable(newImplementation).proxiableUUID */\n      0xffffffffffffffffffffffffffffffffffffffff\n      and\n      0x52d1902d\n        /* \"@openzeppelin/contracts-upgradeable/proxy/ERC1967/ERC1967UpgradeUpgradeable.sol\":3531:3594  IERC1822ProxiableUpgradeable(newImplementation).proxiableUUID() */\n      mload(0x40)\n      dup2\n      0xffffffff\n      and\n      0xe0\n      shl\n      dup2\n      mstore\n      0x04\n      add\n      0x20\n      mload(0x40)\n      dup1\n      dup4\n      sub\n      dup2\n      dup7\n      dup1\n      extcodesize\n      iszero\n      dup1\n      iszero\n      tag_127\n      jumpi\n      0x00\n      dup1\n      revert\n    tag_127:\n      pop\n      gas\n      staticcall\n      swap3\n      pop\n      pop\n      pop\n      dup1\n      iszero\n      tag_128\n      jumpi\n      pop\n      mload(0x40)\n      returndatasize\n      not(0x1f)\n      0x1f\n      dup3\n      add\n      and\n      dup3\n      add\n      dup1\n      0x40\n      mstore\n      pop\n      dup2\n      add\n      swap1\n      tag_129\n      swap2\n      swap1\n      tag_130\n      jump\t// in\n    tag_129:\n      0x01\n    tag_128:\n        /* \"@openzeppelin/contracts-upgradeable/proxy/ERC1967/ERC1967UpgradeUpgradeable.sol\":3527:3829  try IERC1822ProxiableUpgradeable(newImplementation).proxiableUUID() returns (bytes32 slot) {... */\n      tag_131\n      jumpi\n        /* \"@openzeppelin/contracts-upgradeable/proxy/ERC1967/ERC1967UpgradeUpgradeable.sol\":3758:3814  revert(\"ERC1967Upgrade: new implementation is not UUPS\") */\n      mload(0x40)\n      0x08c379a000000000000000000000000000000000000000000000000000000000\n      dup2\n      mstore\n      0x04\n      add\n      tag_135\n      swap1\n      tag_136\n      jump\t// in\n    tag_135:\n      mload(0x40)\n      dup1\n      swap2\n      sub\n      swap1\n      revert\n        /* \"@openzeppelin/contracts-upgradeable/proxy/ERC1967/ERC1967UpgradeUpgradeable.sol\":3527:3829  try IERC1822ProxiableUpgradeable(newImplementation).proxiableUUID() returns (bytes32 slot) {... */\n    tag_131:\n        /* \"@openzeppelin/contracts-upgradeable/proxy/ERC1967/ERC1967UpgradeUpgradeable.sol\":1292:1358  0x360894a13ba1a3210667c828492db98dca3e2076cc3735a920a3ca505d382bbc */\n      0x360894a13ba1a3210667c828492db98dca3e2076cc3735a920a3ca505d382bbc\n        /* \"@openzeppelin/contracts-upgradeable/proxy/ERC1967/ERC1967UpgradeUpgradeable.sol\":3652:3672  _IMPLEMENTATION_SLOT */\n      0x00\n      shl\n        /* \"@openzeppelin/contracts-upgradeable/proxy/ERC1967/ERC1967UpgradeUpgradeable.sol\":3644:3648  slot */\n      dup2\n        /* \"@openzeppelin/contracts-upgradeable/proxy/ERC1967/ERC1967UpgradeUpgradeable.sol\":3644:3672  slot == _IMPLEMENTATION_SLOT */\n      eq\n        /* \"@openzeppelin/contracts-upgradeable/proxy/ERC1967/ERC1967UpgradeUpgradeable.sol\":3636:3718  require(slot == _IMPLEMENTATION_SLOT, \"ERC1967Upgrade: unsupported proxiableUUID\") */\n      tag_138\n      jumpi\n      mload(0x40)\n      0x08c379a000000000000000000000000000000000000000000000000000000000\n      dup2\n      mstore\n      0x04\n      add\n      tag_139\n      swap1\n      tag_140\n      jump\t// in\n    tag_139:\n      mload(0x40)\n      dup1\n      swap2\n      sub\n      swap1\n      revert\n    tag_138:\n        /* \"@openzeppelin/contracts-upgradeable/proxy/ERC1967/ERC1967UpgradeUpgradeable.sol\":3595:3733  returns (bytes32 slot) {... */\n      pop\n        /* \"@openzeppelin/contracts-upgradeable/proxy/ERC1967/ERC1967UpgradeUpgradeable.sol\":3842:3895  _upgradeToAndCall(newImplementation, data, forceCall) */\n      tag_141\n        /* \"@openzeppelin/contracts-upgradeable/proxy/ERC1967/ERC1967UpgradeUpgradeable.sol\":3860:3877  newImplementation */\n      dup4\n        /* \"@openzeppelin/contracts-upgradeable/proxy/ERC1967/ERC1967UpgradeUpgradeable.sol\":3879:3883  data */\n      dup4\n        /* \"@openzeppelin/contracts-upgradeable/proxy/ERC1967/ERC1967UpgradeUpgradeable.sol\":3885:3894  forceCall */\n      dup4\n        /* \"@openzeppelin/contracts-upgradeable/proxy/ERC1967/ERC1967UpgradeUpgradeable.sol\":3842:3859  _upgradeToAndCall */\n      tag_142\n        /* \"@openzeppelin/contracts-upgradeable/proxy/ERC1967/ERC1967UpgradeUpgradeable.sol\":3842:3895  _upgradeToAndCall(newImplementation, data, forceCall) */\n      jump\t// in\n    tag_141:\n        /* \"@openzeppelin/contracts-upgradeable/proxy/ERC1967/ERC1967UpgradeUpgradeable.sol\":3380:3906  if (StorageSlotUpgradeable.getBooleanSlot(_ROLLBACK_SLOT).value) {... */\n    tag_126:\n        /* \"@openzeppelin/contracts-upgradeable/proxy/ERC1967/ERC1967UpgradeUpgradeable.sol\":2938:3912  function _upgradeToAndCallUUPS(... */\n      pop\n      pop\n      pop\n      jump\t// out\n        /* \"@openzeppelin/contracts-upgradeable/access/OwnableUpgradeable.sol\":1599:1729  function _checkOwner() internal view virtual {... */\n    tag_86:\n        /* \"@openzeppelin/contracts-upgradeable/access/OwnableUpgradeable.sol\":1673:1685  _msgSender() */\n      tag_144\n        /* \"@openzeppelin/contracts-upgradeable/access/OwnableUpgradeable.sol\":1673:1683  _msgSender */\n      tag_145\n        /* \"@openzeppelin/contracts-upgradeable/access/OwnableUpgradeable.sol\":1673:1685  _msgSender() */\n      jump\t// in\n    tag_144:\n        /* \"@openzeppelin/contracts-upgradeable/access/OwnableUpgradeable.sol\":1662:1685  owner() == _msgSender() */\n      0xffffffffffffffffffffffffffffffffffffffff\n      and\n        /* \"@openzeppelin/contracts-upgradeable/access/OwnableUpgradeable.sol\":1662:1669  owner() */\n      tag_146\n        /* \"@openzeppelin/contracts-upgradeable/access/OwnableUpgradeable.sol\":1662:1667  owner */\n      tag_42\n        /* \"@openzeppelin/contracts-upgradeable/access/OwnableUpgradeable.sol\":1662:1669  owner() */\n      jump\t// in\n    tag_146:\n        /* \"@openzeppelin/contracts-upgradeable/access/OwnableUpgradeable.sol\":1662:1685  owner() == _msgSender() */\n      0xffffffffffffffffffffffffffffffffffffffff\n      and\n      eq\n        /* \"@openzeppelin/contracts-upgradeable/access/OwnableUpgradeable.sol\":1654:1722  require(owner() == _msgSender(), \"Ownable: caller is not the owner\") */\n      tag_147\n      jumpi\n      mload(0x40)\n      0x08c379a000000000000000000000000000000000000000000000000000000000\n      dup2\n      mstore\n      0x04\n      add\n      tag_148\n      swap1\n      tag_149\n      jump\t// in\n    tag_148:\n      mload(0x40)\n      dup1\n      swap2\n      sub\n      swap1\n      revert\n    tag_147:\n        /* \"@openzeppelin/contracts-upgradeable/access/OwnableUpgradeable.sol\":1599:1729  function _checkOwner() internal view virtual {... */\n      jump\t// out\n        /* \"@openzeppelin/contracts-upgradeable/access/OwnableUpgradeable.sol\":2673:2860  function _transferOwnership(address newOwner) internal virtual {... */\n    tag_89:\n        /* \"@openzeppelin/contracts-upgradeable/access/OwnableUpgradeable.sol\":2746:2762  address oldOwner */\n      0x00\n        /* \"@openzeppelin/contracts-upgradeable/access/OwnableUpgradeable.sol\":2765:2771  _owner */\n      0x97\n      0x00\n      swap1\n      sload\n      swap1\n      0x0100\n      exp\n      swap1\n      div\n      0xffffffffffffffffffffffffffffffffffffffff\n      and\n        /* \"@openzeppelin/contracts-upgradeable/access/OwnableUpgradeable.sol\":2746:2771  address oldOwner = _owner */\n      swap1\n      pop\n        /* \"@openzeppelin/contracts-upgradeable/access/OwnableUpgradeable.sol\":2790:2798  newOwner */\n      dup2\n        /* \"@openzeppelin/contracts-upgradeable/access/OwnableUpgradeable.sol\":2781:2787  _owner */\n      0x97\n      0x00\n        /* \"@openzeppelin/contracts-upgradeable/access/OwnableUpgradeable.sol\":2781:2798  _owner = newOwner */\n      0x0100\n      exp\n      dup2\n      sload\n      dup2\n      0xffffffffffffffffffffffffffffffffffffffff\n      mul\n      not\n      and\n      swap1\n      dup4\n      0xffffffffffffffffffffffffffffffffffffffff\n      and\n      mul\n      or\n      swap1\n      sstore\n      pop\n        /* \"@openzeppelin/contracts-upgradeable/access/OwnableUpgradeable.sol\":2844:2852  newOwner */\n      dup2\n        /* \"@openzeppelin/contracts-upgradeable/access/OwnableUpgradeable.sol\":2813:2853  OwnershipTransferred(oldOwner, newOwner) */\n      0xffffffffffffffffffffffffffffffffffffffff\n      and\n        /* \"@openzeppelin/contracts-upgradeable/access/OwnableUpgradeable.sol\":2834:2842  oldOwner */\n      dup2\n        /* \"@openzeppelin/contracts-upgradeable/access/OwnableUpgradeable.sol\":2813:2853  OwnershipTransferred(oldOwner, newOwner) */\n      0xffffffffffffffffffffffffffffffffffffffff\n      and\n      0x8be0079c531659141344cd1fd0a4f28419497f9722a3daafe3b4186f6b6457e0\n      mload(0x40)\n      mload(0x40)\n      dup1\n      swap2\n      sub\n      swap1\n      log3\n        /* \"@openzeppelin/contracts-upgradeable/access/OwnableUpgradeable.sol\":2736:2860  {... */\n      pop\n        /* \"@openzeppelin/contracts-upgradeable/access/OwnableUpgradeable.sol\":2673:2860  function _transferOwnership(address newOwner) internal virtual {... */\n      pop\n      jump\t// out\n        /* \"@openzeppelin/contracts-upgradeable/utils/AddressUpgradeable.sol\":1186:1506  function isContract(address account) internal view returns (bool) {... */\n    tag_94:\n        /* \"@openzeppelin/contracts-upgradeable/utils/AddressUpgradeable.sol\":1246:1250  bool */\n      0x00\n        /* \"@openzeppelin/contracts-upgradeable/utils/AddressUpgradeable.sol\":1498:1499  0 */\n      dup1\n        /* \"@openzeppelin/contracts-upgradeable/utils/AddressUpgradeable.sol\":1476:1483  account */\n      dup3\n        /* \"@openzeppelin/contracts-upgradeable/utils/AddressUpgradeable.sol\":1476:1495  account.code.length */\n      0xffffffffffffffffffffffffffffffffffffffff\n      and\n      extcodesize\n        /* \"@openzeppelin/contracts-upgradeable/utils/AddressUpgradeable.sol\":1476:1499  account.code.length > 0 */\n      gt\n        /* \"@openzeppelin/contracts-upgradeable/utils/AddressUpgradeable.sol\":1469:1499  return account.code.length > 0 */\n      swap1\n      pop\n        /* \"@openzeppelin/contracts-upgradeable/utils/AddressUpgradeable.sol\":1186:1506  function isContract(address account) internal view returns (bool) {... */\n      swap2\n      swap1\n      pop\n      jump\t// out\n        /* \"@openzeppelin/contracts-upgradeable/access/OwnableUpgradeable.sol\":1003:1098  function __Ownable_init() internal onlyInitializing {... */\n    tag_102:\n        /* \"@openzeppelin/contracts-upgradeable/proxy/utils/Initializable.sol\":5363:5376  _initializing */\n      0x00\n      0x01\n      swap1\n      sload\n      swap1\n      0x0100\n      exp\n      swap1\n      div\n      0xff\n      and\n        /* \"@openzeppelin/contracts-upgradeable/proxy/utils/Initializable.sol\":5355:5424  require(_initializing, \"Initializable: contract is not initializing\") */\n      tag_153\n      jumpi\n      mload(0x40)\n      0x08c379a000000000000000000000000000000000000000000000000000000000\n      dup2\n      mstore\n      0x04\n      add\n      tag_154\n      swap1\n      tag_155\n      jump\t// in\n    tag_154:\n      mload(0x40)\n      dup1\n      swap2\n      sub\n      swap1\n      revert\n    tag_153:\n        /* \"@openzeppelin/contracts-upgradeable/access/OwnableUpgradeable.sol\":1065:1091  __Ownable_init_unchained() */\n      tag_157\n        /* \"@openzeppelin/contracts-upgradeable/access/OwnableUpgradeable.sol\":1065:1089  __Ownable_init_unchained */\n      tag_158\n        /* \"@openzeppelin/contracts-upgradeable/access/OwnableUpgradeable.sol\":1065:1091  __Ownable_init_unchained() */\n      jump\t// in\n    tag_157:\n        /* \"@openzeppelin/contracts-upgradeable/access/OwnableUpgradeable.sol\":1003:1098  function __Ownable_init() internal onlyInitializing {... */\n      jump\t// out\n        /* \"@openzeppelin/contracts-upgradeable/utils/StorageSlotUpgradeable.sol\":1625:1815  function getAddressSlot(bytes32 slot) internal pure returns (AddressSlot storage r) {... */\n    tag_116:\n        /* \"@openzeppelin/contracts-upgradeable/utils/StorageSlotUpgradeable.sol\":1686:1707  AddressSlot storage r */\n      0x00\n        /* \"@openzeppelin/contracts-upgradeable/utils/StorageSlotUpgradeable.sol\":1795:1799  slot */\n      dup2\n        /* \"@openzeppelin/contracts-upgradeable/utils/StorageSlotUpgradeable.sol\":1785:1799  r.slot := slot */\n      swap1\n      pop\n        /* \"@openzeppelin/contracts-upgradeable/utils/StorageSlotUpgradeable.sol\":1625:1815  function getAddressSlot(bytes32 slot) internal pure returns (AddressSlot storage r) {... */\n      swap2\n      swap1\n      pop\n      jump\t// out\n        /* \"@openzeppelin/contracts-upgradeable/utils/StorageSlotUpgradeable.sol\":1913:2103  function getBooleanSlot(bytes32 slot) internal pure returns (BooleanSlot storage r) {... */\n    tag_122:\n        /* \"@openzeppelin/contracts-upgradeable/utils/StorageSlotUpgradeable.sol\":1974:1995  BooleanSlot storage r */\n      0x00\n        /* \"@openzeppelin/contracts-upgradeable/utils/StorageSlotUpgradeable.sol\":2083:2087  slot */\n      dup2\n        /* \"@openzeppelin/contracts-upgradeable/utils/StorageSlotUpgradeable.sol\":2073:2087  r.slot := slot */\n      swap1\n      pop\n        /* \"@openzeppelin/contracts-upgradeable/utils/StorageSlotUpgradeable.sol\":1913:2103  function getBooleanSlot(bytes32 slot) internal pure returns (BooleanSlot storage r) {... */\n      swap2\n      swap1\n      pop\n      jump\t// out\n        /* \"@openzeppelin/contracts-upgradeable/proxy/ERC1967/ERC1967UpgradeUpgradeable.sol\":1805:2086  function _setImplementation(address newImplementation) private {... */\n    tag_125:\n        /* \"@openzeppelin/contracts-upgradeable/proxy/ERC1967/ERC1967UpgradeUpgradeable.sol\":1886:1934  AddressUpgradeable.isContract(newImplementation) */\n      tag_162\n        /* \"@openzeppelin/contracts-upgradeable/proxy/ERC1967/ERC1967UpgradeUpgradeable.sol\":1916:1933  newImplementation */\n      dup2\n        /* \"@openzeppelin/contracts-upgradeable/proxy/ERC1967/ERC1967UpgradeUpgradeable.sol\":1886:1915  AddressUpgradeable.isContract */\n      tag_94\n        /* \"@openzeppelin/contracts-upgradeable/proxy/ERC1967/ERC1967UpgradeUpgradeable.sol\":1886:1934  AddressUpgradeable.isContract(newImplementation) */\n      jump\t// in\n    tag_162:\n        /* \"@openzeppelin/contracts-upgradeable/proxy/ERC1967/ERC1967UpgradeUpgradeable.sol\":1878:1984  require(AddressUpgradeable.isContract(newImplementation), \"ERC1967: new implementation is not a contract\") */\n      tag_163\n      jumpi\n      mload(0x40)\n      0x08c379a000000000000000000000000000000000000000000000000000000000\n      dup2\n      mstore\n      0x04\n      add\n      tag_164\n      swap1\n      tag_165\n      jump\t// in\n    tag_164:\n      mload(0x40)\n      dup1\n      swap2\n      sub\n      swap1\n      revert\n    tag_163:\n        /* \"@openzeppelin/contracts-upgradeable/proxy/ERC1967/ERC1967UpgradeUpgradeable.sol\":2062:2079  newImplementation */\n      dup1\n        /* \"@openzeppelin/contracts-upgradeable/proxy/ERC1967/ERC1967UpgradeUpgradeable.sol\":1994:2053  StorageSlotUpgradeable.getAddressSlot(_IMPLEMENTATION_SLOT) */\n      tag_166\n        /* \"@openzeppelin/contracts-upgradeable/proxy/ERC1967/ERC1967UpgradeUpgradeable.sol\":1292:1358  0x360894a13ba1a3210667c828492db98dca3e2076cc3735a920a3ca505d382bbc */\n      0x360894a13ba1a3210667c828492db98dca3e2076cc3735a920a3ca505d382bbc\n        /* \"@openzeppelin/contracts-upgradeable/proxy/ERC1967/ERC1967UpgradeUpgradeable.sol\":2032:2052  _IMPLEMENTATION_SLOT */\n      0x00\n      shl\n        /* \"@openzeppelin/contracts-upgradeable/proxy/ERC1967/ERC1967UpgradeUpgradeable.sol\":1994:2031  StorageSlotUpgradeable.getAddressSlot */\n      tag_116\n        /* \"@openzeppelin/contracts-upgradeable/proxy/ERC1967/ERC1967UpgradeUpgradeable.sol\":1994:2053  StorageSlotUpgradeable.getAddressSlot(_IMPLEMENTATION_SLOT) */\n      jump\t// in\n    tag_166:\n        /* \"@openzeppelin/contracts-upgradeable/proxy/ERC1967/ERC1967UpgradeUpgradeable.sol\":1994:2059  StorageSlotUpgradeable.getAddressSlot(_IMPLEMENTATION_SLOT).value */\n      0x00\n      add\n      0x00\n        /* \"@openzeppelin/contracts-upgradeable/proxy/ERC1967/ERC1967UpgradeUpgradeable.sol\":1994:2079  StorageSlotUpgradeable.getAddressSlot(_IMPLEMENTATION_SLOT).value = newImplementation */\n      0x0100\n      exp\n      dup2\n      sload\n      dup2\n      0xffffffffffffffffffffffffffffffffffffffff\n      mul\n      not\n      and\n      swap1\n      dup4\n      0xffffffffffffffffffffffffffffffffffffffff\n      and\n      mul\n      or\n      swap1\n      sstore\n      pop\n        /* \"@openzeppelin/contracts-upgradeable/proxy/ERC1967/ERC1967UpgradeUpgradeable.sol\":1805:2086  function _setImplementation(address newImplementation) private {... */\n      pop\n      jump\t// out\n        /* \"@openzeppelin/contracts-upgradeable/proxy/ERC1967/ERC1967UpgradeUpgradeable.sol\":2478:2766  function _upgradeToAndCall(... */\n    tag_142:\n        /* \"@openzeppelin/contracts-upgradeable/proxy/ERC1967/ERC1967UpgradeUpgradeable.sol\":2616:2645  _upgradeTo(newImplementation) */\n      tag_168\n        /* \"@openzeppelin/contracts-upgradeable/proxy/ERC1967/ERC1967UpgradeUpgradeable.sol\":2627:2644  newImplementation */\n      dup4\n        /* \"@openzeppelin/contracts-upgradeable/proxy/ERC1967/ERC1967UpgradeUpgradeable.sol\":2616:2626  _upgradeTo */\n      tag_169\n        /* \"@openzeppelin/contracts-upgradeable/proxy/ERC1967/ERC1967UpgradeUpgradeable.sol\":2616:2645  _upgradeTo(newImplementation) */\n      jump\t// in\n    tag_168:\n        /* \"@openzeppelin/contracts-upgradeable/proxy/ERC1967/ERC1967UpgradeUpgradeable.sol\":2673:2674  0 */\n      0x00\n        /* \"@openzeppelin/contracts-upgradeable/proxy/ERC1967/ERC1967UpgradeUpgradeable.sol\":2659:2663  data */\n      dup3\n        /* \"@openzeppelin/contracts-upgradeable/proxy/ERC1967/ERC1967UpgradeUpgradeable.sol\":2659:2670  data.length */\n      mload\n        /* \"@openzeppelin/contracts-upgradeable/proxy/ERC1967/ERC1967UpgradeUpgradeable.sol\":2659:2674  data.length > 0 */\n      gt\n        /* \"@openzeppelin/contracts-upgradeable/proxy/ERC1967/ERC1967UpgradeUpgradeable.sol\":2659:2687  data.length > 0 || forceCall */\n      dup1\n      tag_170\n      jumpi\n      pop\n        /* \"@openzeppelin/contracts-upgradeable/proxy/ERC1967/ERC1967UpgradeUpgradeable.sol\":2678:2687  forceCall */\n      dup1\n        /* \"@openzeppelin/contracts-upgradeable/proxy/ERC1967/ERC1967UpgradeUpgradeable.sol\":2659:2687  data.length > 0 || forceCall */\n    tag_170:\n        /* \"@openzeppelin/contracts-upgradeable/proxy/ERC1967/ERC1967UpgradeUpgradeable.sol\":2655:2760  if (data.length > 0 || forceCall) {... */\n      iszero\n      tag_171\n      jumpi\n        /* \"@openzeppelin/contracts-upgradeable/proxy/ERC1967/ERC1967UpgradeUpgradeable.sol\":2703:2749  _functionDelegateCall(newImplementation, data) */\n      tag_172\n        /* \"@openzeppelin/contracts-upgradeable/proxy/ERC1967/ERC1967UpgradeUpgradeable.sol\":2725:2742  newImplementation */\n      dup4\n        /* \"@openzeppelin/contracts-upgradeable/proxy/ERC1967/ERC1967UpgradeUpgradeable.sol\":2744:2748  data */\n      dup4\n        /* \"@openzeppelin/contracts-upgradeable/proxy/ERC1967/ERC1967UpgradeUpgradeable.sol\":2703:2724  _functionDelegateCall */\n      tag_173\n        /* \"@openzeppelin/contracts-upgradeable/proxy/ERC1967/ERC1967UpgradeUpgradeable.sol\":2703:2749  _functionDelegateCall(newImplementation, data) */\n      jump\t// in\n    tag_172:\n      pop\n        /* \"@openzeppelin/contracts-upgradeable/proxy/ERC1967/ERC1967UpgradeUpgradeable.sol\":2655:2760  if (data.length > 0 || forceCall) {... */\n    tag_171:\n        /* \"@openzeppelin/contracts-upgradeable/proxy/ERC1967/ERC1967UpgradeUpgradeable.sol\":2478:2766  function _upgradeToAndCall(... */\n      pop\n      pop\n      pop\n      jump\t// out\n        /* \"@openzeppelin/contracts-upgradeable/utils/ContextUpgradeable.sol\":850:946  function _msgSender() internal view virtual returns (address) {... */\n    tag_145:\n        /* \"@openzeppelin/contracts-upgradeable/utils/ContextUpgradeable.sol\":903:910  address */\n      0x00\n        /* \"@openzeppelin/contracts-upgradeable/utils/ContextUpgradeable.sol\":929:939  msg.sender */\n      caller\n        /* \"@openzeppelin/contracts-upgradeable/utils/ContextUpgradeable.sol\":922:939  return msg.sender */\n      swap1\n      pop\n        /* \"@openzeppelin/contracts-upgradeable/utils/ContextUpgradeable.sol\":850:946  function _msgSender() internal view virtual returns (address) {... */\n      swap1\n      jump\t// out\n        /* \"@openzeppelin/contracts-upgradeable/access/OwnableUpgradeable.sol\":1104:1215  function __Ownable_init_unchained() internal onlyInitializing {... */\n    tag_158:\n        /* \"@openzeppelin/contracts-upgradeable/proxy/utils/Initializable.sol\":5363:5376  _initializing */\n      0x00\n      0x01\n      swap1\n      sload\n      swap1\n      0x0100\n      exp\n      swap1\n      div\n      0xff\n      and\n        /* \"@openzeppelin/contracts-upgradeable/proxy/utils/Initializable.sol\":5355:5424  require(_initializing, \"Initializable: contract is not initializing\") */\n      tag_176\n      jumpi\n      mload(0x40)\n      0x08c379a000000000000000000000000000000000000000000000000000000000\n      dup2\n      mstore\n      0x04\n      add\n      tag_177\n      swap1\n      tag_155\n      jump\t// in\n    tag_177:\n      mload(0x40)\n      dup1\n      swap2\n      sub\n      swap1\n      revert\n    tag_176:\n        /* \"@openzeppelin/contracts-upgradeable/access/OwnableUpgradeable.sol\":1176:1208  _transferOwnership(_msgSender()) */\n      tag_179\n        /* \"@openzeppelin/contracts-upgradeable/access/OwnableUpgradeable.sol\":1195:1207  _msgSender() */\n      tag_180\n        /* \"@openzeppelin/contracts-upgradeable/access/OwnableUpgradeable.sol\":1195:1205  _msgSender */\n      tag_145\n        /* \"@openzeppelin/contracts-upgradeable/access/OwnableUpgradeable.sol\":1195:1207  _msgSender() */\n      jump\t// in\n    tag_180:\n        /* \"@openzeppelin/contracts-upgradeable/access/OwnableUpgradeable.sol\":1176:1194  _transferOwnership */\n      tag_89\n        /* \"@openzeppelin/contracts-upgradeable/access/OwnableUpgradeable.sol\":1176:1208  _transferOwnership(_msgSender()) */\n      jump\t// in\n    tag_179:\n        /* \"@openzeppelin/contracts-upgradeable/access/OwnableUpgradeable.sol\":1104:1215  function __Ownable_init_unchained() internal onlyInitializing {... */\n      jump\t// out\n        /* \"@openzeppelin/contracts-upgradeable/proxy/ERC1967/ERC1967UpgradeUpgradeable.sol\":2192:2344  function _upgradeTo(address newImplementation) internal {... */\n    tag_169:\n        /* \"@openzeppelin/contracts-upgradeable/proxy/ERC1967/ERC1967UpgradeUpgradeable.sol\":2258:2295  _setImplementation(newImplementation) */\n      tag_182\n        /* \"@openzeppelin/contracts-upgradeable/proxy/ERC1967/ERC1967UpgradeUpgradeable.sol\":2277:2294  newImplementation */\n      dup2\n        /* \"@openzeppelin/contracts-upgradeable/proxy/ERC1967/ERC1967UpgradeUpgradeable.sol\":2258:2276  _setImplementation */\n      tag_125\n        /* \"@openzeppelin/contracts-upgradeable/proxy/ERC1967/ERC1967UpgradeUpgradeable.sol\":2258:2295  _setImplementation(newImplementation) */\n      jump\t// in\n    tag_182:\n        /* \"@openzeppelin/contracts-upgradeable/proxy/ERC1967/ERC1967UpgradeUpgradeable.sol\":2319:2336  newImplementation */\n      dup1\n        /* \"@openzeppelin/contracts-upgradeable/proxy/ERC1967/ERC1967UpgradeUpgradeable.sol\":2310:2337  Upgraded(newImplementation) */\n      0xffffffffffffffffffffffffffffffffffffffff\n      and\n      0xbc7cd75a20ee27fd9adebab32041f755214dbc6bffa90cc0225b39da2e5c2d3b\n      mload(0x40)\n      mload(0x40)\n      dup1\n      swap2\n      sub\n      swap1\n      log2\n        /* \"@openzeppelin/contracts-upgradeable/proxy/ERC1967/ERC1967UpgradeUpgradeable.sol\":2192:2344  function _upgradeTo(address newImplementation) internal {... */\n      pop\n      jump\t// out\n        /* \"@openzeppelin/contracts-upgradeable/proxy/ERC1967/ERC1967UpgradeUpgradeable.sol\":7088:7543  function _functionDelegateCall(address target, bytes memory data) private returns (bytes memory) {... */\n    tag_173:\n        /* \"@openzeppelin/contracts-upgradeable/proxy/ERC1967/ERC1967UpgradeUpgradeable.sol\":7171:7183  bytes memory */\n      0x60\n        /* \"@openzeppelin/contracts-upgradeable/proxy/ERC1967/ERC1967UpgradeUpgradeable.sol\":7203:7240  AddressUpgradeable.isContract(target) */\n      tag_184\n        /* \"@openzeppelin/contracts-upgradeable/proxy/ERC1967/ERC1967UpgradeUpgradeable.sol\":7233:7239  target */\n      dup4\n        /* \"@openzeppelin/contracts-upgradeable/proxy/ERC1967/ERC1967UpgradeUpgradeable.sol\":7203:7232  AddressUpgradeable.isContract */\n      tag_94\n        /* \"@openzeppelin/contracts-upgradeable/proxy/ERC1967/ERC1967UpgradeUpgradeable.sol\":7203:7240  AddressUpgradeable.isContract(target) */\n      jump\t// in\n    tag_184:\n        /* \"@openzeppelin/contracts-upgradeable/proxy/ERC1967/ERC1967UpgradeUpgradeable.sol\":7195:7283  require(AddressUpgradeable.isContract(target), \"Address: delegate call to non-contract\") */\n      tag_185\n      jumpi\n      mload(0x40)\n      0x08c379a000000000000000000000000000000000000000000000000000000000\n      dup2\n      mstore\n      0x04\n      add\n      tag_186\n      swap1\n      tag_187\n      jump\t// in\n    tag_186:\n      mload(0x40)\n      dup1\n      swap2\n      sub\n      swap1\n      revert\n    tag_185:\n        /* \"@openzeppelin/contracts-upgradeable/proxy/ERC1967/ERC1967UpgradeUpgradeable.sol\":7354:7366  bool success */\n      0x00\n        /* \"@openzeppelin/contracts-upgradeable/proxy/ERC1967/ERC1967UpgradeUpgradeable.sol\":7368:7391  bytes memory returndata */\n      dup1\n        /* \"@openzeppelin/contracts-upgradeable/proxy/ERC1967/ERC1967UpgradeUpgradeable.sol\":7395:7401  target */\n      dup5\n        /* \"@openzeppelin/contracts-upgradeable/proxy/ERC1967/ERC1967UpgradeUpgradeable.sol\":7395:7414  target.delegatecall */\n      0xffffffffffffffffffffffffffffffffffffffff\n      and\n        /* \"@openzeppelin/contracts-upgradeable/proxy/ERC1967/ERC1967UpgradeUpgradeable.sol\":7415:7419  data */\n      dup5\n        /* \"@openzeppelin/contracts-upgradeable/proxy/ERC1967/ERC1967UpgradeUpgradeable.sol\":7395:7420  target.delegatecall(data) */\n      mload(0x40)\n      tag_188\n      swap2\n      swap1\n      tag_189\n      jump\t// in\n    tag_188:\n      0x00\n      mload(0x40)\n      dup1\n      dup4\n      sub\n      dup2\n      dup6\n      gas\n      delegatecall\n      swap2\n      pop\n      pop\n      returndatasize\n      dup1\n      0x00\n      dup2\n      eq\n      tag_192\n      jumpi\n      mload(0x40)\n      swap2\n      pop\n      and(add(returndatasize, 0x3f), not(0x1f))\n      dup3\n      add\n      0x40\n      mstore\n      returndatasize\n      dup3\n      mstore\n      returndatasize\n      0x00\n      0x20\n      dup5\n      add\n      returndatacopy\n      jump(tag_191)\n    tag_192:\n      0x60\n      swap2\n      pop\n    tag_191:\n      pop\n        /* \"@openzeppelin/contracts-upgradeable/proxy/ERC1967/ERC1967UpgradeUpgradeable.sol\":7353:7420  (bool success, bytes memory returndata) = target.delegatecall(data) */\n      swap2\n      pop\n      swap2\n      pop\n        /* \"@openzeppelin/contracts-upgradeable/proxy/ERC1967/ERC1967UpgradeUpgradeable.sol\":7437:7536  AddressUpgradeable.verifyCallResult(success, returndata, \"Address: low-level delegate call failed\") */\n      tag_193\n        /* \"@openzeppelin/contracts-upgradeable/proxy/ERC1967/ERC1967UpgradeUpgradeable.sol\":7473:7480  success */\n      dup3\n        /* \"@openzeppelin/contracts-upgradeable/proxy/ERC1967/ERC1967UpgradeUpgradeable.sol\":7482:7492  returndata */\n      dup3\n        /* \"@openzeppelin/contracts-upgradeable/proxy/ERC1967/ERC1967UpgradeUpgradeable.sol\":7437:7536  AddressUpgradeable.verifyCallResult(success, returndata, \"Address: low-level delegate call failed\") */\n      mload(0x40)\n      dup1\n      0x60\n      add\n      0x40\n      mstore\n      dup1\n      0x27\n      dup2\n      mstore\n      0x20\n      add\n      data_9fdcd12e4b726339b32a442b0a448365d5d85c96b2d2cff917b4f66c63110398\n      0x27\n      swap2\n      codecopy\n        /* \"@openzeppelin/contracts-upgradeable/proxy/ERC1967/ERC1967UpgradeUpgradeable.sol\":7437:7472  AddressUpgradeable.verifyCallResult */\n      tag_194\n        /* \"@openzeppelin/contracts-upgradeable/proxy/ERC1967/ERC1967UpgradeUpgradeable.sol\":7437:7536  AddressUpgradeable.verifyCallResult(success, returndata, \"Address: low-level delegate call failed\") */\n      jump\t// in\n    tag_193:\n        /* \"@openzeppelin/contracts-upgradeable/proxy/ERC1967/ERC1967UpgradeUpgradeable.sol\":7430:7536  return AddressUpgradeable.verifyCallResult(success, returndata, \"Address: low-level delegate call failed\") */\n      swap3\n      pop\n      pop\n      pop\n        /* \"@openzeppelin/contracts-upgradeable/proxy/ERC1967/ERC1967UpgradeUpgradeable.sol\":7088:7543  function _functionDelegateCall(address target, bytes memory data) private returns (bytes memory) {... */\n      swap3\n      swap2\n      pop\n      pop\n      jump\t// out\n        /* \"@openzeppelin/contracts-upgradeable/utils/AddressUpgradeable.sol\":7438:7733  function verifyCallResult(... */\n    tag_194:\n        /* \"@openzeppelin/contracts-upgradeable/utils/AddressUpgradeable.sol\":7584:7596  bytes memory */\n      0x60\n        /* \"@openzeppelin/contracts-upgradeable/utils/AddressUpgradeable.sol\":7612:7619  success */\n      dup4\n        /* \"@openzeppelin/contracts-upgradeable/utils/AddressUpgradeable.sol\":7608:7727  if (success) {... */\n      iszero\n      tag_196\n      jumpi\n        /* \"@openzeppelin/contracts-upgradeable/utils/AddressUpgradeable.sol\":7642:7652  returndata */\n      dup3\n        /* \"@openzeppelin/contracts-upgradeable/utils/AddressUpgradeable.sol\":7635:7652  return returndata */\n      swap1\n      pop\n      jump(tag_195)\n        /* \"@openzeppelin/contracts-upgradeable/utils/AddressUpgradeable.sol\":7608:7727  if (success) {... */\n    tag_196:\n        /* \"@openzeppelin/contracts-upgradeable/utils/AddressUpgradeable.sol\":7683:7716  _revert(returndata, errorMessage) */\n      tag_198\n        /* \"@openzeppelin/contracts-upgradeable/utils/AddressUpgradeable.sol\":7691:7701  returndata */\n      dup4\n        /* \"@openzeppelin/contracts-upgradeable/utils/AddressUpgradeable.sol\":7703:7715  errorMessage */\n      dup4\n        /* \"@openzeppelin/contracts-upgradeable/utils/AddressUpgradeable.sol\":7683:7690  _revert */\n      tag_199\n        /* \"@openzeppelin/contracts-upgradeable/utils/AddressUpgradeable.sol\":7683:7716  _revert(returndata, errorMessage) */\n      jump\t// in\n    tag_198:\n        /* \"@openzeppelin/contracts-upgradeable/utils/AddressUpgradeable.sol\":7438:7733  function verifyCallResult(... */\n    tag_195:\n      swap4\n      swap3\n      pop\n      pop\n      pop\n      jump\t// out\n        /* \"@openzeppelin/contracts-upgradeable/utils/AddressUpgradeable.sol\":7739:8279  function _revert(bytes memory returndata, string memory errorMessage) private pure {... */\n    tag_199:\n        /* \"@openzeppelin/contracts-upgradeable/utils/AddressUpgradeable.sol\":7918:7919  0 */\n      0x00\n        /* \"@openzeppelin/contracts-upgradeable/utils/AddressUpgradeable.sol\":7898:7908  returndata */\n      dup3\n        /* \"@openzeppelin/contracts-upgradeable/utils/AddressUpgradeable.sol\":7898:7915  returndata.length */\n      mload\n        /* \"@openzeppelin/contracts-upgradeable/utils/AddressUpgradeable.sol\":7898:7919  returndata.length > 0 */\n      gt\n        /* \"@openzeppelin/contracts-upgradeable/utils/AddressUpgradeable.sol\":7894:8273  if (returndata.length > 0) {... */\n      iszero\n      tag_201\n      jumpi\n        /* \"@openzeppelin/contracts-upgradeable/utils/AddressUpgradeable.sol\":8126:8136  returndata */\n      dup2\n        /* \"@openzeppelin/contracts-upgradeable/utils/AddressUpgradeable.sol\":8120:8137  mload(returndata) */\n      mload\n        /* \"@openzeppelin/contracts-upgradeable/utils/AddressUpgradeable.sol\":8182:8197  returndata_size */\n      dup1\n        /* \"@openzeppelin/contracts-upgradeable/utils/AddressUpgradeable.sol\":8169:8179  returndata */\n      dup4\n        /* \"@openzeppelin/contracts-upgradeable/utils/AddressUpgradeable.sol\":8165:8167  32 */\n      0x20\n        /* \"@openzeppelin/contracts-upgradeable/utils/AddressUpgradeable.sol\":8161:8180  add(32, returndata) */\n      add\n        /* \"@openzeppelin/contracts-upgradeable/utils/AddressUpgradeable.sol\":8154:8198  revert(add(32, returndata), returndata_size) */\n      revert\n        /* \"@openzeppelin/contracts-upgradeable/utils/AddressUpgradeable.sol\":7894:8273  if (returndata.length > 0) {... */\n    tag_201:\n        /* \"@openzeppelin/contracts-upgradeable/utils/AddressUpgradeable.sol\":8249:8261  errorMessage */\n      dup1\n        /* \"@openzeppelin/contracts-upgradeable/utils/AddressUpgradeable.sol\":8242:8262  revert(errorMessage) */\n      mload(0x40)\n      0x08c379a000000000000000000000000000000000000000000000000000000000\n      dup2\n      mstore\n      0x04\n      add\n      tag_203\n      swap2\n      swap1\n      tag_204\n      jump\t// in\n    tag_203:\n      mload(0x40)\n      dup1\n      swap2\n      sub\n      swap1\n      revert\n        /* \"#utility.yul\":7:417   */\n    tag_206:\n        /* \"#utility.yul\":84:89   */\n      0x00\n        /* \"#utility.yul\":109:174   */\n      tag_208\n        /* \"#utility.yul\":125:173   */\n      tag_209\n        /* \"#utility.yul\":166:172   */\n      dup5\n        /* \"#utility.yul\":125:173   */\n      tag_210\n      jump\t// in\n    tag_209:\n        /* \"#utility.yul\":109:174   */\n      tag_211\n      jump\t// in\n    tag_208:\n        /* \"#utility.yul\":100:174   */\n      swap1\n      pop\n        /* \"#utility.yul\":197:203   */\n      dup3\n        /* \"#utility.yul\":190:195   */\n      dup2\n        /* \"#utility.yul\":183:204   */\n      mstore\n        /* \"#utility.yul\":235:239   */\n      0x20\n        /* \"#utility.yul\":228:233   */\n      dup2\n        /* \"#utility.yul\":224:240   */\n      add\n        /* \"#utility.yul\":273:276   */\n      dup5\n        /* \"#utility.yul\":264:270   */\n      dup5\n        /* \"#utility.yul\":259:262   */\n      dup5\n        /* \"#utility.yul\":255:271   */\n      add\n        /* \"#utility.yul\":252:277   */\n      gt\n        /* \"#utility.yul\":249:361   */\n      iszero\n      tag_212\n      jumpi\n        /* \"#utility.yul\":280:359   */\n      tag_213\n      tag_214\n      jump\t// in\n    tag_213:\n        /* \"#utility.yul\":249:361   */\n    tag_212:\n        /* \"#utility.yul\":370:411   */\n      tag_215\n        /* \"#utility.yul\":404:410   */\n      dup5\n        /* \"#utility.yul\":399:402   */\n      dup3\n        /* \"#utility.yul\":394:397   */\n      dup6\n        /* \"#utility.yul\":370:411   */\n      tag_216\n      jump\t// in\n    tag_215:\n        /* \"#utility.yul\":90:417   */\n      pop\n        /* \"#utility.yul\":7:417   */\n      swap4\n      swap3\n      pop\n      pop\n      pop\n      jump\t// out\n        /* \"#utility.yul\":423:562   */\n    tag_217:\n        /* \"#utility.yul\":469:474   */\n      0x00\n        /* \"#utility.yul\":507:513   */\n      dup2\n        /* \"#utility.yul\":494:514   */\n      calldataload\n        /* \"#utility.yul\":485:514   */\n      swap1\n      pop\n        /* \"#utility.yul\":523:556   */\n      tag_219\n        /* \"#utility.yul\":550:555   */\n      dup2\n        /* \"#utility.yul\":523:556   */\n      tag_220\n      jump\t// in\n    tag_219:\n        /* \"#utility.yul\":423:562   */\n      swap3\n      swap2\n      pop\n      pop\n      jump\t// out\n        /* \"#utility.yul\":568:711   */\n    tag_221:\n        /* \"#utility.yul\":625:630   */\n      0x00\n        /* \"#utility.yul\":656:662   */\n      dup2\n        /* \"#utility.yul\":650:663   */\n      mload\n        /* \"#utility.yul\":641:663   */\n      swap1\n      pop\n        /* \"#utility.yul\":672:705   */\n      tag_223\n        /* \"#utility.yul\":699:704   */\n      dup2\n        /* \"#utility.yul\":672:705   */\n      tag_224\n      jump\t// in\n    tag_223:\n        /* \"#utility.yul\":568:711   */\n      swap3\n      swap2\n      pop\n      pop\n      jump\t// out\n        /* \"#utility.yul\":730:1068   */\n    tag_225:\n        /* \"#utility.yul\":785:790   */\n      0x00\n        /* \"#utility.yul\":834:837   */\n      dup3\n        /* \"#utility.yul\":827:831   */\n      0x1f\n        /* \"#utility.yul\":819:825   */\n      dup4\n        /* \"#utility.yul\":815:832   */\n      add\n        /* \"#utility.yul\":811:838   */\n      slt\n        /* \"#utility.yul\":801:923   */\n      tag_227\n      jumpi\n        /* \"#utility.yul\":842:921   */\n      tag_228\n      tag_229\n      jump\t// in\n    tag_228:\n        /* \"#utility.yul\":801:923   */\n    tag_227:\n        /* \"#utility.yul\":959:965   */\n      dup2\n        /* \"#utility.yul\":946:966   */\n      calldataload\n        /* \"#utility.yul\":984:1062   */\n      tag_230\n        /* \"#utility.yul\":1058:1061   */\n      dup5\n        /* \"#utility.yul\":1050:1056   */\n      dup3\n        /* \"#utility.yul\":1043:1047   */\n      0x20\n        /* \"#utility.yul\":1035:1041   */\n      dup7\n        /* \"#utility.yul\":1031:1048   */\n      add\n        /* \"#utility.yul\":984:1062   */\n      tag_206\n      jump\t// in\n    tag_230:\n        /* \"#utility.yul\":975:1062   */\n      swap2\n      pop\n        /* \"#utility.yul\":791:1068   */\n      pop\n        /* \"#utility.yul\":730:1068   */\n      swap3\n      swap2\n      pop\n      pop\n      jump\t// out\n        /* \"#utility.yul\":1074:1403   */\n    tag_20:\n        /* \"#utility.yul\":1133:1139   */\n      0x00\n        /* \"#utility.yul\":1182:1184   */\n      0x20\n        /* \"#utility.yul\":1170:1179   */\n      dup3\n        /* \"#utility.yul\":1161:1168   */\n      dup5\n        /* \"#utility.yul\":1157:1180   */\n      sub\n        /* \"#utility.yul\":1153:1185   */\n      slt\n        /* \"#utility.yul\":1150:1269   */\n      iszero\n      tag_232\n      jumpi\n        /* \"#utility.yul\":1188:1267   */\n      tag_233\n      tag_234\n      jump\t// in\n    tag_233:\n        /* \"#utility.yul\":1150:1269   */\n    tag_232:\n        /* \"#utility.yul\":1308:1309   */\n      0x00\n        /* \"#utility.yul\":1333:1386   */\n      tag_235\n        /* \"#utility.yul\":1378:1385   */\n      dup5\n        /* \"#utility.yul\":1369:1375   */\n      dup3\n        /* \"#utility.yul\":1358:1367   */\n      dup6\n        /* \"#utility.yul\":1354:1376   */\n      add\n        /* \"#utility.yul\":1333:1386   */\n      tag_217\n      jump\t// in\n    tag_235:\n        /* \"#utility.yul\":1323:1386   */\n      swap2\n      pop\n        /* \"#utility.yul\":1279:1396   */\n      pop\n        /* \"#utility.yul\":1074:1403   */\n      swap3\n      swap2\n      pop\n      pop\n      jump\t// out\n        /* \"#utility.yul\":1409:2061   */\n    tag_27:\n        /* \"#utility.yul\":1486:1492   */\n      0x00\n        /* \"#utility.yul\":1494:1500   */\n      dup1\n        /* \"#utility.yul\":1543:1545   */\n      0x40\n        /* \"#utility.yul\":1531:1540   */\n      dup4\n        /* \"#utility.yul\":1522:1529   */\n      dup6\n        /* \"#utility.yul\":1518:1541   */\n      sub\n        /* \"#utility.yul\":1514:1546   */\n      slt\n        /* \"#utility.yul\":1511:1630   */\n      iszero\n      tag_237\n      jumpi\n        /* \"#utility.yul\":1549:1628   */\n      tag_238\n      tag_234\n      jump\t// in\n    tag_238:\n        /* \"#utility.yul\":1511:1630   */\n    tag_237:\n        /* \"#utility.yul\":1669:1670   */\n      0x00\n        /* \"#utility.yul\":1694:1747   */\n      tag_239\n        /* \"#utility.yul\":1739:1746   */\n      dup6\n        /* \"#utility.yul\":1730:1736   */\n      dup3\n        /* \"#utility.yul\":1719:1728   */\n      dup7\n        /* \"#utility.yul\":1715:1737   */\n      add\n        /* \"#utility.yul\":1694:1747   */\n      tag_217\n      jump\t// in\n    tag_239:\n        /* \"#utility.yul\":1684:1747   */\n      swap3\n      pop\n        /* \"#utility.yul\":1640:1757   */\n      pop\n        /* \"#utility.yul\":1824:1826   */\n      0x20\n        /* \"#utility.yul\":1813:1822   */\n      dup4\n        /* \"#utility.yul\":1809:1827   */\n      add\n        /* \"#utility.yul\":1796:1828   */\n      calldataload\n        /* \"#utility.yul\":1855:1873   */\n      0xffffffffffffffff\n        /* \"#utility.yul\":1847:1853   */\n      dup2\n        /* \"#utility.yul\":1844:1874   */\n      gt\n        /* \"#utility.yul\":1841:1958   */\n      iszero\n      tag_240\n      jumpi\n        /* \"#utility.yul\":1877:1956   */\n      tag_241\n      tag_242\n      jump\t// in\n    tag_241:\n        /* \"#utility.yul\":1841:1958   */\n    tag_240:\n        /* \"#utility.yul\":1982:2044   */\n      tag_243\n        /* \"#utility.yul\":2036:2043   */\n      dup6\n        /* \"#utility.yul\":2027:2033   */\n      dup3\n        /* \"#utility.yul\":2016:2025   */\n      dup7\n        /* \"#utility.yul\":2012:2034   */\n      add\n        /* \"#utility.yul\":1982:2044   */\n      tag_225\n      jump\t// in\n    tag_243:\n        /* \"#utility.yul\":1972:2044   */\n      swap2\n      pop\n        /* \"#utility.yul\":1767:2054   */\n      pop\n        /* \"#utility.yul\":1409:2061   */\n      swap3\n      pop\n      swap3\n      swap1\n      pop\n      jump\t// out\n        /* \"#utility.yul\":2067:2418   */\n    tag_130:\n        /* \"#utility.yul\":2137:2143   */\n      0x00\n        /* \"#utility.yul\":2186:2188   */\n      0x20\n        /* \"#utility.yul\":2174:2183   */\n      dup3\n        /* \"#utility.yul\":2165:2172   */\n      dup5\n        /* \"#utility.yul\":2161:2184   */\n      sub\n        /* \"#utility.yul\":2157:2189   */\n      slt\n        /* \"#utility.yul\":2154:2273   */\n      iszero\n      tag_245\n      jumpi\n        /* \"#utility.yul\":2192:2271   */\n      tag_246\n      tag_234\n      jump\t// in\n    tag_246:\n        /* \"#utility.yul\":2154:2273   */\n    tag_245:\n        /* \"#utility.yul\":2312:2313   */\n      0x00\n        /* \"#utility.yul\":2337:2401   */\n      tag_247\n        /* \"#utility.yul\":2393:2400   */\n      dup5\n        /* \"#utility.yul\":2384:2390   */\n      dup3\n        /* \"#utility.yul\":2373:2382   */\n      dup6\n        /* \"#utility.yul\":2369:2391   */\n      add\n        /* \"#utility.yul\":2337:2401   */\n      tag_221\n      jump\t// in\n    tag_247:\n        /* \"#utility.yul\":2327:2401   */\n      swap2\n      pop\n        /* \"#utility.yul\":2283:2411   */\n      pop\n        /* \"#utility.yul\":2067:2418   */\n      swap3\n      swap2\n      pop\n      pop\n      jump\t// out\n        /* \"#utility.yul\":2424:2542   */\n    tag_248:\n        /* \"#utility.yul\":2511:2535   */\n      tag_250\n        /* \"#utility.yul\":2529:2534   */\n      dup2\n        /* \"#utility.yul\":2511:2535   */\n      tag_251\n      jump\t// in\n    tag_250:\n        /* \"#utility.yul\":2506:2509   */\n      dup3\n        /* \"#utility.yul\":2499:2536   */\n      mstore\n        /* \"#utility.yul\":2424:2542   */\n      pop\n      pop\n      jump\t// out\n        /* \"#utility.yul\":2548:2666   */\n    tag_252:\n        /* \"#utility.yul\":2635:2659   */\n      tag_254\n        /* \"#utility.yul\":2653:2658   */\n      dup2\n        /* \"#utility.yul\":2635:2659   */\n      tag_255\n      jump\t// in\n    tag_254:\n        /* \"#utility.yul\":2630:2633   */\n      dup3\n        /* \"#utility.yul\":2623:2660   */\n      mstore\n        /* \"#utility.yul\":2548:2666   */\n      pop\n      pop\n      jump\t// out\n        /* \"#utility.yul\":2672:3045   */\n    tag_256:\n        /* \"#utility.yul\":2776:2779   */\n      0x00\n        /* \"#utility.yul\":2804:2842   */\n      tag_258\n        /* \"#utility.yul\":2836:2841   */\n      dup3\n        /* \"#utility.yul\":2804:2842   */\n      tag_259\n      jump\t// in\n    tag_258:\n        /* \"#utility.yul\":2858:2946   */\n      tag_260\n        /* \"#utility.yul\":2939:2945   */\n      dup2\n        /* \"#utility.yul\":2934:2937   */\n      dup6\n        /* \"#utility.yul\":2858:2946   */\n      tag_261\n      jump\t// in\n    tag_260:\n        /* \"#utility.yul\":2851:2946   */\n      swap4\n      pop\n        /* \"#utility.yul\":2955:3007   */\n      tag_262\n        /* \"#utility.yul\":3000:3006   */\n      dup2\n        /* \"#utility.yul\":2995:2998   */\n      dup6\n        /* \"#utility.yul\":2988:2992   */\n      0x20\n        /* \"#utility.yul\":2981:2986   */\n      dup7\n        /* \"#utility.yul\":2977:2993   */\n      add\n        /* \"#utility.yul\":2955:3007   */\n      tag_263\n      jump\t// in\n    tag_262:\n        /* \"#utility.yul\":3032:3038   */\n      dup1\n        /* \"#utility.yul\":3027:3030   */\n      dup5\n        /* \"#utility.yul\":3023:3039   */\n      add\n        /* \"#utility.yul\":3016:3039   */\n      swap2\n      pop\n        /* \"#utility.yul\":2780:3045   */\n      pop\n        /* \"#utility.yul\":2672:3045   */\n      swap3\n      swap2\n      pop\n      pop\n      jump\t// out\n        /* \"#utility.yul\":3051:3194   */\n    tag_264:\n        /* \"#utility.yul\":3144:3187   */\n      tag_266\n        /* \"#utility.yul\":3181:3186   */\n      dup2\n        /* \"#utility.yul\":3144:3187   */\n      tag_267\n      jump\t// in\n    tag_266:\n        /* \"#utility.yul\":3139:3142   */\n      dup3\n        /* \"#utility.yul\":3132:3188   */\n      mstore\n        /* \"#utility.yul\":3051:3194   */\n      pop\n      pop\n      jump\t// out\n        /* \"#utility.yul\":3200:3564   */\n    tag_268:\n        /* \"#utility.yul\":3288:3291   */\n      0x00\n        /* \"#utility.yul\":3316:3355   */\n      tag_270\n        /* \"#utility.yul\":3349:3354   */\n      dup3\n        /* \"#utility.yul\":3316:3355   */\n      tag_271\n      jump\t// in\n    tag_270:\n        /* \"#utility.yul\":3371:3442   */\n      tag_272\n        /* \"#utility.yul\":3435:3441   */\n      dup2\n        /* \"#utility.yul\":3430:3433   */\n      dup6\n        /* \"#utility.yul\":3371:3442   */\n      tag_273\n      jump\t// in\n    tag_272:\n        /* \"#utility.yul\":3364:3442   */\n      swap4\n      pop\n        /* \"#utility.yul\":3451:3503   */\n      tag_274\n        /* \"#utility.yul\":3496:3502   */\n      dup2\n        /* \"#utility.yul\":3491:3494   */\n      dup6\n        /* \"#utility.yul\":3484:3488   */\n      0x20\n        /* \"#utility.yul\":3477:3482   */\n      dup7\n        /* \"#utility.yul\":3473:3489   */\n      add\n        /* \"#utility.yul\":3451:3503   */\n      tag_263\n      jump\t// in\n    tag_274:\n        /* \"#utility.yul\":3528:3557   */\n      tag_275\n        /* \"#utility.yul\":3550:3556   */\n      dup2\n        /* \"#utility.yul\":3528:3557   */\n      tag_276\n      jump\t// in\n    tag_275:\n        /* \"#utility.yul\":3523:3526   */\n      dup5\n        /* \"#utility.yul\":3519:3558   */\n      add\n        /* \"#utility.yul\":3512:3558   */\n      swap2\n      pop\n        /* \"#utility.yul\":3292:3564   */\n      pop\n        /* \"#utility.yul\":3200:3564   */\n      swap3\n      swap2\n      pop\n      pop\n      jump\t// out\n        /* \"#utility.yul\":3570:3936   */\n    tag_277:\n        /* \"#utility.yul\":3712:3715   */\n      0x00\n        /* \"#utility.yul\":3733:3800   */\n      tag_279\n        /* \"#utility.yul\":3797:3799   */\n      0x26\n        /* \"#utility.yul\":3792:3795   */\n      dup4\n        /* \"#utility.yul\":3733:3800   */\n      tag_273\n      jump\t// in\n    tag_279:\n        /* \"#utility.yul\":3726:3800   */\n      swap2\n      pop\n        /* \"#utility.yul\":3809:3902   */\n      tag_280\n        /* \"#utility.yul\":3898:3901   */\n      dup3\n        /* \"#utility.yul\":3809:3902   */\n      tag_281\n      jump\t// in\n    tag_280:\n        /* \"#utility.yul\":3927:3929   */\n      0x40\n        /* \"#utility.yul\":3922:3925   */\n      dup3\n        /* \"#utility.yul\":3918:3930   */\n      add\n        /* \"#utility.yul\":3911:3930   */\n      swap1\n      pop\n        /* \"#utility.yul\":3570:3936   */\n      swap2\n      swap1\n      pop\n      jump\t// out\n        /* \"#utility.yul\":3942:4308   */\n    tag_282:\n        /* \"#utility.yul\":4084:4087   */\n      0x00\n        /* \"#utility.yul\":4105:4172   */\n      tag_284\n        /* \"#utility.yul\":4169:4171   */\n      0x2c\n        /* \"#utility.yul\":4164:4167   */\n      dup4\n        /* \"#utility.yul\":4105:4172   */\n      tag_273\n      jump\t// in\n    tag_284:\n        /* \"#utility.yul\":4098:4172   */\n      swap2\n      pop\n        /* \"#utility.yul\":4181:4274   */\n      tag_285\n        /* \"#utility.yul\":4270:4273   */\n      dup3\n        /* \"#utility.yul\":4181:4274   */\n      tag_286\n      jump\t// in\n    tag_285:\n        /* \"#utility.yul\":4299:4301   */\n      0x40\n        /* \"#utility.yul\":4294:4297   */\n      dup3\n        /* \"#utility.yul\":4290:4302   */\n      add\n        /* \"#utility.yul\":4283:4302   */\n      swap1\n      pop\n        /* \"#utility.yul\":3942:4308   */\n      swap2\n      swap1\n      pop\n      jump\t// out\n        /* \"#utility.yul\":4314:4680   */\n    tag_287:\n        /* \"#utility.yul\":4456:4459   */\n      0x00\n        /* \"#utility.yul\":4477:4544   */\n      tag_289\n        /* \"#utility.yul\":4541:4543   */\n      0x2c\n        /* \"#utility.yul\":4536:4539   */\n      dup4\n        /* \"#utility.yul\":4477:4544   */\n      tag_273\n      jump\t// in\n    tag_289:\n        /* \"#utility.yul\":4470:4544   */\n      swap2\n      pop\n        /* \"#utility.yul\":4553:4646   */\n      tag_290\n        /* \"#utility.yul\":4642:4645   */\n      dup3\n        /* \"#utility.yul\":4553:4646   */\n      tag_291\n      jump\t// in\n    tag_290:\n        /* \"#utility.yul\":4671:4673   */\n      0x40\n        /* \"#utility.yul\":4666:4669   */\n      dup3\n        /* \"#utility.yul\":4662:4674   */\n      add\n        /* \"#utility.yul\":4655:4674   */\n      swap1\n      pop\n        /* \"#utility.yul\":4314:4680   */\n      swap2\n      swap1\n      pop\n      jump\t// out\n        /* \"#utility.yul\":4686:5052   */\n    tag_292:\n        /* \"#utility.yul\":4828:4831   */\n      0x00\n        /* \"#utility.yul\":4849:4916   */\n      tag_294\n        /* \"#utility.yul\":4913:4915   */\n      0x38\n        /* \"#utility.yul\":4908:4911   */\n      dup4\n        /* \"#utility.yul\":4849:4916   */\n      tag_273\n      jump\t// in\n    tag_294:\n        /* \"#utility.yul\":4842:4916   */\n      swap2\n      pop\n        /* \"#utility.yul\":4925:5018   */\n      tag_295\n        /* \"#utility.yul\":5014:5017   */\n      dup3\n        /* \"#utility.yul\":4925:5018   */\n      tag_296\n      jump\t// in\n    tag_295:\n        /* \"#utility.yul\":5043:5045   */\n      0x40\n        /* \"#utility.yul\":5038:5041   */\n      dup3\n        /* \"#utility.yul\":5034:5046   */\n      add\n        /* \"#utility.yul\":5027:5046   */\n      swap1\n      pop\n        /* \"#utility.yul\":4686:5052   */\n      swap2\n      swap1\n      pop\n      jump\t// out\n        /* \"#utility.yul\":5058:5424   */\n    tag_297:\n        /* \"#utility.yul\":5200:5203   */\n      0x00\n        /* \"#utility.yul\":5221:5288   */\n      tag_299\n        /* \"#utility.yul\":5285:5287   */\n      0x29\n        /* \"#utility.yul\":5280:5283   */\n      dup4\n        /* \"#utility.yul\":5221:5288   */\n      tag_273\n      jump\t// in\n    tag_299:\n        /* \"#utility.yul\":5214:5288   */\n      swap2\n      pop\n        /* \"#utility.yul\":5297:5390   */\n      tag_300\n        /* \"#utility.yul\":5386:5389   */\n      dup3\n        /* \"#utility.yul\":5297:5390   */\n      tag_301\n      jump\t// in\n    tag_300:\n        /* \"#utility.yul\":5415:5417   */\n      0x40\n        /* \"#utility.yul\":5410:5413   */\n      dup3\n        /* \"#utility.yul\":5406:5418   */\n      add\n        /* \"#utility.yul\":5399:5418   */\n      swap1\n      pop\n        /* \"#utility.yul\":5058:5424   */\n      swap2\n      swap1\n      pop\n      jump\t// out\n        /* \"#utility.yul\":5430:5796   */\n    tag_302:\n        /* \"#utility.yul\":5572:5575   */\n      0x00\n        /* \"#utility.yul\":5593:5660   */\n      tag_304\n        /* \"#utility.yul\":5657:5659   */\n      0x2e\n        /* \"#utility.yul\":5652:5655   */\n      dup4\n        /* \"#utility.yul\":5593:5660   */\n      tag_273\n      jump\t// in\n    tag_304:\n        /* \"#utility.yul\":5586:5660   */\n      swap2\n      pop\n        /* \"#utility.yul\":5669:5762   */\n      tag_305\n        /* \"#utility.yul\":5758:5761   */\n      dup3\n        /* \"#utility.yul\":5669:5762   */\n      tag_306\n      jump\t// in\n    tag_305:\n        /* \"#utility.yul\":5787:5789   */\n      0x40\n        /* \"#utility.yul\":5782:5785   */\n      dup3\n        /* \"#utility.yul\":5778:5790   */\n      add\n        /* \"#utility.yul\":5771:5790   */\n      swap1\n      pop\n        /* \"#utility.yul\":5430:5796   */\n      swap2\n      swap1\n      pop\n      jump\t// out\n        /* \"#utility.yul\":5802:6168   */\n    tag_307:\n        /* \"#utility.yul\":5944:5947   */\n      0x00\n        /* \"#utility.yul\":5965:6032   */\n      tag_309\n        /* \"#utility.yul\":6029:6031   */\n      0x2e\n        /* \"#utility.yul\":6024:6027   */\n      dup4\n        /* \"#utility.yul\":5965:6032   */\n      tag_273\n      jump\t// in\n    tag_309:\n        /* \"#utility.yul\":5958:6032   */\n      swap2\n      pop\n        /* \"#utility.yul\":6041:6134   */\n      tag_310\n        /* \"#utility.yul\":6130:6133   */\n      dup3\n        /* \"#utility.yul\":6041:6134   */\n      tag_311\n      jump\t// in\n    tag_310:\n        /* \"#utility.yul\":6159:6161   */\n      0x40\n        /* \"#utility.yul\":6154:6157   */\n      dup3\n        /* \"#utility.yul\":6150:6162   */\n      add\n        /* \"#utility.yul\":6143:6162   */\n      swap1\n      pop\n        /* \"#utility.yul\":5802:6168   */\n      swap2\n      swap1\n      pop\n      jump\t// out\n        /* \"#utility.yul\":6174:6540   */\n    tag_312:\n        /* \"#utility.yul\":6316:6319   */\n      0x00\n        /* \"#utility.yul\":6337:6404   */\n      tag_314\n        /* \"#utility.yul\":6401:6403   */\n      0x2d\n        /* \"#utility.yul\":6396:6399   */\n      dup4\n        /* \"#utility.yul\":6337:6404   */\n      tag_273\n      jump\t// in\n    tag_314:\n        /* \"#utility.yul\":6330:6404   */\n      swap2\n      pop\n        /* \"#utility.yul\":6413:6506   */\n      tag_315\n        /* \"#utility.yul\":6502:6505   */\n      dup3\n        /* \"#utility.yul\":6413:6506   */\n      tag_316\n      jump\t// in\n    tag_315:\n        /* \"#utility.yul\":6531:6533   */\n      0x40\n        /* \"#utility.yul\":6526:6529   */\n      dup3\n        /* \"#utility.yul\":6522:6534   */\n      add\n        /* \"#utility.yul\":6515:6534   */\n      swap1\n      pop\n        /* \"#utility.yul\":6174:6540   */\n      swap2\n      swap1\n      pop\n      jump\t// out\n        /* \"#utility.yul\":6546:6912   */\n    tag_317:\n        /* \"#utility.yul\":6688:6691   */\n      0x00\n        /* \"#utility.yul\":6709:6776   */\n      tag_319\n        /* \"#utility.yul\":6773:6775   */\n      0x20\n        /* \"#utility.yul\":6768:6771   */\n      dup4\n        /* \"#utility.yul\":6709:6776   */\n      tag_273\n      jump\t// in\n    tag_319:\n        /* \"#utility.yul\":6702:6776   */\n      swap2\n      pop\n        /* \"#utility.yul\":6785:6878   */\n      tag_320\n        /* \"#utility.yul\":6874:6877   */\n      dup3\n        /* \"#utility.yul\":6785:6878   */\n      tag_321\n      jump\t// in\n    tag_320:\n        /* \"#utility.yul\":6903:6905   */\n      0x20\n        /* \"#utility.yul\":6898:6901   */\n      dup3\n        /* \"#utility.yul\":6894:6906   */\n      add\n        /* \"#utility.yul\":6887:6906   */\n      swap1\n      pop\n        /* \"#utility.yul\":6546:6912   */\n      swap2\n      swap1\n      pop\n      jump\t// out\n        /* \"#utility.yul\":6918:7284   */\n    tag_322:\n        /* \"#utility.yul\":7060:7063   */\n      0x00\n        /* \"#utility.yul\":7081:7148   */\n      tag_324\n        /* \"#utility.yul\":7145:7147   */\n      0x26\n        /* \"#utility.yul\":7140:7143   */\n      dup4\n        /* \"#utility.yul\":7081:7148   */\n      tag_273\n      jump\t// in\n    tag_324:\n        /* \"#utility.yul\":7074:7148   */\n      swap2\n      pop\n        /* \"#utility.yul\":7157:7250   */\n      tag_325\n        /* \"#utility.yul\":7246:7249   */\n      dup3\n        /* \"#utility.yul\":7157:7250   */\n      tag_326\n      jump\t// in\n    tag_325:\n        /* \"#utility.yul\":7275:7277   */\n      0x40\n        /* \"#utility.yul\":7270:7273   */\n      dup3\n        /* \"#utility.yul\":7266:7278   */\n      add\n        /* \"#utility.yul\":7259:7278   */\n      swap1\n      pop\n        /* \"#utility.yul\":6918:7284   */\n      swap2\n      swap1\n      pop\n      jump\t// out\n        /* \"#utility.yul\":7290:7656   */\n    tag_327:\n        /* \"#utility.yul\":7432:7435   */\n      0x00\n        /* \"#utility.yul\":7453:7520   */\n      tag_329\n        /* \"#utility.yul\":7517:7519   */\n      0x2b\n        /* \"#utility.yul\":7512:7515   */\n      dup4\n        /* \"#utility.yul\":7453:7520   */\n      tag_273\n      jump\t// in\n    tag_329:\n        /* \"#utility.yul\":7446:7520   */\n      swap2\n      pop\n        /* \"#utility.yul\":7529:7622   */\n      tag_330\n        /* \"#utility.yul\":7618:7621   */\n      dup3\n        /* \"#utility.yul\":7529:7622   */\n      tag_331\n      jump\t// in\n    tag_330:\n        /* \"#utility.yul\":7647:7649   */\n      0x40\n        /* \"#utility.yul\":7642:7645   */\n      dup3\n        /* \"#utility.yul\":7638:7650   */\n      add\n        /* \"#utility.yul\":7631:7650   */\n      swap1\n      pop\n        /* \"#utility.yul\":7290:7656   */\n      swap2\n      swap1\n      pop\n      jump\t// out\n        /* \"#utility.yul\":7662:7780   */\n    tag_332:\n        /* \"#utility.yul\":7749:7773   */\n      tag_334\n        /* \"#utility.yul\":7767:7772   */\n      dup2\n        /* \"#utility.yul\":7749:7773   */\n      tag_335\n      jump\t// in\n    tag_334:\n        /* \"#utility.yul\":7744:7747   */\n      dup3\n        /* \"#utility.yul\":7737:7774   */\n      mstore\n        /* \"#utility.yul\":7662:7780   */\n      pop\n      pop\n      jump\t// out\n        /* \"#utility.yul\":7786:8057   */\n    tag_189:\n        /* \"#utility.yul\":7916:7919   */\n      0x00\n        /* \"#utility.yul\":7938:8031   */\n      tag_337\n        /* \"#utility.yul\":8027:8030   */\n      dup3\n        /* \"#utility.yul\":8018:8024   */\n      dup5\n        /* \"#utility.yul\":7938:8031   */\n      tag_256\n      jump\t// in\n    tag_337:\n        /* \"#utility.yul\":7931:8031   */\n      swap2\n      pop\n        /* \"#utility.yul\":8048:8051   */\n      dup2\n        /* \"#utility.yul\":8041:8051   */\n      swap1\n      pop\n        /* \"#utility.yul\":7786:8057   */\n      swap3\n      swap2\n      pop\n      pop\n      jump\t// out\n        /* \"#utility.yul\":8063:8285   */\n    tag_44:\n        /* \"#utility.yul\":8156:8160   */\n      0x00\n        /* \"#utility.yul\":8194:8196   */\n      0x20\n        /* \"#utility.yul\":8183:8192   */\n      dup3\n        /* \"#utility.yul\":8179:8197   */\n      add\n        /* \"#utility.yul\":8171:8197   */\n      swap1\n      pop\n        /* \"#utility.yul\":8207:8278   */\n      tag_339\n        /* \"#utility.yul\":8275:8276   */\n      0x00\n        /* \"#utility.yul\":8264:8273   */\n      dup4\n        /* \"#utility.yul\":8260:8277   */\n      add\n        /* \"#utility.yul\":8251:8257   */\n      dup5\n        /* \"#utility.yul\":8207:8278   */\n      tag_248\n      jump\t// in\n    tag_339:\n        /* \"#utility.yul\":8063:8285   */\n      swap3\n      swap2\n      pop\n      pop\n      jump\t// out\n        /* \"#utility.yul\":8291:8513   */\n    tag_33:\n        /* \"#utility.yul\":8384:8388   */\n      0x00\n        /* \"#utility.yul\":8422:8424   */\n      0x20\n        /* \"#utility.yul\":8411:8420   */\n      dup3\n        /* \"#utility.yul\":8407:8425   */\n      add\n        /* \"#utility.yul\":8399:8425   */\n      swap1\n      pop\n        /* \"#utility.yul\":8435:8506   */\n      tag_341\n        /* \"#utility.yul\":8503:8504   */\n      0x00\n        /* \"#utility.yul\":8492:8501   */\n      dup4\n        /* \"#utility.yul\":8488:8505   */\n      add\n        /* \"#utility.yul\":8479:8485   */\n      dup5\n        /* \"#utility.yul\":8435:8506   */\n      tag_252\n      jump\t// in\n    tag_341:\n        /* \"#utility.yul\":8291:8513   */\n      swap3\n      swap2\n      pop\n      pop\n      jump\t// out\n        /* \"#utility.yul\":8519:8753   */\n    tag_105:\n        /* \"#utility.yul\":8618:8622   */\n      0x00\n        /* \"#utility.yul\":8656:8658   */\n      0x20\n        /* \"#utility.yul\":8645:8654   */\n      dup3\n        /* \"#utility.yul\":8641:8659   */\n      add\n        /* \"#utility.yul\":8633:8659   */\n      swap1\n      pop\n        /* \"#utility.yul\":8669:8746   */\n      tag_343\n        /* \"#utility.yul\":8743:8744   */\n      0x00\n        /* \"#utility.yul\":8732:8741   */\n      dup4\n        /* \"#utility.yul\":8728:8745   */\n      add\n        /* \"#utility.yul\":8719:8725   */\n      dup5\n        /* \"#utility.yul\":8669:8746   */\n      tag_264\n      jump\t// in\n    tag_343:\n        /* \"#utility.yul\":8519:8753   */\n      swap3\n      swap2\n      pop\n      pop\n      jump\t// out\n        /* \"#utility.yul\":8759:9072   */\n    tag_204:\n        /* \"#utility.yul\":8872:8876   */\n      0x00\n        /* \"#utility.yul\":8910:8912   */\n      0x20\n        /* \"#utility.yul\":8899:8908   */\n      dup3\n        /* \"#utility.yul\":8895:8913   */\n      add\n        /* \"#utility.yul\":8887:8913   */\n      swap1\n      pop\n        /* \"#utility.yul\":8959:8968   */\n      dup2\n        /* \"#utility.yul\":8953:8957   */\n      dup2\n        /* \"#utility.yul\":8949:8969   */\n      sub\n        /* \"#utility.yul\":8945:8946   */\n      0x00\n        /* \"#utility.yul\":8934:8943   */\n      dup4\n        /* \"#utility.yul\":8930:8947   */\n      add\n        /* \"#utility.yul\":8923:8970   */\n      mstore\n        /* \"#utility.yul\":8987:9065   */\n      tag_345\n        /* \"#utility.yul\":9060:9064   */\n      dup2\n        /* \"#utility.yul\":9051:9057   */\n      dup5\n        /* \"#utility.yul\":8987:9065   */\n      tag_268\n      jump\t// in\n    tag_345:\n        /* \"#utility.yul\":8979:9065   */\n      swap1\n      pop\n        /* \"#utility.yul\":8759:9072   */\n      swap3\n      swap2\n      pop\n      pop\n      jump\t// out\n        /* \"#utility.yul\":9078:9497   */\n    tag_112:\n        /* \"#utility.yul\":9244:9248   */\n      0x00\n        /* \"#utility.yul\":9282:9284   */\n      0x20\n        /* \"#utility.yul\":9271:9280   */\n      dup3\n        /* \"#utility.yul\":9267:9285   */\n      add\n        /* \"#utility.yul\":9259:9285   */\n      swap1\n      pop\n        /* \"#utility.yul\":9331:9340   */\n      dup2\n        /* \"#utility.yul\":9325:9329   */\n      dup2\n        /* \"#utility.yul\":9321:9341   */\n      sub\n        /* \"#utility.yul\":9317:9318   */\n      0x00\n        /* \"#utility.yul\":9306:9315   */\n      dup4\n        /* \"#utility.yul\":9302:9319   */\n      add\n        /* \"#utility.yul\":9295:9342   */\n      mstore\n        /* \"#utility.yul\":9359:9490   */\n      tag_347\n        /* \"#utility.yul\":9485:9489   */\n      dup2\n        /* \"#utility.yul\":9359:9490   */\n      tag_277\n      jump\t// in\n    tag_347:\n        /* \"#utility.yul\":9351:9490   */\n      swap1\n      pop\n        /* \"#utility.yul\":9078:9497   */\n      swap2\n      swap1\n      pop\n      jump\t// out\n        /* \"#utility.yul\":9503:9922   */\n    tag_52:\n        /* \"#utility.yul\":9669:9673   */\n      0x00\n        /* \"#utility.yul\":9707:9709   */\n      0x20\n        /* \"#utility.yul\":9696:9705   */\n      dup3\n        /* \"#utility.yul\":9692:9710   */\n      add\n        /* \"#utility.yul\":9684:9710   */\n      swap1\n      pop\n        /* \"#utility.yul\":9756:9765   */\n      dup2\n        /* \"#utility.yul\":9750:9754   */\n      dup2\n        /* \"#utility.yul\":9746:9766   */\n      sub\n        /* \"#utility.yul\":9742:9743   */\n      0x00\n        /* \"#utility.yul\":9731:9740   */\n      dup4\n        /* \"#utility.yul\":9727:9744   */\n      add\n        /* \"#utility.yul\":9720:9767   */\n      mstore\n        /* \"#utility.yul\":9784:9915   */\n      tag_349\n        /* \"#utility.yul\":9910:9914   */\n      dup2\n        /* \"#utility.yul\":9784:9915   */\n      tag_282\n      jump\t// in\n    tag_349:\n        /* \"#utility.yul\":9776:9915   */\n      swap1\n      pop\n        /* \"#utility.yul\":9503:9922   */\n      swap2\n      swap1\n      pop\n      jump\t// out\n        /* \"#utility.yul\":9928:10347   */\n    tag_57:\n        /* \"#utility.yul\":10094:10098   */\n      0x00\n        /* \"#utility.yul\":10132:10134   */\n      0x20\n        /* \"#utility.yul\":10121:10130   */\n      dup3\n        /* \"#utility.yul\":10117:10135   */\n      add\n        /* \"#utility.yul\":10109:10135   */\n      swap1\n      pop\n        /* \"#utility.yul\":10181:10190   */\n      dup2\n        /* \"#utility.yul\":10175:10179   */\n      dup2\n        /* \"#utility.yul\":10171:10191   */\n      sub\n        /* \"#utility.yul\":10167:10168   */\n      0x00\n        /* \"#utility.yul\":10156:10165   */\n      dup4\n        /* \"#utility.yul\":10152:10169   */\n      add\n        /* \"#utility.yul\":10145:10192   */\n      mstore\n        /* \"#utility.yul\":10209:10340   */\n      tag_351\n        /* \"#utility.yul\":10335:10339   */\n      dup2\n        /* \"#utility.yul\":10209:10340   */\n      tag_287\n      jump\t// in\n    tag_351:\n        /* \"#utility.yul\":10201:10340   */\n      swap1\n      pop\n        /* \"#utility.yul\":9928:10347   */\n      swap2\n      swap1\n      pop\n      jump\t// out\n        /* \"#utility.yul\":10353:10772   */\n    tag_82:\n        /* \"#utility.yul\":10519:10523   */\n      0x00\n        /* \"#utility.yul\":10557:10559   */\n      0x20\n        /* \"#utility.yul\":10546:10555   */\n      dup3\n        /* \"#utility.yul\":10542:10560   */\n      add\n        /* \"#utility.yul\":10534:10560   */\n      swap1\n      pop\n        /* \"#utility.yul\":10606:10615   */\n      dup2\n        /* \"#utility.yul\":10600:10604   */\n      dup2\n        /* \"#utility.yul\":10596:10616   */\n      sub\n        /* \"#utility.yul\":10592:10593   */\n      0x00\n        /* \"#utility.yul\":10581:10590   */\n      dup4\n        /* \"#utility.yul\":10577:10594   */\n      add\n        /* \"#utility.yul\":10570:10617   */\n      mstore\n        /* \"#utility.yul\":10634:10765   */\n      tag_353\n        /* \"#utility.yul\":10760:10764   */\n      dup2\n        /* \"#utility.yul\":10634:10765   */\n      tag_292\n      jump\t// in\n    tag_353:\n        /* \"#utility.yul\":10626:10765   */\n      swap1\n      pop\n        /* \"#utility.yul\":10353:10772   */\n      swap2\n      swap1\n      pop\n      jump\t// out\n        /* \"#utility.yul\":10778:11197   */\n    tag_140:\n        /* \"#utility.yul\":10944:10948   */\n      0x00\n        /* \"#utility.yul\":10982:10984   */\n      0x20\n        /* \"#utility.yul\":10971:10980   */\n      dup3\n        /* \"#utility.yul\":10967:10985   */\n      add\n        /* \"#utility.yul\":10959:10985   */\n      swap1\n      pop\n        /* \"#utility.yul\":11031:11040   */\n      dup2\n        /* \"#utility.yul\":11025:11029   */\n      dup2\n        /* \"#utility.yul\":11021:11041   */\n      sub\n        /* \"#utility.yul\":11017:11018   */\n      0x00\n        /* \"#utility.yul\":11006:11015   */\n      dup4\n        /* \"#utility.yul\":11002:11019   */\n      add\n        /* \"#utility.yul\":10995:11042   */\n      mstore\n        /* \"#utility.yul\":11059:11190   */\n      tag_355\n        /* \"#utility.yul\":11185:11189   */\n      dup2\n        /* \"#utility.yul\":11059:11190   */\n      tag_297\n      jump\t// in\n    tag_355:\n        /* \"#utility.yul\":11051:11190   */\n      swap1\n      pop\n        /* \"#utility.yul\":10778:11197   */\n      swap2\n      swap1\n      pop\n      jump\t// out\n        /* \"#utility.yul\":11203:11622   */\n    tag_98:\n        /* \"#utility.yul\":11369:11373   */\n      0x00\n        /* \"#utility.yul\":11407:11409   */\n      0x20\n        /* \"#utility.yul\":11396:11405   */\n      dup3\n        /* \"#utility.yul\":11392:11410   */\n      add\n        /* \"#utility.yul\":11384:11410   */\n      swap1\n      pop\n        /* \"#utility.yul\":11456:11465   */\n      dup2\n        /* \"#utility.yul\":11450:11454   */\n      dup2\n        /* \"#utility.yul\":11446:11466   */\n      sub\n        /* \"#utility.yul\":11442:11443   */\n      0x00\n        /* \"#utility.yul\":11431:11440   */\n      dup4\n        /* \"#utility.yul\":11427:11444   */\n      add\n        /* \"#utility.yul\":11420:11467   */\n      mstore\n        /* \"#utility.yul\":11484:11615   */\n      tag_357\n        /* \"#utility.yul\":11610:11614   */\n      dup2\n        /* \"#utility.yul\":11484:11615   */\n      tag_302\n      jump\t// in\n    tag_357:\n        /* \"#utility.yul\":11476:11615   */\n      swap1\n      pop\n        /* \"#utility.yul\":11203:11622   */\n      swap2\n      swap1\n      pop\n      jump\t// out\n        /* \"#utility.yul\":11628:12047   */\n    tag_136:\n        /* \"#utility.yul\":11794:11798   */\n      0x00\n        /* \"#utility.yul\":11832:11834   */\n      0x20\n        /* \"#utility.yul\":11821:11830   */\n      dup3\n        /* \"#utility.yul\":11817:11835   */\n      add\n        /* \"#utility.yul\":11809:11835   */\n      swap1\n      pop\n        /* \"#utility.yul\":11881:11890   */\n      dup2\n        /* \"#utility.yul\":11875:11879   */\n      dup2\n        /* \"#utility.yul\":11871:11891   */\n      sub\n        /* \"#utility.yul\":11867:11868   */\n      0x00\n        /* \"#utility.yul\":11856:11865   */\n      dup4\n        /* \"#utility.yul\":11852:11869   */\n      add\n        /* \"#utility.yul\":11845:11892   */\n      mstore\n        /* \"#utility.yul\":11909:12040   */\n      tag_359\n        /* \"#utility.yul\":12035:12039   */\n      dup2\n        /* \"#utility.yul\":11909:12040   */\n      tag_307\n      jump\t// in\n    tag_359:\n        /* \"#utility.yul\":11901:12040   */\n      swap1\n      pop\n        /* \"#utility.yul\":11628:12047   */\n      swap2\n      swap1\n      pop\n      jump\t// out\n        /* \"#utility.yul\":12053:12472   */\n    tag_165:\n        /* \"#utility.yul\":12219:12223   */\n      0x00\n        /* \"#utility.yul\":12257:12259   */\n      0x20\n        /* \"#utility.yul\":12246:12255   */\n      dup3\n        /* \"#utility.yul\":12242:12260   */\n      add\n        /* \"#utility.yul\":12234:12260   */\n      swap1\n      pop\n        /* \"#utility.yul\":12306:12315   */\n      dup2\n        /* \"#utility.yul\":12300:12304   */\n      dup2\n        /* \"#utility.yul\":12296:12316   */\n      sub\n        /* \"#utility.yul\":12292:12293   */\n      0x00\n        /* \"#utility.yul\":12281:12290   */\n      dup4\n        /* \"#utility.yul\":12277:12294   */\n      add\n        /* \"#utility.yul\":12270:12317   */\n      mstore\n        /* \"#utility.yul\":12334:12465   */\n      tag_361\n        /* \"#utility.yul\":12460:12464   */\n      dup2\n        /* \"#utility.yul\":12334:12465   */\n      tag_312\n      jump\t// in\n    tag_361:\n        /* \"#utility.yul\":12326:12465   */\n      swap1\n      pop\n        /* \"#utility.yul\":12053:12472   */\n      swap2\n      swap1\n      pop\n      jump\t// out\n        /* \"#utility.yul\":12478:12897   */\n    tag_149:\n        /* \"#utility.yul\":12644:12648   */\n      0x00\n        /* \"#utility.yul\":12682:12684   */\n      0x20\n        /* \"#utility.yul\":12671:12680   */\n      dup3\n        /* \"#utility.yul\":12667:12685   */\n      add\n        /* \"#utility.yul\":12659:12685   */\n      swap1\n      pop\n        /* \"#utility.yul\":12731:12740   */\n      dup2\n        /* \"#utility.yul\":12725:12729   */\n      dup2\n        /* \"#utility.yul\":12721:12741   */\n      sub\n        /* \"#utility.yul\":12717:12718   */\n      0x00\n        /* \"#utility.yul\":12706:12715   */\n      dup4\n        /* \"#utility.yul\":12702:12719   */\n      add\n        /* \"#utility.yul\":12695:12742   */\n      mstore\n        /* \"#utility.yul\":12759:12890   */\n      tag_363\n        /* \"#utility.yul\":12885:12889   */\n      dup2\n        /* \"#utility.yul\":12759:12890   */\n      tag_317\n      jump\t// in\n    tag_363:\n        /* \"#utility.yul\":12751:12890   */\n      swap1\n      pop\n        /* \"#utility.yul\":12478:12897   */\n      swap2\n      swap1\n      pop\n      jump\t// out\n        /* \"#utility.yul\":12903:13322   */\n    tag_187:\n        /* \"#utility.yul\":13069:13073   */\n      0x00\n        /* \"#utility.yul\":13107:13109   */\n      0x20\n        /* \"#utility.yul\":13096:13105   */\n      dup3\n        /* \"#utility.yul\":13092:13110   */\n      add\n        /* \"#utility.yul\":13084:13110   */\n      swap1\n      pop\n        /* \"#utility.yul\":13156:13165   */\n      dup2\n        /* \"#utility.yul\":13150:13154   */\n      dup2\n        /* \"#utility.yul\":13146:13166   */\n      sub\n        /* \"#utility.yul\":13142:13143   */\n      0x00\n        /* \"#utility.yul\":13131:13140   */\n      dup4\n        /* \"#utility.yul\":13127:13144   */\n      add\n        /* \"#utility.yul\":13120:13167   */\n      mstore\n        /* \"#utility.yul\":13184:13315   */\n      tag_365\n        /* \"#utility.yul\":13310:13314   */\n      dup2\n        /* \"#utility.yul\":13184:13315   */\n      tag_322\n      jump\t// in\n    tag_365:\n        /* \"#utility.yul\":13176:13315   */\n      swap1\n      pop\n        /* \"#utility.yul\":12903:13322   */\n      swap2\n      swap1\n      pop\n      jump\t// out\n        /* \"#utility.yul\":13328:13747   */\n    tag_155:\n        /* \"#utility.yul\":13494:13498   */\n      0x00\n        /* \"#utility.yul\":13532:13534   */\n      0x20\n        /* \"#utility.yul\":13521:13530   */\n      dup3\n        /* \"#utility.yul\":13517:13535   */\n      add\n        /* \"#utility.yul\":13509:13535   */\n      swap1\n      pop\n        /* \"#utility.yul\":13581:13590   */\n      dup2\n        /* \"#utility.yul\":13575:13579   */\n      dup2\n        /* \"#utility.yul\":13571:13591   */\n      sub\n        /* \"#utility.yul\":13567:13568   */\n      0x00\n        /* \"#utility.yul\":13556:13565   */\n      dup4\n        /* \"#utility.yul\":13552:13569   */\n      add\n        /* \"#utility.yul\":13545:13592   */\n      mstore\n        /* \"#utility.yul\":13609:13740   */\n      tag_367\n        /* \"#utility.yul\":13735:13739   */\n      dup2\n        /* \"#utility.yul\":13609:13740   */\n      tag_327\n      jump\t// in\n    tag_367:\n        /* \"#utility.yul\":13601:13740   */\n      swap1\n      pop\n        /* \"#utility.yul\":13328:13747   */\n      swap2\n      swap1\n      pop\n      jump\t// out\n        /* \"#utility.yul\":13753:13975   */\n    tag_16:\n        /* \"#utility.yul\":13846:13850   */\n      0x00\n        /* \"#utility.yul\":13884:13886   */\n      0x20\n        /* \"#utility.yul\":13873:13882   */\n      dup3\n        /* \"#utility.yul\":13869:13887   */\n      add\n        /* \"#utility.yul\":13861:13887   */\n      swap1\n      pop\n        /* \"#utility.yul\":13897:13968   */\n      tag_369\n        /* \"#utility.yul\":13965:13966   */\n      0x00\n        /* \"#utility.yul\":13954:13963   */\n      dup4\n        /* \"#utility.yul\":13950:13967   */\n      add\n        /* \"#utility.yul\":13941:13947   */\n      dup5\n        /* \"#utility.yul\":13897:13968   */\n      tag_332\n      jump\t// in\n    tag_369:\n        /* \"#utility.yul\":13753:13975   */\n      swap3\n      swap2\n      pop\n      pop\n      jump\t// out\n        /* \"#utility.yul\":13981:14110   */\n    tag_211:\n        /* \"#utility.yul\":14015:14021   */\n      0x00\n        /* \"#utility.yul\":14042:14062   */\n      tag_371\n      tag_372\n      jump\t// in\n    tag_371:\n        /* \"#utility.yul\":14032:14062   */\n      swap1\n      pop\n        /* \"#utility.yul\":14071:14104   */\n      tag_373\n        /* \"#utility.yul\":14099:14103   */\n      dup3\n        /* \"#utility.yul\":14091:14097   */\n      dup3\n        /* \"#utility.yul\":14071:14104   */\n      tag_374\n      jump\t// in\n    tag_373:\n        /* \"#utility.yul\":13981:14110   */\n      swap2\n      swap1\n      pop\n      jump\t// out\n        /* \"#utility.yul\":14116:14191   */\n    tag_372:\n        /* \"#utility.yul\":14149:14155   */\n      0x00\n        /* \"#utility.yul\":14182:14184   */\n      0x40\n        /* \"#utility.yul\":14176:14185   */\n      mload\n        /* \"#utility.yul\":14166:14185   */\n      swap1\n      pop\n        /* \"#utility.yul\":14116:14191   */\n      swap1\n      jump\t// out\n        /* \"#utility.yul\":14197:14504   */\n    tag_210:\n        /* \"#utility.yul\":14258:14262   */\n      0x00\n        /* \"#utility.yul\":14348:14366   */\n      0xffffffffffffffff\n        /* \"#utility.yul\":14340:14346   */\n      dup3\n        /* \"#utility.yul\":14337:14367   */\n      gt\n        /* \"#utility.yul\":14334:14390   */\n      iszero\n      tag_377\n      jumpi\n        /* \"#utility.yul\":14370:14388   */\n      tag_378\n      tag_64\n      jump\t// in\n    tag_378:\n        /* \"#utility.yul\":14334:14390   */\n    tag_377:\n        /* \"#utility.yul\":14408:14437   */\n      tag_379\n        /* \"#utility.yul\":14430:14436   */\n      dup3\n        /* \"#utility.yul\":14408:14437   */\n      tag_276\n      jump\t// in\n    tag_379:\n        /* \"#utility.yul\":14400:14437   */\n      swap1\n      pop\n        /* \"#utility.yul\":14492:14496   */\n      0x20\n        /* \"#utility.yul\":14486:14490   */\n      dup2\n        /* \"#utility.yul\":14482:14497   */\n      add\n        /* \"#utility.yul\":14474:14497   */\n      swap1\n      pop\n        /* \"#utility.yul\":14197:14504   */\n      swap2\n      swap1\n      pop\n      jump\t// out\n        /* \"#utility.yul\":14510:14608   */\n    tag_259:\n        /* \"#utility.yul\":14561:14567   */\n      0x00\n        /* \"#utility.yul\":14595:14600   */\n      dup2\n        /* \"#utility.yul\":14589:14601   */\n      mload\n        /* \"#utility.yul\":14579:14601   */\n      swap1\n      pop\n        /* \"#utility.yul\":14510:14608   */\n      swap2\n      swap1\n      pop\n      jump\t// out\n        /* \"#utility.yul\":14614:14713   */\n    tag_271:\n        /* \"#utility.yul\":14666:14672   */\n      0x00\n        /* \"#utility.yul\":14700:14705   */\n      dup2\n        /* \"#utility.yul\":14694:14706   */\n      mload\n        /* \"#utility.yul\":14684:14706   */\n      swap1\n      pop\n        /* \"#utility.yul\":14614:14713   */\n      swap2\n      swap1\n      pop\n      jump\t// out\n        /* \"#utility.yul\":14719:14866   */\n    tag_261:\n        /* \"#utility.yul\":14820:14831   */\n      0x00\n        /* \"#utility.yul\":14857:14860   */\n      dup2\n        /* \"#utility.yul\":14842:14860   */\n      swap1\n      pop\n        /* \"#utility.yul\":14719:14866   */\n      swap3\n      swap2\n      pop\n      pop\n      jump\t// out\n        /* \"#utility.yul\":14872:15041   */\n    tag_273:\n        /* \"#utility.yul\":14956:14967   */\n      0x00\n        /* \"#utility.yul\":14990:14996   */\n      dup3\n        /* \"#utility.yul\":14985:14988   */\n      dup3\n        /* \"#utility.yul\":14978:14997   */\n      mstore\n        /* \"#utility.yul\":15030:15034   */\n      0x20\n        /* \"#utility.yul\":15025:15028   */\n      dup3\n        /* \"#utility.yul\":15021:15035   */\n      add\n        /* \"#utility.yul\":15006:15035   */\n      swap1\n      pop\n        /* \"#utility.yul\":14872:15041   */\n      swap3\n      swap2\n      pop\n      pop\n      jump\t// out\n        /* \"#utility.yul\":15047:15143   */\n    tag_251:\n        /* \"#utility.yul\":15084:15091   */\n      0x00\n        /* \"#utility.yul\":15113:15137   */\n      tag_385\n        /* \"#utility.yul\":15131:15136   */\n      dup3\n        /* \"#utility.yul\":15113:15137   */\n      tag_386\n      jump\t// in\n    tag_385:\n        /* \"#utility.yul\":15102:15137   */\n      swap1\n      pop\n        /* \"#utility.yul\":15047:15143   */\n      swap2\n      swap1\n      pop\n      jump\t// out\n        /* \"#utility.yul\":15149:15226   */\n    tag_255:\n        /* \"#utility.yul\":15186:15193   */\n      0x00\n        /* \"#utility.yul\":15215:15220   */\n      dup2\n        /* \"#utility.yul\":15204:15220   */\n      swap1\n      pop\n        /* \"#utility.yul\":15149:15226   */\n      swap2\n      swap1\n      pop\n      jump\t// out\n        /* \"#utility.yul\":15232:15358   */\n    tag_386:\n        /* \"#utility.yul\":15269:15276   */\n      0x00\n        /* \"#utility.yul\":15309:15351   */\n      0xffffffffffffffffffffffffffffffffffffffff\n        /* \"#utility.yul\":15302:15307   */\n      dup3\n        /* \"#utility.yul\":15298:15352   */\n      and\n        /* \"#utility.yul\":15287:15352   */\n      swap1\n      pop\n        /* \"#utility.yul\":15232:15358   */\n      swap2\n      swap1\n      pop\n      jump\t// out\n        /* \"#utility.yul\":15364:15441   */\n    tag_335:\n        /* \"#utility.yul\":15401:15408   */\n      0x00\n        /* \"#utility.yul\":15430:15435   */\n      dup2\n        /* \"#utility.yul\":15419:15435   */\n      swap1\n      pop\n        /* \"#utility.yul\":15364:15441   */\n      swap2\n      swap1\n      pop\n      jump\t// out\n        /* \"#utility.yul\":15447:15533   */\n    tag_390:\n        /* \"#utility.yul\":15482:15489   */\n      0x00\n        /* \"#utility.yul\":15522:15526   */\n      0xff\n        /* \"#utility.yul\":15515:15520   */\n      dup3\n        /* \"#utility.yul\":15511:15527   */\n      and\n        /* \"#utility.yul\":15500:15527   */\n      swap1\n      pop\n        /* \"#utility.yul\":15447:15533   */\n      swap2\n      swap1\n      pop\n      jump\t// out\n        /* \"#utility.yul\":15539:15656   */\n    tag_267:\n        /* \"#utility.yul\":15595:15604   */\n      0x00\n        /* \"#utility.yul\":15628:15650   */\n      tag_393\n        /* \"#utility.yul\":15644:15649   */\n      dup3\n        /* \"#utility.yul\":15628:15650   */\n      tag_390\n      jump\t// in\n    tag_393:\n        /* \"#utility.yul\":15615:15650   */\n      swap1\n      pop\n        /* \"#utility.yul\":15539:15656   */\n      swap2\n      swap1\n      pop\n      jump\t// out\n        /* \"#utility.yul\":15662:15816   */\n    tag_216:\n        /* \"#utility.yul\":15746:15752   */\n      dup3\n        /* \"#utility.yul\":15741:15744   */\n      dup2\n        /* \"#utility.yul\":15736:15739   */\n      dup4\n        /* \"#utility.yul\":15723:15753   */\n      calldatacopy\n        /* \"#utility.yul\":15808:15809   */\n      0x00\n        /* \"#utility.yul\":15799:15805   */\n      dup4\n        /* \"#utility.yul\":15794:15797   */\n      dup4\n        /* \"#utility.yul\":15790:15806   */\n      add\n        /* \"#utility.yul\":15783:15810   */\n      mstore\n        /* \"#utility.yul\":15662:15816   */\n      pop\n      pop\n      pop\n      jump\t// out\n        /* \"#utility.yul\":15822:16129   */\n    tag_263:\n        /* \"#utility.yul\":15890:15891   */\n      0x00\n        /* \"#utility.yul\":15900:16013   */\n    tag_396:\n        /* \"#utility.yul\":15914:15920   */\n      dup4\n        /* \"#utility.yul\":15911:15912   */\n      dup2\n        /* \"#utility.yul\":15908:15921   */\n      lt\n        /* \"#utility.yul\":15900:16013   */\n      iszero\n      tag_398\n      jumpi\n        /* \"#utility.yul\":15999:16000   */\n      dup1\n        /* \"#utility.yul\":15994:15997   */\n      dup3\n        /* \"#utility.yul\":15990:16001   */\n      add\n        /* \"#utility.yul\":15984:16002   */\n      mload\n        /* \"#utility.yul\":15980:15981   */\n      dup2\n        /* \"#utility.yul\":15975:15978   */\n      dup5\n        /* \"#utility.yul\":15971:15982   */\n      add\n        /* \"#utility.yul\":15964:16003   */\n      mstore\n        /* \"#utility.yul\":15936:15938   */\n      0x20\n        /* \"#utility.yul\":15933:15934   */\n      dup2\n        /* \"#utility.yul\":15929:15939   */\n      add\n        /* \"#utility.yul\":15924:15939   */\n      swap1\n      pop\n        /* \"#utility.yul\":15900:16013   */\n      jump(tag_396)\n    tag_398:\n        /* \"#utility.yul\":16031:16037   */\n      dup4\n        /* \"#utility.yul\":16028:16029   */\n      dup2\n        /* \"#utility.yul\":16025:16038   */\n      gt\n        /* \"#utility.yul\":16022:16123   */\n      iszero\n      tag_399\n      jumpi\n        /* \"#utility.yul\":16111:16112   */\n      0x00\n        /* \"#utility.yul\":16102:16108   */\n      dup5\n        /* \"#utility.yul\":16097:16100   */\n      dup5\n        /* \"#utility.yul\":16093:16109   */\n      add\n        /* \"#utility.yul\":16086:16113   */\n      mstore\n        /* \"#utility.yul\":16022:16123   */\n    tag_399:\n        /* \"#utility.yul\":15871:16129   */\n      pop\n        /* \"#utility.yul\":15822:16129   */\n      pop\n      pop\n      pop\n      jump\t// out\n        /* \"#utility.yul\":16135:16416   */\n    tag_374:\n        /* \"#utility.yul\":16218:16245   */\n      tag_401\n        /* \"#utility.yul\":16240:16244   */\n      dup3\n        /* \"#utility.yul\":16218:16245   */\n      tag_276\n      jump\t// in\n    tag_401:\n        /* \"#utility.yul\":16210:16216   */\n      dup2\n        /* \"#utility.yul\":16206:16246   */\n      add\n        /* \"#utility.yul\":16348:16354   */\n      dup2\n        /* \"#utility.yul\":16336:16346   */\n      dup2\n        /* \"#utility.yul\":16333:16355   */\n      lt\n        /* \"#utility.yul\":16312:16330   */\n      0xffffffffffffffff\n        /* \"#utility.yul\":16300:16310   */\n      dup3\n        /* \"#utility.yul\":16297:16331   */\n      gt\n        /* \"#utility.yul\":16294:16356   */\n      or\n        /* \"#utility.yul\":16291:16379   */\n      iszero\n      tag_402\n      jumpi\n        /* \"#utility.yul\":16359:16377   */\n      tag_403\n      tag_64\n      jump\t// in\n    tag_403:\n        /* \"#utility.yul\":16291:16379   */\n    tag_402:\n        /* \"#utility.yul\":16399:16409   */\n      dup1\n        /* \"#utility.yul\":16395:16397   */\n      0x40\n        /* \"#utility.yul\":16388:16410   */\n      mstore\n        /* \"#utility.yul\":16178:16416   */\n      pop\n        /* \"#utility.yul\":16135:16416   */\n      pop\n      pop\n      jump\t// out\n        /* \"#utility.yul\":16422:16655   */\n    tag_69:\n        /* \"#utility.yul\":16461:16464   */\n      0x00\n        /* \"#utility.yul\":16484:16508   */\n      tag_405\n        /* \"#utility.yul\":16502:16507   */\n      dup3\n        /* \"#utility.yul\":16484:16508   */\n      tag_335\n      jump\t// in\n    tag_405:\n        /* \"#utility.yul\":16475:16508   */\n      swap2\n      pop\n        /* \"#utility.yul\":16530:16596   */\n      0xffffffffffffffffffffffffffffffffffffffffffffffffffffffffffffffff\n        /* \"#utility.yul\":16523:16528   */\n      dup3\n        /* \"#utility.yul\":16520:16597   */\n      eq\n        /* \"#utility.yul\":16517:16620   */\n      iszero\n      tag_406\n      jumpi\n        /* \"#utility.yul\":16600:16618   */\n      tag_407\n      tag_408\n      jump\t// in\n    tag_407:\n        /* \"#utility.yul\":16517:16620   */\n    tag_406:\n        /* \"#utility.yul\":16647:16648   */\n      0x01\n        /* \"#utility.yul\":16640:16645   */\n      dup3\n        /* \"#utility.yul\":16636:16649   */\n      add\n        /* \"#utility.yul\":16629:16649   */\n      swap1\n      pop\n        /* \"#utility.yul\":16422:16655   */\n      swap2\n      swap1\n      pop\n      jump\t// out\n        /* \"#utility.yul\":16661:16841   */\n    tag_408:\n        /* \"#utility.yul\":16709:16786   */\n      0x4e487b7100000000000000000000000000000000000000000000000000000000\n        /* \"#utility.yul\":16706:16707   */\n      0x00\n        /* \"#utility.yul\":16699:16787   */\n      mstore\n        /* \"#utility.yul\":16806:16810   */\n      0x11\n        /* \"#utility.yul\":16803:16804   */\n      0x04\n        /* \"#utility.yul\":16796:16811   */\n      mstore\n        /* \"#utility.yul\":16830:16834   */\n      0x24\n        /* \"#utility.yul\":16827:16828   */\n      0x00\n        /* \"#utility.yul\":16820:16835   */\n      revert\n        /* \"#utility.yul\":16847:17027   */\n    tag_64:\n        /* \"#utility.yul\":16895:16972   */\n      0x4e487b7100000000000000000000000000000000000000000000000000000000\n        /* \"#utility.yul\":16892:16893   */\n      0x00\n        /* \"#utility.yul\":16885:16973   */\n      mstore\n        /* \"#utility.yul\":16992:16996   */\n      0x41\n        /* \"#utility.yul\":16989:16990   */\n      0x04\n        /* \"#utility.yul\":16982:16997   */\n      mstore\n        /* \"#utility.yul\":17016:17020   */\n      0x24\n        /* \"#utility.yul\":17013:17014   */\n      0x00\n        /* \"#utility.yul\":17006:17021   */\n      revert\n        /* \"#utility.yul\":17033:17150   */\n    tag_229:\n        /* \"#utility.yul\":17142:17143   */\n      0x00\n        /* \"#utility.yul\":17139:17140   */\n      dup1\n        /* \"#utility.yul\":17132:17144   */\n      revert\n        /* \"#utility.yul\":17156:17273   */\n    tag_214:\n        /* \"#utility.yul\":17265:17266   */\n      0x00\n        /* \"#utility.yul\":17262:17263   */\n      dup1\n        /* \"#utility.yul\":17255:17267   */\n      revert\n        /* \"#utility.yul\":17279:17396   */\n    tag_242:\n        /* \"#utility.yul\":17388:17389   */\n      0x00\n        /* \"#utility.yul\":17385:17386   */\n      dup1\n        /* \"#utility.yul\":17378:17390   */\n      revert\n        /* \"#utility.yul\":17402:17519   */\n    tag_234:\n        /* \"#utility.yul\":17511:17512   */\n      0x00\n        /* \"#utility.yul\":17508:17509   */\n      dup1\n        /* \"#utility.yul\":17501:17513   */\n      revert\n        /* \"#utility.yul\":17525:17627   */\n    tag_276:\n        /* \"#utility.yul\":17566:17572   */\n      0x00\n        /* \"#utility.yul\":17617:17619   */\n      0x1f\n        /* \"#utility.yul\":17613:17620   */\n      not\n        /* \"#utility.yul\":17608:17610   */\n      0x1f\n        /* \"#utility.yul\":17601:17606   */\n      dup4\n        /* \"#utility.yul\":17597:17611   */\n      add\n        /* \"#utility.yul\":17593:17621   */\n      and\n        /* \"#utility.yul\":17583:17621   */\n      swap1\n      pop\n        /* \"#utility.yul\":17525:17627   */\n      swap2\n      swap1\n      pop\n      jump\t// out\n        /* \"#utility.yul\":17633:17858   */\n    tag_281:\n        /* \"#utility.yul\":17773:17807   */\n      0x4f776e61626c653a206e6577206f776e657220697320746865207a65726f2061\n        /* \"#utility.yul\":17769:17770   */\n      0x00\n        /* \"#utility.yul\":17761:17767   */\n      dup3\n        /* \"#utility.yul\":17757:17771   */\n      add\n        /* \"#utility.yul\":17750:17808   */\n      mstore\n        /* \"#utility.yul\":17842:17850   */\n      0x6464726573730000000000000000000000000000000000000000000000000000\n        /* \"#utility.yul\":17837:17839   */\n      0x20\n        /* \"#utility.yul\":17829:17835   */\n      dup3\n        /* \"#utility.yul\":17825:17840   */\n      add\n        /* \"#utility.yul\":17818:17851   */\n      mstore\n        /* \"#utility.yul\":17633:17858   */\n      pop\n      jump\t// out\n        /* \"#utility.yul\":17864:18095   */\n    tag_286:\n        /* \"#utility.yul\":18004:18038   */\n      0x46756e6374696f6e206d7573742062652063616c6c6564207468726f75676820\n        /* \"#utility.yul\":18000:18001   */\n      0x00\n        /* \"#utility.yul\":17992:17998   */\n      dup3\n        /* \"#utility.yul\":17988:18002   */\n      add\n        /* \"#utility.yul\":17981:18039   */\n      mstore\n        /* \"#utility.yul\":18073:18087   */\n      0x64656c656761746563616c6c0000000000000000000000000000000000000000\n        /* \"#utility.yul\":18068:18070   */\n      0x20\n        /* \"#utility.yul\":18060:18066   */\n      dup3\n        /* \"#utility.yul\":18056:18071   */\n      add\n        /* \"#utility.yul\":18049:18088   */\n      mstore\n        /* \"#utility.yul\":17864:18095   */\n      pop\n      jump\t// out\n        /* \"#utility.yul\":18101:18332   */\n    tag_291:\n        /* \"#utility.yul\":18241:18275   */\n      0x46756e6374696f6e206d7573742062652063616c6c6564207468726f75676820\n        /* \"#utility.yul\":18237:18238   */\n      0x00\n        /* \"#utility.yul\":18229:18235   */\n      dup3\n        /* \"#utility.yul\":18225:18239   */\n      add\n        /* \"#utility.yul\":18218:18276   */\n      mstore\n        /* \"#utility.yul\":18310:18324   */\n      0x6163746976652070726f78790000000000000000000000000000000000000000\n        /* \"#utility.yul\":18305:18307   */\n      0x20\n        /* \"#utility.yul\":18297:18303   */\n      dup3\n        /* \"#utility.yul\":18293:18308   */\n      add\n        /* \"#utility.yul\":18286:18325   */\n      mstore\n        /* \"#utility.yul\":18101:18332   */\n      pop\n      jump\t// out\n        /* \"#utility.yul\":18338:18581   */\n    tag_296:\n        /* \"#utility.yul\":18478:18512   */\n      0x555550535570677261646561626c653a206d757374206e6f742062652063616c\n        /* \"#utility.yul\":18474:18475   */\n      0x00\n        /* \"#utility.yul\":18466:18472   */\n      dup3\n        /* \"#utility.yul\":18462:18476   */\n      add\n        /* \"#utility.yul\":18455:18513   */\n      mstore\n        /* \"#utility.yul\":18547:18573   */\n      0x6c6564207468726f7567682064656c656761746563616c6c0000000000000000\n        /* \"#utility.yul\":18542:18544   */\n      0x20\n        /* \"#utility.yul\":18534:18540   */\n      dup3\n        /* \"#utility.yul\":18530:18545   */\n      add\n        /* \"#utility.yul\":18523:18574   */\n      mstore\n        /* \"#utility.yul\":18338:18581   */\n      pop\n      jump\t// out\n        /* \"#utility.yul\":18587:18815   */\n    tag_301:\n        /* \"#utility.yul\":18727:18761   */\n      0x45524331393637557067726164653a20756e737570706f727465642070726f78\n        /* \"#utility.yul\":18723:18724   */\n      0x00\n        /* \"#utility.yul\":18715:18721   */\n      dup3\n        /* \"#utility.yul\":18711:18725   */\n      add\n        /* \"#utility.yul\":18704:18762   */\n      mstore\n        /* \"#utility.yul\":18796:18807   */\n      0x6961626c65555549440000000000000000000000000000000000000000000000\n        /* \"#utility.yul\":18791:18793   */\n      0x20\n        /* \"#utility.yul\":18783:18789   */\n      dup3\n        /* \"#utility.yul\":18779:18794   */\n      add\n        /* \"#utility.yul\":18772:18808   */\n      mstore\n        /* \"#utility.yul\":18587:18815   */\n      pop\n      jump\t// out\n        /* \"#utility.yul\":18821:19054   */\n    tag_306:\n        /* \"#utility.yul\":18961:18995   */\n      0x496e697469616c697a61626c653a20636f6e747261637420697320616c726561\n        /* \"#utility.yul\":18957:18958   */\n      0x00\n        /* \"#utility.yul\":18949:18955   */\n      dup3\n        /* \"#utility.yul\":18945:18959   */\n      add\n        /* \"#utility.yul\":18938:18996   */\n      mstore\n        /* \"#utility.yul\":19030:19046   */\n      0x647920696e697469616c697a6564000000000000000000000000000000000000\n        /* \"#utility.yul\":19025:19027   */\n      0x20\n        /* \"#utility.yul\":19017:19023   */\n      dup3\n        /* \"#utility.yul\":19013:19028   */\n      add\n        /* \"#utility.yul\":19006:19047   */\n      mstore\n        /* \"#utility.yul\":18821:19054   */\n      pop\n      jump\t// out\n        /* \"#utility.yul\":19060:19293   */\n    tag_311:\n        /* \"#utility.yul\":19200:19234   */\n      0x45524331393637557067726164653a206e657720696d706c656d656e74617469\n        /* \"#utility.yul\":19196:19197   */\n      0x00\n        /* \"#utility.yul\":19188:19194   */\n      dup3\n        /* \"#utility.yul\":19184:19198   */\n      add\n        /* \"#utility.yul\":19177:19235   */\n      mstore\n        /* \"#utility.yul\":19269:19285   */\n      0x6f6e206973206e6f742055555053000000000000000000000000000000000000\n        /* \"#utility.yul\":19264:19266   */\n      0x20\n        /* \"#utility.yul\":19256:19262   */\n      dup3\n        /* \"#utility.yul\":19252:19267   */\n      add\n        /* \"#utility.yul\":19245:19286   */\n      mstore\n        /* \"#utility.yul\":19060:19293   */\n      pop\n      jump\t// out\n        /* \"#utility.yul\":19299:19531   */\n    tag_316:\n        /* \"#utility.yul\":19439:19473   */\n      0x455243313936373a206e657720696d706c656d656e746174696f6e206973206e\n        /* \"#utility.yul\":19435:19436   */\n      0x00\n        /* \"#utility.yul\":19427:19433   */\n      dup3\n        /* \"#utility.yul\":19423:19437   */\n      add\n        /* \"#utility.yul\":19416:19474   */\n      mstore\n        /* \"#utility.yul\":19508:19523   */\n      0x6f74206120636f6e747261637400000000000000000000000000000000000000\n        /* \"#utility.yul\":19503:19505   */\n      0x20\n        /* \"#utility.yul\":19495:19501   */\n      dup3\n        /* \"#utility.yul\":19491:19506   */\n      add\n        /* \"#utility.yul\":19484:19524   */\n      mstore\n        /* \"#utility.yul\":19299:19531   */\n      pop\n      jump\t// out\n        /* \"#utility.yul\":19537:19719   */\n    tag_321:\n        /* \"#utility.yul\":19677:19711   */\n      0x4f776e61626c653a2063616c6c6572206973206e6f7420746865206f776e6572\n        /* \"#utility.yul\":19673:19674   */\n      0x00\n        /* \"#utility.yul\":19665:19671   */\n      dup3\n        /* \"#utility.yul\":19661:19675   */\n      add\n        /* \"#utility.yul\":19654:19712   */\n      mstore\n        /* \"#utility.yul\":19537:19719   */\n      pop\n      jump\t// out\n        /* \"#utility.yul\":19725:19950   */\n    tag_326:\n        /* \"#utility.yul\":19865:19899   */\n      0x416464726573733a2064656c65676174652063616c6c20746f206e6f6e2d636f\n        /* \"#utility.yul\":19861:19862   */\n      0x00\n        /* \"#utility.yul\":19853:19859   */\n      dup3\n        /* \"#utility.yul\":19849:19863   */\n      add\n        /* \"#utility.yul\":19842:19900   */\n      mstore\n        /* \"#utility.yul\":19934:19942   */\n      0x6e74726163740000000000000000000000000000000000000000000000000000\n        /* \"#utility.yul\":19929:19931   */\n      0x20\n        /* \"#utility.yul\":19921:19927   */\n      dup3\n        /* \"#utility.yul\":19917:19932   */\n      add\n        /* \"#utility.yul\":19910:19943   */\n      mstore\n        /* \"#utility.yul\":19725:19950   */\n      pop\n      jump\t// out\n        /* \"#utility.yul\":19956:20186   */\n    tag_331:\n        /* \"#utility.yul\":20096:20130   */\n      0x496e697469616c697a61626c653a20636f6e7472616374206973206e6f742069\n        /* \"#utility.yul\":20092:20093   */\n      0x00\n        /* \"#utility.yul\":20084:20090   */\n      dup3\n        /* \"#utility.yul\":20080:20094   */\n      add\n        /* \"#utility.yul\":20073:20131   */\n      mstore\n        /* \"#utility.yul\":20165:20178   */\n      0x6e697469616c697a696e67000000000000000000000000000000000000000000\n        /* \"#utility.yul\":20160:20162   */\n      0x20\n        /* \"#utility.yul\":20152:20158   */\n      dup3\n        /* \"#utility.yul\":20148:20163   */\n      add\n        /* \"#utility.yul\":20141:20179   */\n      mstore\n        /* \"#utility.yul\":19956:20186   */\n      pop\n      jump\t// out\n        /* \"#utility.yul\":20192:20314   */\n    tag_220:\n        /* \"#utility.yul\":20265:20289   */\n      tag_428\n        /* \"#utility.yul\":20283:20288   */\n      dup2\n        /* \"#utility.yul\":20265:20289   */\n      tag_251\n      jump\t// in\n    tag_428:\n        /* \"#utility.yul\":20258:20263   */\n      dup2\n        /* \"#utility.yul\":20255:20290   */\n      eq\n        /* \"#utility.yul\":20245:20308   */\n      tag_429\n      jumpi\n        /* \"#utility.yul\":20304:20305   */\n      0x00\n        /* \"#utility.yul\":20301:20302   */\n      dup1\n        /* \"#utility.yul\":20294:20306   */\n      revert\n        /* \"#utility.yul\":20245:20308   */\n    tag_429:\n        /* \"#utility.yul\":20192:20314   */\n      pop\n      jump\t// out\n        /* \"#utility.yul\":20320:20442   */\n    tag_224:\n        /* \"#utility.yul\":20393:20417   */\n      tag_431\n        /* \"#utility.yul\":20411:20416   */\n      dup2\n        /* \"#utility.yul\":20393:20417   */\n      tag_255\n      jump\t// in\n    tag_431:\n        /* \"#utility.yul\":20386:20391   */\n      dup2\n        /* \"#utility.yul\":20383:20418   */\n      eq\n        /* \"#utility.yul\":20373:20436   */\n      tag_432\n      jumpi\n        /* \"#utility.yul\":20432:20433   */\n      0x00\n        /* \"#utility.yul\":20429:20430   */\n      dup1\n        /* \"#utility.yul\":20422:20434   */\n      revert\n        /* \"#utility.yul\":20373:20436   */\n    tag_432:\n        /* \"#utility.yul\":20320:20442   */\n      pop\n      jump\t// out\n    stop\n    data_9fdcd12e4b726339b32a442b0a448365d5d85c96b2d2cff917b4f66c63110398 416464726573733a206c6f772d6c6576656c2064656c65676174652063616c6c206661696c6564\n\n    auxdata: 0xa2646970667358221220981298221c1406d5ab7f5de89cda9d623f062eb3f7d6af93c8b79c7c152c6b4364736f6c63430008070033\n}\n",
				"bytecode": {
					"linkReferences": {},
					"object": "60a06040523073ffffffffffffffffffffffffffffffffffffffff1660809073ffffffffffffffffffffffffffffffffffffffff1660601b81525034801561004657600080fd5b5060805160601c61197e610081600039600081816101c7015281816102560152818161036a015281816103f901526104a9015261197e6000f3fe6080604052600436106100865760003560e01c806352d1902d1161005957806352d1902d14610112578063715018a61461013d5780638129fc1c146101545780638da5cb5b1461016b578063f2fde38b1461019657610086565b806306661abd1461008b5780633659cfe6146100b6578063371303c0146100df5780634f1ef286146100f6575b600080fd5b34801561009757600080fd5b506100a06101bf565b6040516100ad919061136d565b60405180910390f35b3480156100c257600080fd5b506100dd60048036038101906100d89190610ea6565b6101c5565b005b3480156100eb57600080fd5b506100f461034e565b005b610110600480360381019061010b9190610ed3565b610368565b005b34801561011e57600080fd5b506101276104a5565b60405161013491906111b5565b60405180910390f35b34801561014957600080fd5b5061015261055e565b005b34801561016057600080fd5b50610169610572565b005b34801561017757600080fd5b506101806106b8565b60405161018d919061119a565b60405180910390f35b3480156101a257600080fd5b506101bd60048036038101906101b89190610ea6565b6106e2565b005b60c95481565b7f000000000000000000000000000000000000000000000000000000000000000073ffffffffffffffffffffffffffffffffffffffff163073ffffffffffffffffffffffffffffffffffffffff161415610254576040517f08c379a000000000000000000000000000000000000000000000000000000000815260040161024b9061122d565b60405180910390fd5b7f000000000000000000000000000000000000000000000000000000000000000073ffffffffffffffffffffffffffffffffffffffff16610293610766565b73ffffffffffffffffffffffffffffffffffffffff16146102e9576040517f08c379a00000000000000000000000000000000000000000000000000000000081526004016102e09061124d565b60405180910390fd5b6102f2816107bd565b61034b81600067ffffffffffffffff81111561031157610310611560565b5b6040519080825280601f01601f1916602001820160405280156103435781602001600182028036833780820191505090505b5060006107c8565b50565b60c96000815480929190610361906114e8565b9190505550565b7f000000000000000000000000000000000000000000000000000000000000000073ffffffffffffffffffffffffffffffffffffffff163073ffffffffffffffffffffffffffffffffffffffff1614156103f7576040517f08c379a00000000000000000000000000000000000000000000000000000000081526004016103ee9061122d565b60405180910390fd5b7f000000000000000000000000000000000000000000000000000000000000000073ffffffffffffffffffffffffffffffffffffffff16610436610766565b73ffffffffffffffffffffffffffffffffffffffff161461048c576040517f08c379a00000000000000000000000000000000000000000000000000000000081526004016104839061124d565b60405180910390fd5b610495826107bd565b6104a1828260016107c8565b5050565b60007f000000000000000000000000000000000000000000000000000000000000000073ffffffffffffffffffffffffffffffffffffffff163073ffffffffffffffffffffffffffffffffffffffff1614610535576040517f08c379a000000000000000000000000000000000000000000000000000000000815260040161052c9061126d565b60405180910390fd5b7f360894a13ba1a3210667c828492db98dca3e2076cc3735a920a3ca505d382bbc60001b905090565b610566610945565b61057060006109c3565b565b60008060019054906101000a900460ff161590508080156105a35750600160008054906101000a900460ff1660ff16105b806105d057506105b230610a89565b1580156105cf5750600160008054906101000a900460ff1660ff16145b5b61060f576040517f08c379a0000000000000000000000000000000000000000000000000000000008152600401610606906112ad565b60405180910390fd5b60016000806101000a81548160ff021916908360ff160217905550801561064c576001600060016101000a81548160ff0219169083151502179055505b600a60c98190555061065c610aac565b80156106b55760008060016101000a81548160ff0219169083151502179055507f7f26b83ff96e1f2b6a682f133852f6798a09c465da95921460cefb384740249860016040516106ac91906111d0565b60405180910390a15b50565b6000609760009054906101000a900473ffffffffffffffffffffffffffffffffffffffff16905090565b6106ea610945565b600073ffffffffffffffffffffffffffffffffffffffff168173ffffffffffffffffffffffffffffffffffffffff16141561075a576040517f08c379a00000000000000000000000000000000000000000000000000000000081526004016107519061120d565b60405180910390fd5b610763816109c3565b50565b60006107947f360894a13ba1a3210667c828492db98dca3e2076cc3735a920a3ca505d382bbc60001b610b05565b60000160009054906101000a900473ffffffffffffffffffffffffffffffffffffffff16905090565b6107c5610945565b50565b6107f47f4910fdfa16fed3260ed0e7147f7cc6da11a60208b5b9406d12a635614ffd914360001b610b0f565b60000160009054906101000a900460ff16156108185761081383610b19565b610940565b8273ffffffffffffffffffffffffffffffffffffffff166352d1902d6040518163ffffffff1660e01b815260040160206040518083038186803b15801561085e57600080fd5b505afa92505050801561088f57506040513d601f19601f8201168201806040525081019061088c9190610f2f565b60015b6108ce576040517f08c379a00000000000000000000000000000000000000000000000000000000081526004016108c5906112cd565b60405180910390fd5b7f360894a13ba1a3210667c828492db98dca3e2076cc3735a920a3ca505d382bbc60001b8114610933576040517f08c379a000000000000000000000000000000000000000000000000000000000815260040161092a9061128d565b60405180910390fd5b5061093f838383610bd2565b5b505050565b61094d610bfe565b73ffffffffffffffffffffffffffffffffffffffff1661096b6106b8565b73ffffffffffffffffffffffffffffffffffffffff16146109c1576040517f08c379a00000000000000000000000000000000000000000000000000000000081526004016109b89061130d565b60405180910390fd5b565b6000609760009054906101000a900473ffffffffffffffffffffffffffffffffffffffff16905081609760006101000a81548173ffffffffffffffffffffffffffffffffffffffff021916908373ffffffffffffffffffffffffffffffffffffffff1602179055508173ffffffffffffffffffffffffffffffffffffffff168173ffffffffffffffffffffffffffffffffffffffff167f8be0079c531659141344cd1fd0a4f28419497f9722a3daafe3b4186f6b6457e060405160405180910390a35050565b6000808273ffffffffffffffffffffffffffffffffffffffff163b119050919050565b600060019054906101000a900460ff16610afb576040517f08c379a0000000000000000000000000000000000000000000000000000000008152600401610af29061134d565b60405180910390fd5b610b03610c06565b565b6000819050919050565b6000819050919050565b610b2281610a89565b610b61576040517f08c379a0000000000000000000000000000000000000000000000000000000008152600401610b58906112ed565b60405180910390fd5b80610b8e7f360894a13ba1a3210667c828492db98dca3e2076cc3735a920a3ca505d382bbc60001b610b05565b60000160006101000a81548173ffffffffffffffffffffffffffffffffffffffff021916908373ffffffffffffffffffffffffffffffffffffffff16021790555050565b610bdb83610c67565b600082511180610be85750805b15610bf957610bf78383610cb6565b505b505050565b600033905090565b600060019054906101000a900460ff16610c55576040517f08c379a0000000000000000000000000000000000000000000000000000000008152600401610c4c9061134d565b60405180910390fd5b610c65610c60610bfe565b6109c3565b565b610c7081610b19565b8073ffffffffffffffffffffffffffffffffffffffff167fbc7cd75a20ee27fd9adebab32041f755214dbc6bffa90cc0225b39da2e5c2d3b60405160405180910390a250565b6060610cc183610a89565b610d00576040517f08c379a0000000000000000000000000000000000000000000000000000000008152600401610cf79061132d565b60405180910390fd5b6000808473ffffffffffffffffffffffffffffffffffffffff1684604051610d289190611183565b600060405180830381855af49150503d8060008114610d63576040519150601f19603f3d011682016040523d82523d6000602084013e610d68565b606091505b5091509150610d90828260405180606001604052806027815260200161192260279139610d9a565b9250505092915050565b60608315610daa57829050610db5565b610db48383610dbc565b5b9392505050565b600082511115610dcf5781518083602001fd5b806040517f08c379a0000000000000000000000000000000000000000000000000000000008152600401610e0391906111eb565b60405180910390fd5b6000610e1f610e1a846113ad565b611388565b905082815260208101848484011115610e3b57610e3a611594565b5b610e46848285611475565b509392505050565b600081359050610e5d816118f3565b92915050565b600081519050610e728161190a565b92915050565b600082601f830112610e8d57610e8c61158f565b5b8135610e9d848260208601610e0c565b91505092915050565b600060208284031215610ebc57610ebb61159e565b5b6000610eca84828501610e4e565b91505092915050565b60008060408385031215610eea57610ee961159e565b5b6000610ef885828601610e4e565b925050602083013567ffffffffffffffff811115610f1957610f18611599565b5b610f2585828601610e78565b9150509250929050565b600060208284031215610f4557610f4461159e565b5b6000610f5384828501610e63565b91505092915050565b610f6581611410565b82525050565b610f7481611422565b82525050565b6000610f85826113de565b610f8f81856113f4565b9350610f9f818560208601611484565b80840191505092915050565b610fb481611463565b82525050565b6000610fc5826113e9565b610fcf81856113ff565b9350610fdf818560208601611484565b610fe8816115a3565b840191505092915050565b60006110006026836113ff565b915061100b826115b4565b604082019050919050565b6000611023602c836113ff565b915061102e82611603565b604082019050919050565b6000611046602c836113ff565b915061105182611652565b604082019050919050565b60006110696038836113ff565b9150611074826116a1565b604082019050919050565b600061108c6029836113ff565b9150611097826116f0565b604082019050919050565b60006110af602e836113ff565b91506110ba8261173f565b604082019050919050565b60006110d2602e836113ff565b91506110dd8261178e565b604082019050919050565b60006110f5602d836113ff565b9150611100826117dd565b604082019050919050565b60006111186020836113ff565b91506111238261182c565b602082019050919050565b600061113b6026836113ff565b915061114682611855565b604082019050919050565b600061115e602b836113ff565b9150611169826118a4565b604082019050919050565b61117d8161144c565b82525050565b600061118f8284610f7a565b915081905092915050565b60006020820190506111af6000830184610f5c565b92915050565b60006020820190506111ca6000830184610f6b565b92915050565b60006020820190506111e56000830184610fab565b92915050565b600060208201905081810360008301526112058184610fba565b905092915050565b6000602082019050818103600083015261122681610ff3565b9050919050565b6000602082019050818103600083015261124681611016565b9050919050565b6000602082019050818103600083015261126681611039565b9050919050565b600060208201905081810360008301526112868161105c565b9050919050565b600060208201905081810360008301526112a68161107f565b9050919050565b600060208201905081810360008301526112c6816110a2565b9050919050565b600060208201905081810360008301526112e6816110c5565b9050919050565b60006020820190508181036000830152611306816110e8565b9050919050565b600060208201905081810360008301526113268161110b565b9050919050565b600060208201905081810360008301526113468161112e565b9050919050565b6000602082019050818103600083015261136681611151565b9050919050565b60006020820190506113826000830184611174565b92915050565b60006113926113a3565b905061139e82826114b7565b919050565b6000604051905090565b600067ffffffffffffffff8211156113c8576113c7611560565b5b6113d1826115a3565b9050602081019050919050565b600081519050919050565b600081519050919050565b600081905092915050565b600082825260208201905092915050565b600061141b8261142c565b9050919050565b6000819050919050565b600073ffffffffffffffffffffffffffffffffffffffff82169050919050565b6000819050919050565b600060ff82169050919050565b600061146e82611456565b9050919050565b82818337600083830152505050565b60005b838110156114a2578082015181840152602081019050611487565b838111156114b1576000848401525b50505050565b6114c0826115a3565b810181811067ffffffffffffffff821117156114df576114de611560565b5b80604052505050565b60006114f38261144c565b91507fffffffffffffffffffffffffffffffffffffffffffffffffffffffffffffffff82141561152657611525611531565b5b600182019050919050565b7f4e487b7100000000000000000000000000000000000000000000000000000000600052601160045260246000fd5b7f4e487b7100000000000000000000000000000000000000000000000000000000600052604160045260246000fd5b600080fd5b600080fd5b600080fd5b600080fd5b6000601f19601f8301169050919050565b7f4f776e61626c653a206e6577206f776e657220697320746865207a65726f206160008201527f6464726573730000000000000000000000000000000000000000000000000000602082015250565b7f46756e6374696f6e206d7573742062652063616c6c6564207468726f7567682060008201527f64656c656761746563616c6c0000000000000000000000000000000000000000602082015250565b7f46756e6374696f6e206d7573742062652063616c6c6564207468726f7567682060008201527f6163746976652070726f78790000000000000000000000000000000000000000602082015250565b7f555550535570677261646561626c653a206d757374206e6f742062652063616c60008201527f6c6564207468726f7567682064656c656761746563616c6c0000000000000000602082015250565b7f45524331393637557067726164653a20756e737570706f727465642070726f7860008201527f6961626c65555549440000000000000000000000000000000000000000000000602082015250565b7f496e697469616c697a61626c653a20636f6e747261637420697320616c72656160008201527f647920696e697469616c697a6564000000000000000000000000000000000000602082015250565b7f45524331393637557067726164653a206e657720696d706c656d656e7461746960008201527f6f6e206973206e6f742055555053000000000000000000000000000000000000602082015250565b7f455243313936373a206e657720696d706c656d656e746174696f6e206973206e60008201527f6f74206120636f6e747261637400000000000000000000000000000000000000602082015250565b7f4f776e61626c653a2063616c6c6572206973206e6f7420746865206f776e6572600082015250565b7f416464726573733a2064656c65676174652063616c6c20746f206e6f6e2d636f60008201527f6e74726163740000000000000000000000000000000000000000000000000000602082015250565b7f496e697469616c697a61626c653a20636f6e7472616374206973206e6f74206960008201527f6e697469616c697a696e67000000000000000000000000000000000000000000602082015250565b6118fc81611410565b811461190757600080fd5b50565b61191381611422565b811461191e57600080fd5b5056fe416464726573733a206c6f772d6c6576656c2064656c65676174652063616c6c206661696c6564a2646970667358221220981298221c1406d5ab7f5de89cda9d623f062eb3f7d6af93c8b79c7c152c6b4364736f6c63430008070033",
					"opcodes": "PUSH1 0xA0 PUSH1 0x40 MSTORE ADDRESS PUSH20 0xFFFFFFFFFFFFFFFFFFFFFFFFFFFFFFFFFFFFFFFF AND PUSH1 0x80 SWAP1 PUSH20 0xFFFFFFFFFFFFFFFFFFFFFFFFFFFFFFFFFFFFFFFF AND PUSH1 0x60 SHL DUP2 MSTORE POP CALLVALUE DUP1 ISZERO PUSH2 0x46 JUMPI PUSH1 0x0 DUP1 REVERT JUMPDEST POP PUSH1 0x80 MLOAD PUSH1 0x60 SHR PUSH2 0x197E PUSH2 0x81 PUSH1 0x0 CODECOPY PUSH1 0x0 DUP2 DUP2 PUSH2 0x1C7 ADD MSTORE DUP2 DUP2 PUSH2 0x256 ADD MSTORE DUP2 DUP2 PUSH2 0x36A ADD MSTORE DUP2 DUP2 PUSH2 0x3F9 ADD MSTORE PUSH2 0x4A9 ADD MSTORE PUSH2 0x197E PUSH1 0x0 RETURN INVALID PUSH1 0x80 PUSH1 0x40 MSTORE PUSH1 0x4 CALLDATASIZE LT PUSH2 0x86 JUMPI PUSH1 0x0 CALLDATALOAD PUSH1 0xE0 SHR DUP1 PUSH4 0x52D1902D GT PUSH2 0x59 JUMPI DUP1 PUSH4 0x52D1902D EQ PUSH2 0x112 JUMPI DUP1 PUSH4 0x715018A6 EQ PUSH2 0x13D JUMPI DUP1 PUSH4 0x8129FC1C EQ PUSH2 0x154 JUMPI DUP1 PUSH4 0x8DA5CB5B EQ PUSH2 0x16B JUMPI DUP1 PUSH4 0xF2FDE38B EQ PUSH2 0x196 JUMPI PUSH2 0x86 JUMP JUMPDEST DUP1 PUSH4 0x6661ABD EQ PUSH2 0x8B JUMPI DUP1 PUSH4 0x3659CFE6 EQ PUSH2 0xB6 JUMPI DUP1 PUSH4 0x371303C0 EQ PUSH2 0xDF JUMPI DUP1 PUSH4 0x4F1EF286 EQ PUSH2 0xF6 JUMPI JUMPDEST PUSH1 0x0 DUP1 REVERT JUMPDEST CALLVALUE DUP1 ISZERO PUSH2 0x97 JUMPI PUSH1 0x0 DUP1 REVERT JUMPDEST POP PUSH2 0xA0 PUSH2 0x1BF JUMP JUMPDEST PUSH1 0x40 MLOAD PUSH2 0xAD SWAP2 SWAP1 PUSH2 0x136D JUMP JUMPDEST PUSH1 0x40 MLOAD DUP1 SWAP2 SUB SWAP1 RETURN JUMPDEST CALLVALUE DUP1 ISZERO PUSH2 0xC2 JUMPI PUSH1 0x0 DUP1 REVERT JUMPDEST POP PUSH2 0xDD PUSH1 0x4 DUP1 CALLDATASIZE SUB DUP2 ADD SWAP1 PUSH2 0xD8 SWAP2 SWAP1 PUSH2 0xEA6 JUMP JUMPDEST PUSH2 0x1C5 JUMP JUMPDEST STOP JUMPDEST CALLVALUE DUP1 ISZERO PUSH2 0xEB JUMPI PUSH1 0x0 DUP1 REVERT JUMPDEST POP PUSH2 0xF4 PUSH2 0x34E JUMP JUMPDEST STOP JUMPDEST PUSH2 0x110 PUSH1 0x4 DUP1 CALLDATASIZE SUB DUP2 ADD SWAP1 PUSH2 0x10B SWAP2 SWAP1 PUSH2 0xED3 JUMP JUMPDEST PUSH2 0x368 JUMP JUMPDEST STOP JUMPDEST CALLVALUE DUP1 ISZERO PUSH2 0x11E JUMPI PUSH1 0x0 DUP1 REVERT JUMPDEST POP PUSH2 0x127 PUSH2 0x4A5 JUMP JUMPDEST PUSH1 0x40 MLOAD PUSH2 0x134 SWAP2 SWAP1 PUSH2 0x11B5 JUMP JUMPDEST PUSH1 0x40 MLOAD DUP1 SWAP2 SUB SWAP1 RETURN JUMPDEST CALLVALUE DUP1 ISZERO PUSH2 0x149 JUMPI PUSH1 0x0 DUP1 REVERT JUMPDEST POP PUSH2 0x152 PUSH2 0x55E JUMP JUMPDEST STOP JUMPDEST CALLVALUE DUP1 ISZERO PUSH2 0x160 JUMPI PUSH1 0x0 DUP1 REVERT JUMPDEST POP PUSH2 0x169 PUSH2 0x572 JUMP JUMPDEST STOP JUMPDEST CALLVALUE DUP1 ISZERO PUSH2 0x177 JUMPI PUSH1 0x0 DUP1 REVERT JUMPDEST POP PUSH2 0x180 PUSH2 0x6B8 JUMP JUMPDEST PUSH1 0x40 MLOAD PUSH2 0x18D SWAP2 SWAP1 PUSH2 0x119A JUMP JUMPDEST PUSH1 0x40 MLOAD DUP1 SWAP2 SUB SWAP1 RETURN JUMPDEST CALLVALUE DUP1 ISZERO PUSH2 0x1A2 JUMPI PUSH1 0x0 DUP1 REVERT JUMPDEST POP PUSH2 0x1BD PUSH1 0x4 DUP1 CALLDATASIZE SUB DUP2 ADD SWAP1 PUSH2 0x1B8 SWAP2 SWAP1 PUSH2 0xEA6 JUMP JUMPDEST PUSH2 0x6E2 JUMP JUMPDEST STOP JUMPDEST PUSH1 0xC9 SLOAD DUP2 JUMP JUMPDEST PUSH32 0x0 PUSH20 0xFFFFFFFFFFFFFFFFFFFFFFFFFFFFFFFFFFFFFFFF AND ADDRESS PUSH20 0xFFFFFFFFFFFFFFFFFFFFFFFFFFFFFFFFFFFFFFFF AND EQ ISZERO PUSH2 0x254 JUMPI PUSH1 0x40 MLOAD PUSH32 0x8C379A000000000000000000000000000000000000000000000000000000000 DUP2 MSTORE PUSH1 0x4 ADD PUSH2 0x24B SWAP1 PUSH2 0x122D JUMP JUMPDEST PUSH1 0x40 MLOAD DUP1 SWAP2 SUB SWAP1 REVERT JUMPDEST PUSH32 0x0 PUSH20 0xFFFFFFFFFFFFFFFFFFFFFFFFFFFFFFFFFFFFFFFF AND PUSH2 0x293 PUSH2 0x766 JUMP JUMPDEST PUSH20 0xFFFFFFFFFFFFFFFFFFFFFFFFFFFFFFFFFFFFFFFF AND EQ PUSH2 0x2E9 JUMPI PUSH1 0x40 MLOAD PUSH32 0x8C379A000000000000000000000000000000000000000000000000000000000 DUP2 MSTORE PUSH1 0x4 ADD PUSH2 0x2E0 SWAP1 PUSH2 0x124D JUMP JUMPDEST PUSH1 0x40 MLOAD DUP1 SWAP2 SUB SWAP1 REVERT JUMPDEST PUSH2 0x2F2 DUP2 PUSH2 0x7BD JUMP JUMPDEST PUSH2 0x34B DUP2 PUSH1 0x0 PUSH8 0xFFFFFFFFFFFFFFFF DUP2 GT ISZERO PUSH2 0x311 JUMPI PUSH2 0x310 PUSH2 0x1560 JUMP JUMPDEST JUMPDEST PUSH1 0x40 MLOAD SWAP1 DUP1 DUP3 MSTORE DUP1 PUSH1 0x1F ADD PUSH1 0x1F NOT AND PUSH1 0x20 ADD DUP3 ADD PUSH1 0x40 MSTORE DUP1 ISZERO PUSH2 0x343 JUMPI DUP2 PUSH1 0x20 ADD PUSH1 0x1 DUP3 MUL DUP1 CALLDATASIZE DUP4 CALLDATACOPY DUP1 DUP3 ADD SWAP2 POP POP SWAP1 POP JUMPDEST POP PUSH1 0x0 PUSH2 0x7C8 JUMP JUMPDEST POP JUMP JUMPDEST PUSH1 0xC9 PUSH1 0x0 DUP2 SLOAD DUP1 SWAP3 SWAP2 SWAP1 PUSH2 0x361 SWAP1 PUSH2 0x14E8 JUMP JUMPDEST SWAP2 SWAP1 POP SSTORE POP JUMP JUMPDEST PUSH32 0x0 PUSH20 0xFFFFFFFFFFFFFFFFFFFFFFFFFFFFFFFFFFFFFFFF AND ADDRESS PUSH20 0xFFFFFFFFFFFFFFFFFFFFFFFFFFFFFFFFFFFFFFFF AND EQ ISZERO PUSH2 0x3F7 JUMPI PUSH1 0x40 MLOAD PUSH32 0x8C379A000000000000000000000000000000000000000000000000000000000 DUP2 MSTORE PUSH1 0x4 ADD PUSH2 0x3EE SWAP1 PUSH2 0x122D JUMP JUMPDEST PUSH1 0x40 MLOAD DUP1 SWAP2 SUB SWAP1 REVERT JUMPDEST PUSH32 0x0 PUSH20 0xFFFFFFFFFFFFFFFFFFFFFFFFFFFFFFFFFFFFFFFF AND PUSH2 0x436 PUSH2 0x766 JUMP JUMPDEST PUSH20 0xFFFFFFFFFFFFFFFFFFFFFFFFFFFFFFFFFFFFFFFF AND EQ PUSH2 0x48C JUMPI PUSH1 0x40 MLOAD PUSH32 0x8C379A000000000000000000000000000000000000000000000000000000000 DUP2 MSTORE PUSH1 0x4 ADD PUSH2 0x483 SWAP1 PUSH2 0x124D JUMP JUMPDEST PUSH1 0x40 MLOAD DUP1 SWAP2 SUB SWAP1 REVERT JUMPDEST PUSH2 0x495 DUP3 PUSH2 0x7BD JUMP JUMPDEST PUSH2 0x4A1 DUP3 DUP3 PUSH1 0x1 PUSH2 0x7C8 JUMP JUMPDEST POP POP JUMP JUMPDEST PUSH1 0x0 PUSH32 0x0 PUSH20 0xFFFFFFFFFFFFFFFFFFFFFFFFFFFFFFFFFFFFFFFF AND ADDRESS PUSH20 0xFFFFFFFFFFFFFFFFFFFFFFFFFFFFFFFFFFFFFFFF AND EQ PUSH2 0x535 JUMPI PUSH1 0x40 MLOAD PUSH32 0x8C379A000000000000000000000000000000000000000000000000000000000 DUP2 MSTORE PUSH1 0x4 ADD PUSH2 0x52C SWAP1 PUSH2 0x126D JUMP JUMPDEST PUSH1 0x40 MLOAD DUP1 SWAP2 SUB SWAP1 REVERT JUMPDEST PUSH32 0x360894A13BA1A3210667C828492DB98DCA3E2076CC3735A920A3CA505D382BBC PUSH1 0x0 SHL SWAP1 POP SWAP1 JUMP JUMPDEST PUSH2 0x566 PUSH2 0x945 JUMP JUMPDEST PUSH2 0x570 PUSH1 0x0 PUSH2 0x9C3 JUMP JUMPDEST JUMP JUMPDEST PUSH1 0x0 DUP1 PUSH1 0x1 SWAP1 SLOAD SWAP1 PUSH2 0x100 EXP SWAP1 DIV PUSH1 0xFF AND ISZERO SWAP1 POP DUP1 DUP1 ISZERO PUSH2 0x5A3 JUMPI POP PUSH1 0x1 PUSH1 0x0 DUP1 SLOAD SWAP1 PUSH2 0x100 EXP SWAP1 DIV PUSH1 0xFF AND PUSH1 0xFF AND LT JUMPDEST DUP1 PUSH2 0x5D0 JUMPI POP PUSH2 0x5B2 ADDRESS PUSH2 0xA89 JUMP JUMPDEST ISZERO DUP1 ISZERO PUSH2 0x5CF JUMPI POP PUSH1 0x1 PUSH1 0x0 DUP1 SLOAD SWAP1 PUSH2 0x100 EXP SWAP1 DIV PUSH1 0xFF AND PUSH1 0xFF AND EQ JUMPDEST JUMPDEST PUSH2 0x60F JUMPI PUSH1 0x40 MLOAD PUSH32 0x8C379A000000000000000000000000000000000000000000000000000000000 DUP2 MSTORE PUSH1 0x4 ADD PUSH2 0x606 SWAP1 PUSH2 0x12AD JUMP JUMPDEST PUSH1 0x40 MLOAD DUP1 SWAP2 SUB SWAP1 REVERT JUMPDEST PUSH1 0x1 PUSH1 0x0 DUP1 PUSH2 0x100 EXP DUP2 SLOAD DUP2 PUSH1 0xFF MUL NOT AND SWAP1 DUP4 PUSH1 0xFF AND MUL OR SWAP1 SSTORE POP DUP1 ISZERO PUSH2 0x64C JUMPI PUSH1 0x1 PUSH1 0x0 PUSH1 0x1 PUSH2 0x100 EXP DUP2 SLOAD DUP2 PUSH1 0xFF MUL NOT AND SWAP1 DUP4 ISZERO ISZERO MUL OR SWAP1 SSTORE POP JUMPDEST PUSH1 0xA PUSH1 0xC9 DUP2 SWAP1 SSTORE POP PUSH2 0x65C PUSH2 0xAAC JUMP JUMPDEST DUP1 ISZERO PUSH2 0x6B5 JUMPI PUSH1 0x0 DUP1 PUSH1 0x1 PUSH2 0x100 EXP DUP2 SLOAD DUP2 PUSH1 0xFF MUL NOT AND SWAP1 DUP4 ISZERO ISZERO MUL OR SWAP1 SSTORE POP PUSH32 0x7F26B83FF96E1F2B6A682F133852F6798A09C465DA95921460CEFB3847402498 PUSH1 0x1 PUSH1 0x40 MLOAD PUSH2 0x6AC SWAP2 SWAP1 PUSH2 0x11D0 JUMP JUMPDEST PUSH1 0x40 MLOAD DUP1 SWAP2 SUB SWAP1 LOG1 JUMPDEST POP JUMP JUMPDEST PUSH1 0x0 PUSH1 0x97 PUSH1 0x0 SWAP1 SLOAD SWAP1 PUSH2 0x100 EXP SWAP1 DIV PUSH20 0xFFFFFFFFFFFFFFFFFFFFFFFFFFFFFFFFFFFFFFFF AND SWAP1 POP SWAP1 JUMP JUMPDEST PUSH2 0x6EA PUSH2 0x945 JUMP JUMPDEST PUSH1 0x0 PUSH20 0xFFFFFFFFFFFFFFFFFFFFFFFFFFFFFFFFFFFFFFFF AND DUP2 PUSH20 0xFFFFFFFFFFFFFFFFFFFFFFFFFFFFFFFFFFFFFFFF AND EQ ISZERO PUSH2 0x75A JUMPI PUSH1 0x40 MLOAD PUSH32 0x8C379A000000000000000000000000000000000000000000000000000000000 DUP2 MSTORE PUSH1 0x4 ADD PUSH2 0x751 SWAP1 PUSH2 0x120D JUMP JUMPDEST PUSH1 0x40 MLOAD DUP1 SWAP2 SUB SWAP1 REVERT JUMPDEST PUSH2 0x763 DUP2 PUSH2 0x9C3 JUMP JUMPDEST POP JUMP JUMPDEST PUSH1 0x0 PUSH2 0x794 PUSH32 0x360894A13BA1A3210667C828492DB98DCA3E2076CC3735A920A3CA505D382BBC PUSH1 0x0 SHL PUSH2 0xB05 JUMP JUMPDEST PUSH1 0x0 ADD PUSH1 0x0 SWAP1 SLOAD SWAP1 PUSH2 0x100 EXP SWAP1 DIV PUSH20 0xFFFFFFFFFFFFFFFFFFFFFFFFFFFFFFFFFFFFFFFF AND SWAP1 POP SWAP1 JUMP JUMPDEST PUSH2 0x7C5 PUSH2 0x945 JUMP JUMPDEST POP JUMP JUMPDEST PUSH2 0x7F4 PUSH32 0x4910FDFA16FED3260ED0E7147F7CC6DA11A60208B5B9406D12A635614FFD9143 PUSH1 0x0 SHL PUSH2 0xB0F JUMP JUMPDEST PUSH1 0x0 ADD PUSH1 0x0 SWAP1 SLOAD SWAP1 PUSH2 0x100 EXP SWAP1 DIV PUSH1 0xFF AND ISZERO PUSH2 0x818 JUMPI PUSH2 0x813 DUP4 PUSH2 0xB19 JUMP JUMPDEST PUSH2 0x940 JUMP JUMPDEST DUP3 PUSH20 0xFFFFFFFFFFFFFFFFFFFFFFFFFFFFFFFFFFFFFFFF AND PUSH4 0x52D1902D PUSH1 0x40 MLOAD DUP2 PUSH4 0xFFFFFFFF AND PUSH1 0xE0 SHL DUP2 MSTORE PUSH1 0x4 ADD PUSH1 0x20 PUSH1 0x40 MLOAD DUP1 DUP4 SUB DUP2 DUP7 DUP1 EXTCODESIZE ISZERO DUP1 ISZERO PUSH2 0x85E JUMPI PUSH1 0x0 DUP1 REVERT JUMPDEST POP GAS STATICCALL SWAP3 POP POP POP DUP1 ISZERO PUSH2 0x88F JUMPI POP PUSH1 0x40 MLOAD RETURNDATASIZE PUSH1 0x1F NOT PUSH1 0x1F DUP3 ADD AND DUP3 ADD DUP1 PUSH1 0x40 MSTORE POP DUP2 ADD SWAP1 PUSH2 0x88C SWAP2 SWAP1 PUSH2 0xF2F JUMP JUMPDEST PUSH1 0x1 JUMPDEST PUSH2 0x8CE JUMPI PUSH1 0x40 MLOAD PUSH32 0x8C379A000000000000000000000000000000000000000000000000000000000 DUP2 MSTORE PUSH1 0x4 ADD PUSH2 0x8C5 SWAP1 PUSH2 0x12CD JUMP JUMPDEST PUSH1 0x40 MLOAD DUP1 SWAP2 SUB SWAP1 REVERT JUMPDEST PUSH32 0x360894A13BA1A3210667C828492DB98DCA3E2076CC3735A920A3CA505D382BBC PUSH1 0x0 SHL DUP2 EQ PUSH2 0x933 JUMPI PUSH1 0x40 MLOAD PUSH32 0x8C379A000000000000000000000000000000000000000000000000000000000 DUP2 MSTORE PUSH1 0x4 ADD PUSH2 0x92A SWAP1 PUSH2 0x128D JUMP JUMPDEST PUSH1 0x40 MLOAD DUP1 SWAP2 SUB SWAP1 REVERT JUMPDEST POP PUSH2 0x93F DUP4 DUP4 DUP4 PUSH2 0xBD2 JUMP JUMPDEST JUMPDEST POP POP POP JUMP JUMPDEST PUSH2 0x94D PUSH2 0xBFE JUMP JUMPDEST PUSH20 0xFFFFFFFFFFFFFFFFFFFFFFFFFFFFFFFFFFFFFFFF AND PUSH2 0x96B PUSH2 0x6B8 JUMP JUMPDEST PUSH20 0xFFFFFFFFFFFFFFFFFFFFFFFFFFFFFFFFFFFFFFFF AND EQ PUSH2 0x9C1 JUMPI PUSH1 0x40 MLOAD PUSH32 0x8C379A000000000000000000000000000000000000000000000000000000000 DUP2 MSTORE PUSH1 0x4 ADD PUSH2 0x9B8 SWAP1 PUSH2 0x130D JUMP JUMPDEST PUSH1 0x40 MLOAD DUP1 SWAP2 SUB SWAP1 REVERT JUMPDEST JUMP JUMPDEST PUSH1 0x0 PUSH1 0x97 PUSH1 0x0 SWAP1 SLOAD SWAP1 PUSH2 0x100 EXP SWAP1 DIV PUSH20 0xFFFFFFFFFFFFFFFFFFFFFFFFFFFFFFFFFFFFFFFF AND SWAP1 POP DUP2 PUSH1 0x97 PUSH1 0x0 PUSH2 0x100 EXP DUP2 SLOAD DUP2 PUSH20 0xFFFFFFFFFFFFFFFFFFFFFFFFFFFFFFFFFFFFFFFF MUL NOT AND SWAP1 DUP4 PUSH20 0xFFFFFFFFFFFFFFFFFFFFFFFFFFFFFFFFFFFFFFFF AND MUL OR SWAP1 SSTORE POP DUP2 PUSH20 0xFFFFFFFFFFFFFFFFFFFFFFFFFFFFFFFFFFFFFFFF AND DUP2 PUSH20 0xFFFFFFFFFFFFFFFFFFFFFFFFFFFFFFFFFFFFFFFF AND PUSH32 0x8BE0079C531659141344CD1FD0A4F28419497F9722A3DAAFE3B4186F6B6457E0 PUSH1 0x40 MLOAD PUSH1 0x40 MLOAD DUP1 SWAP2 SUB SWAP1 LOG3 POP POP JUMP JUMPDEST PUSH1 0x0 DUP1 DUP3 PUSH20 0xFFFFFFFFFFFFFFFFFFFFFFFFFFFFFFFFFFFFFFFF AND EXTCODESIZE GT SWAP1 POP SWAP2 SWAP1 POP JUMP JUMPDEST PUSH1 0x0 PUSH1 0x1 SWAP1 SLOAD SWAP1 PUSH2 0x100 EXP SWAP1 DIV PUSH1 0xFF AND PUSH2 0xAFB JUMPI PUSH1 0x40 MLOAD PUSH32 0x8C379A000000000000000000000000000000000000000000000000000000000 DUP2 MSTORE PUSH1 0x4 ADD PUSH2 0xAF2 SWAP1 PUSH2 0x134D JUMP JUMPDEST PUSH1 0x40 MLOAD DUP1 SWAP2 SUB SWAP1 REVERT JUMPDEST PUSH2 0xB03 PUSH2 0xC06 JUMP JUMPDEST JUMP JUMPDEST PUSH1 0x0 DUP2 SWAP1 POP SWAP2 SWAP1 POP JUMP JUMPDEST PUSH1 0x0 DUP2 SWAP1 POP SWAP2 SWAP1 POP JUMP JUMPDEST PUSH2 0xB22 DUP2 PUSH2 0xA89 JUMP JUMPDEST PUSH2 0xB61 JUMPI PUSH1 0x40 MLOAD PUSH32 0x8C379A000000000000000000000000000000000000000000000000000000000 DUP2 MSTORE PUSH1 0x4 ADD PUSH2 0xB58 SWAP1 PUSH2 0x12ED JUMP JUMPDEST PUSH1 0x40 MLOAD DUP1 SWAP2 SUB SWAP1 REVERT JUMPDEST DUP1 PUSH2 0xB8E PUSH32 0x360894A13BA1A3210667C828492DB98DCA3E2076CC3735A920A3CA505D382BBC PUSH1 0x0 SHL PUSH2 0xB05 JUMP JUMPDEST PUSH1 0x0 ADD PUSH1 0x0 PUSH2 0x100 EXP DUP2 SLOAD DUP2 PUSH20 0xFFFFFFFFFFFFFFFFFFFFFFFFFFFFFFFFFFFFFFFF MUL NOT AND SWAP1 DUP4 PUSH20 0xFFFFFFFFFFFFFFFFFFFFFFFFFFFFFFFFFFFFFFFF AND MUL OR SWAP1 SSTORE POP POP JUMP JUMPDEST PUSH2 0xBDB DUP4 PUSH2 0xC67 JUMP JUMPDEST PUSH1 0x0 DUP3 MLOAD GT DUP1 PUSH2 0xBE8 JUMPI POP DUP1 JUMPDEST ISZERO PUSH2 0xBF9 JUMPI PUSH2 0xBF7 DUP4 DUP4 PUSH2 0xCB6 JUMP JUMPDEST POP JUMPDEST POP POP POP JUMP JUMPDEST PUSH1 0x0 CALLER SWAP1 POP SWAP1 JUMP JUMPDEST PUSH1 0x0 PUSH1 0x1 SWAP1 SLOAD SWAP1 PUSH2 0x100 EXP SWAP1 DIV PUSH1 0xFF AND PUSH2 0xC55 JUMPI PUSH1 0x40 MLOAD PUSH32 0x8C379A000000000000000000000000000000000000000000000000000000000 DUP2 MSTORE PUSH1 0x4 ADD PUSH2 0xC4C SWAP1 PUSH2 0x134D JUMP JUMPDEST PUSH1 0x40 MLOAD DUP1 SWAP2 SUB SWAP1 REVERT JUMPDEST PUSH2 0xC65 PUSH2 0xC60 PUSH2 0xBFE JUMP JUMPDEST PUSH2 0x9C3 JUMP JUMPDEST JUMP JUMPDEST PUSH2 0xC70 DUP2 PUSH2 0xB19 JUMP JUMPDEST DUP1 PUSH20 0xFFFFFFFFFFFFFFFFFFFFFFFFFFFFFFFFFFFFFFFF AND PUSH32 0xBC7CD75A20EE27FD9ADEBAB32041F755214DBC6BFFA90CC0225B39DA2E5C2D3B PUSH1 0x40 MLOAD PUSH1 0x40 MLOAD DUP1 SWAP2 SUB SWAP1 LOG2 POP JUMP JUMPDEST PUSH1 0x60 PUSH2 0xCC1 DUP4 PUSH2 0xA89 JUMP JUMPDEST PUSH2 0xD00 JUMPI PUSH1 0x40 MLOAD PUSH32 0x8C379A000000000000000000000000000000000000000000000000000000000 DUP2 MSTORE PUSH1 0x4 ADD PUSH2 0xCF7 SWAP1 PUSH2 0x132D JUMP JUMPDEST PUSH1 0x40 MLOAD DUP1 SWAP2 SUB SWAP1 REVERT JUMPDEST PUSH1 0x0 DUP1 DUP5 PUSH20 0xFFFFFFFFFFFFFFFFFFFFFFFFFFFFFFFFFFFFFFFF AND DUP5 PUSH1 0x40 MLOAD PUSH2 0xD28 SWAP2 SWAP1 PUSH2 0x1183 JUMP JUMPDEST PUSH1 0x0 PUSH1 0x40 MLOAD DUP1 DUP4 SUB DUP2 DUP6 GAS DELEGATECALL SWAP2 POP POP RETURNDATASIZE DUP1 PUSH1 0x0 DUP2 EQ PUSH2 0xD63 JUMPI PUSH1 0x40 MLOAD SWAP2 POP PUSH1 0x1F NOT PUSH1 0x3F RETURNDATASIZE ADD AND DUP3 ADD PUSH1 0x40 MSTORE RETURNDATASIZE DUP3 MSTORE RETURNDATASIZE PUSH1 0x0 PUSH1 0x20 DUP5 ADD RETURNDATACOPY PUSH2 0xD68 JUMP JUMPDEST PUSH1 0x60 SWAP2 POP JUMPDEST POP SWAP2 POP SWAP2 POP PUSH2 0xD90 DUP3 DUP3 PUSH1 0x40 MLOAD DUP1 PUSH1 0x60 ADD PUSH1 0x40 MSTORE DUP1 PUSH1 0x27 DUP2 MSTORE PUSH1 0x20 ADD PUSH2 0x1922 PUSH1 0x27 SWAP2 CODECOPY PUSH2 0xD9A JUMP JUMPDEST SWAP3 POP POP POP SWAP3 SWAP2 POP POP JUMP JUMPDEST PUSH1 0x60 DUP4 ISZERO PUSH2 0xDAA JUMPI DUP3 SWAP1 POP PUSH2 0xDB5 JUMP JUMPDEST PUSH2 0xDB4 DUP4 DUP4 PUSH2 0xDBC JUMP JUMPDEST JUMPDEST SWAP4 SWAP3 POP POP POP JUMP JUMPDEST PUSH1 0x0 DUP3 MLOAD GT ISZERO PUSH2 0xDCF JUMPI DUP2 MLOAD DUP1 DUP4 PUSH1 0x20 ADD REVERT JUMPDEST DUP1 PUSH1 0x40 MLOAD PUSH32 0x8C379A000000000000000000000000000000000000000000000000000000000 DUP2 MSTORE PUSH1 0x4 ADD PUSH2 0xE03 SWAP2 SWAP1 PUSH2 0x11EB JUMP JUMPDEST PUSH1 0x40 MLOAD DUP1 SWAP2 SUB SWAP1 REVERT JUMPDEST PUSH1 0x0 PUSH2 0xE1F PUSH2 0xE1A DUP5 PUSH2 0x13AD JUMP JUMPDEST PUSH2 0x1388 JUMP JUMPDEST SWAP1 POP DUP3 DUP2 MSTORE PUSH1 0x20 DUP2 ADD DUP5 DUP5 DUP5 ADD GT ISZERO PUSH2 0xE3B JUMPI PUSH2 0xE3A PUSH2 0x1594 JUMP JUMPDEST JUMPDEST PUSH2 0xE46 DUP5 DUP3 DUP6 PUSH2 0x1475 JUMP JUMPDEST POP SWAP4 SWAP3 POP POP POP JUMP JUMPDEST PUSH1 0x0 DUP2 CALLDATALOAD SWAP1 POP PUSH2 0xE5D DUP2 PUSH2 0x18F3 JUMP JUMPDEST SWAP3 SWAP2 POP POP JUMP JUMPDEST PUSH1 0x0 DUP2 MLOAD SWAP1 POP PUSH2 0xE72 DUP2 PUSH2 0x190A JUMP JUMPDEST SWAP3 SWAP2 POP POP JUMP JUMPDEST PUSH1 0x0 DUP3 PUSH1 0x1F DUP4 ADD SLT PUSH2 0xE8D JUMPI PUSH2 0xE8C PUSH2 0x158F JUMP JUMPDEST JUMPDEST DUP2 CALLDATALOAD PUSH2 0xE9D DUP5 DUP3 PUSH1 0x20 DUP7 ADD PUSH2 0xE0C JUMP JUMPDEST SWAP2 POP POP SWAP3 SWAP2 POP POP JUMP JUMPDEST PUSH1 0x0 PUSH1 0x20 DUP3 DUP5 SUB SLT ISZERO PUSH2 0xEBC JUMPI PUSH2 0xEBB PUSH2 0x159E JUMP JUMPDEST JUMPDEST PUSH1 0x0 PUSH2 0xECA DUP5 DUP3 DUP6 ADD PUSH2 0xE4E JUMP JUMPDEST SWAP2 POP POP SWAP3 SWAP2 POP POP JUMP JUMPDEST PUSH1 0x0 DUP1 PUSH1 0x40 DUP4 DUP6 SUB SLT ISZERO PUSH2 0xEEA JUMPI PUSH2 0xEE9 PUSH2 0x159E JUMP JUMPDEST JUMPDEST PUSH1 0x0 PUSH2 0xEF8 DUP6 DUP3 DUP7 ADD PUSH2 0xE4E JUMP JUMPDEST SWAP3 POP POP PUSH1 0x20 DUP4 ADD CALLDATALOAD PUSH8 0xFFFFFFFFFFFFFFFF DUP2 GT ISZERO PUSH2 0xF19 JUMPI PUSH2 0xF18 PUSH2 0x1599 JUMP JUMPDEST JUMPDEST PUSH2 0xF25 DUP6 DUP3 DUP7 ADD PUSH2 0xE78 JUMP JUMPDEST SWAP2 POP POP SWAP3 POP SWAP3 SWAP1 POP JUMP JUMPDEST PUSH1 0x0 PUSH1 0x20 DUP3 DUP5 SUB SLT ISZERO PUSH2 0xF45 JUMPI PUSH2 0xF44 PUSH2 0x159E JUMP JUMPDEST JUMPDEST PUSH1 0x0 PUSH2 0xF53 DUP5 DUP3 DUP6 ADD PUSH2 0xE63 JUMP JUMPDEST SWAP2 POP POP SWAP3 SWAP2 POP POP JUMP JUMPDEST PUSH2 0xF65 DUP2 PUSH2 0x1410 JUMP JUMPDEST DUP3 MSTORE POP POP JUMP JUMPDEST PUSH2 0xF74 DUP2 PUSH2 0x1422 JUMP JUMPDEST DUP3 MSTORE POP POP JUMP JUMPDEST PUSH1 0x0 PUSH2 0xF85 DUP3 PUSH2 0x13DE JUMP JUMPDEST PUSH2 0xF8F DUP2 DUP6 PUSH2 0x13F4 JUMP JUMPDEST SWAP4 POP PUSH2 0xF9F DUP2 DUP6 PUSH1 0x20 DUP7 ADD PUSH2 0x1484 JUMP JUMPDEST DUP1 DUP5 ADD SWAP2 POP POP SWAP3 SWAP2 POP POP JUMP JUMPDEST PUSH2 0xFB4 DUP2 PUSH2 0x1463 JUMP JUMPDEST DUP3 MSTORE POP POP JUMP JUMPDEST PUSH1 0x0 PUSH2 0xFC5 DUP3 PUSH2 0x13E9 JUMP JUMPDEST PUSH2 0xFCF DUP2 DUP6 PUSH2 0x13FF JUMP JUMPDEST SWAP4 POP PUSH2 0xFDF DUP2 DUP6 PUSH1 0x20 DUP7 ADD PUSH2 0x1484 JUMP JUMPDEST PUSH2 0xFE8 DUP2 PUSH2 0x15A3 JUMP JUMPDEST DUP5 ADD SWAP2 POP POP SWAP3 SWAP2 POP POP JUMP JUMPDEST PUSH1 0x0 PUSH2 0x1000 PUSH1 0x26 DUP4 PUSH2 0x13FF JUMP JUMPDEST SWAP2 POP PUSH2 0x100B DUP3 PUSH2 0x15B4 JUMP JUMPDEST PUSH1 0x40 DUP3 ADD SWAP1 POP SWAP2 SWAP1 POP JUMP JUMPDEST PUSH1 0x0 PUSH2 0x1023 PUSH1 0x2C DUP4 PUSH2 0x13FF JUMP JUMPDEST SWAP2 POP PUSH2 0x102E DUP3 PUSH2 0x1603 JUMP JUMPDEST PUSH1 0x40 DUP3 ADD SWAP1 POP SWAP2 SWAP1 POP JUMP JUMPDEST PUSH1 0x0 PUSH2 0x1046 PUSH1 0x2C DUP4 PUSH2 0x13FF JUMP JUMPDEST SWAP2 POP PUSH2 0x1051 DUP3 PUSH2 0x1652 JUMP JUMPDEST PUSH1 0x40 DUP3 ADD SWAP1 POP SWAP2 SWAP1 POP JUMP JUMPDEST PUSH1 0x0 PUSH2 0x1069 PUSH1 0x38 DUP4 PUSH2 0x13FF JUMP JUMPDEST SWAP2 POP PUSH2 0x1074 DUP3 PUSH2 0x16A1 JUMP JUMPDEST PUSH1 0x40 DUP3 ADD SWAP1 POP SWAP2 SWAP1 POP JUMP JUMPDEST PUSH1 0x0 PUSH2 0x108C PUSH1 0x29 DUP4 PUSH2 0x13FF JUMP JUMPDEST SWAP2 POP PUSH2 0x1097 DUP3 PUSH2 0x16F0 JUMP JUMPDEST PUSH1 0x40 DUP3 ADD SWAP1 POP SWAP2 SWAP1 POP JUMP JUMPDEST PUSH1 0x0 PUSH2 0x10AF PUSH1 0x2E DUP4 PUSH2 0x13FF JUMP JUMPDEST SWAP2 POP PUSH2 0x10BA DUP3 PUSH2 0x173F JUMP JUMPDEST PUSH1 0x40 DUP3 ADD SWAP1 POP SWAP2 SWAP1 POP JUMP JUMPDEST PUSH1 0x0 PUSH2 0x10D2 PUSH1 0x2E DUP4 PUSH2 0x13FF JUMP JUMPDEST SWAP2 POP PUSH2 0x10DD DUP3 PUSH2 0x178E JUMP JUMPDEST PUSH1 0x40 DUP3 ADD SWAP1 POP SWAP2 SWAP1 POP JUMP JUMPDEST PUSH1 0x0 PUSH2 0x10F5 PUSH1 0x2D DUP4 PUSH2 0x13FF JUMP JUMPDEST SWAP2 POP PUSH2 0x1100 DUP3 PUSH2 0x17DD JUMP JUMPDEST PUSH1 0x40 DUP3 ADD SWAP1 POP SWAP2 SWAP1 POP JUMP JUMPDEST PUSH1 0x0 PUSH2 0x1118 PUSH1 0x20 DUP4 PUSH2 0x13FF JUMP JUMPDEST SWAP2 POP PUSH2 0x1123 DUP3 PUSH2 0x182C JUMP JUMPDEST PUSH1 0x20 DUP3 ADD SWAP1 POP SWAP2 SWAP1 POP JUMP JUMPDEST PUSH1 0x0 PUSH2 0x113B PUSH1 0x26 DUP4 PUSH2 0x13FF JUMP JUMPDEST SWAP2 POP PUSH2 0x1146 DUP3 PUSH2 0x1855 JUMP JUMPDEST PUSH1 0x40 DUP3 ADD SWAP1 POP SWAP2 SWAP1 POP JUMP JUMPDEST PUSH1 0x0 PUSH2 0x115E PUSH1 0x2B DUP4 PUSH2 0x13FF JUMP JUMPDEST SWAP2 POP PUSH2 0x1169 DUP3 PUSH2 0x18A4 JUMP JUMPDEST PUSH1 0x40 DUP3 ADD SWAP1 POP SWAP2 SWAP1 POP JUMP JUMPDEST PUSH2 0x117D DUP2 PUSH2 0x144C JUMP JUMPDEST DUP3 MSTORE POP POP JUMP JUMPDEST PUSH1 0x0 PUSH2 0x118F DUP3 DUP5 PUSH2 0xF7A JUMP JUMPDEST SWAP2 POP DUP2 SWAP1 POP SWAP3 SWAP2 POP POP JUMP JUMPDEST PUSH1 0x0 PUSH1 0x20 DUP3 ADD SWAP1 POP PUSH2 0x11AF PUSH1 0x0 DUP4 ADD DUP5 PUSH2 0xF5C JUMP JUMPDEST SWAP3 SWAP2 POP POP JUMP JUMPDEST PUSH1 0x0 PUSH1 0x20 DUP3 ADD SWAP1 POP PUSH2 0x11CA PUSH1 0x0 DUP4 ADD DUP5 PUSH2 0xF6B JUMP JUMPDEST SWAP3 SWAP2 POP POP JUMP JUMPDEST PUSH1 0x0 PUSH1 0x20 DUP3 ADD SWAP1 POP PUSH2 0x11E5 PUSH1 0x0 DUP4 ADD DUP5 PUSH2 0xFAB JUMP JUMPDEST SWAP3 SWAP2 POP POP JUMP JUMPDEST PUSH1 0x0 PUSH1 0x20 DUP3 ADD SWAP1 POP DUP2 DUP2 SUB PUSH1 0x0 DUP4 ADD MSTORE PUSH2 0x1205 DUP2 DUP5 PUSH2 0xFBA JUMP JUMPDEST SWAP1 POP SWAP3 SWAP2 POP POP JUMP JUMPDEST PUSH1 0x0 PUSH1 0x20 DUP3 ADD SWAP1 POP DUP2 DUP2 SUB PUSH1 0x0 DUP4 ADD MSTORE PUSH2 0x1226 DUP2 PUSH2 0xFF3 JUMP JUMPDEST SWAP1 POP SWAP2 SWAP1 POP JUMP JUMPDEST PUSH1 0x0 PUSH1 0x20 DUP3 ADD SWAP1 POP DUP2 DUP2 SUB PUSH1 0x0 DUP4 ADD MSTORE PUSH2 0x1246 DUP2 PUSH2 0x1016 JUMP JUMPDEST SWAP1 POP SWAP2 SWAP1 POP JUMP JUMPDEST PUSH1 0x0 PUSH1 0x20 DUP3 ADD SWAP1 POP DUP2 DUP2 SUB PUSH1 0x0 DUP4 ADD MSTORE PUSH2 0x1266 DUP2 PUSH2 0x1039 JUMP JUMPDEST SWAP1 POP SWAP2 SWAP1 POP JUMP JUMPDEST PUSH1 0x0 PUSH1 0x20 DUP3 ADD SWAP1 POP DUP2 DUP2 SUB PUSH1 0x0 DUP4 ADD MSTORE PUSH2 0x1286 DUP2 PUSH2 0x105C JUMP JUMPDEST SWAP1 POP SWAP2 SWAP1 POP JUMP JUMPDEST PUSH1 0x0 PUSH1 0x20 DUP3 ADD SWAP1 POP DUP2 DUP2 SUB PUSH1 0x0 DUP4 ADD MSTORE PUSH2 0x12A6 DUP2 PUSH2 0x107F JUMP JUMPDEST SWAP1 POP SWAP2 SWAP1 POP JUMP JUMPDEST PUSH1 0x0 PUSH1 0x20 DUP3 ADD SWAP1 POP DUP2 DUP2 SUB PUSH1 0x0 DUP4 ADD MSTORE PUSH2 0x12C6 DUP2 PUSH2 0x10A2 JUMP JUMPDEST SWAP1 POP SWAP2 SWAP1 POP JUMP JUMPDEST PUSH1 0x0 PUSH1 0x20 DUP3 ADD SWAP1 POP DUP2 DUP2 SUB PUSH1 0x0 DUP4 ADD MSTORE PUSH2 0x12E6 DUP2 PUSH2 0x10C5 JUMP JUMPDEST SWAP1 POP SWAP2 SWAP1 POP JUMP JUMPDEST PUSH1 0x0 PUSH1 0x20 DUP3 ADD SWAP1 POP DUP2 DUP2 SUB PUSH1 0x0 DUP4 ADD MSTORE PUSH2 0x1306 DUP2 PUSH2 0x10E8 JUMP JUMPDEST SWAP1 POP SWAP2 SWAP1 POP JUMP JUMPDEST PUSH1 0x0 PUSH1 0x20 DUP3 ADD SWAP1 POP DUP2 DUP2 SUB PUSH1 0x0 DUP4 ADD MSTORE PUSH2 0x1326 DUP2 PUSH2 0x110B JUMP JUMPDEST SWAP1 POP SWAP2 SWAP1 POP JUMP JUMPDEST PUSH1 0x0 PUSH1 0x20 DUP3 ADD SWAP1 POP DUP2 DUP2 SUB PUSH1 0x0 DUP4 ADD MSTORE PUSH2 0x1346 DUP2 PUSH2 0x112E JUMP JUMPDEST SWAP1 POP SWAP2 SWAP1 POP JUMP JUMPDEST PUSH1 0x0 PUSH1 0x20 DUP3 ADD SWAP1 POP DUP2 DUP2 SUB PUSH1 0x0 DUP4 ADD MSTORE PUSH2 0x1366 DUP2 PUSH2 0x1151 JUMP JUMPDEST SWAP1 POP SWAP2 SWAP1 POP JUMP JUMPDEST PUSH1 0x0 PUSH1 0x20 DUP3 ADD SWAP1 POP PUSH2 0x1382 PUSH1 0x0 DUP4 ADD DUP5 PUSH2 0x1174 JUMP JUMPDEST SWAP3 SWAP2 POP POP JUMP JUMPDEST PUSH1 0x0 PUSH2 0x1392 PUSH2 0x13A3 JUMP JUMPDEST SWAP1 POP PUSH2 0x139E DUP3 DUP3 PUSH2 0x14B7 JUMP JUMPDEST SWAP2 SWAP1 POP JUMP JUMPDEST PUSH1 0x0 PUSH1 0x40 MLOAD SWAP1 POP SWAP1 JUMP JUMPDEST PUSH1 0x0 PUSH8 0xFFFFFFFFFFFFFFFF DUP3 GT ISZERO PUSH2 0x13C8 JUMPI PUSH2 0x13C7 PUSH2 0x1560 JUMP JUMPDEST JUMPDEST PUSH2 0x13D1 DUP3 PUSH2 0x15A3 JUMP JUMPDEST SWAP1 POP PUSH1 0x20 DUP2 ADD SWAP1 POP SWAP2 SWAP1 POP JUMP JUMPDEST PUSH1 0x0 DUP2 MLOAD SWAP1 POP SWAP2 SWAP1 POP JUMP JUMPDEST PUSH1 0x0 DUP2 MLOAD SWAP1 POP SWAP2 SWAP1 POP JUMP JUMPDEST PUSH1 0x0 DUP2 SWAP1 POP SWAP3 SWAP2 POP POP JUMP JUMPDEST PUSH1 0x0 DUP3 DUP3 MSTORE PUSH1 0x20 DUP3 ADD SWAP1 POP SWAP3 SWAP2 POP POP JUMP JUMPDEST PUSH1 0x0 PUSH2 0x141B DUP3 PUSH2 0x142C JUMP JUMPDEST SWAP1 POP SWAP2 SWAP1 POP JUMP JUMPDEST PUSH1 0x0 DUP2 SWAP1 POP SWAP2 SWAP1 POP JUMP JUMPDEST PUSH1 0x0 PUSH20 0xFFFFFFFFFFFFFFFFFFFFFFFFFFFFFFFFFFFFFFFF DUP3 AND SWAP1 POP SWAP2 SWAP1 POP JUMP JUMPDEST PUSH1 0x0 DUP2 SWAP1 POP SWAP2 SWAP1 POP JUMP JUMPDEST PUSH1 0x0 PUSH1 0xFF DUP3 AND SWAP1 POP SWAP2 SWAP1 POP JUMP JUMPDEST PUSH1 0x0 PUSH2 0x146E DUP3 PUSH2 0x1456 JUMP JUMPDEST SWAP1 POP SWAP2 SWAP1 POP JUMP JUMPDEST DUP3 DUP2 DUP4 CALLDATACOPY PUSH1 0x0 DUP4 DUP4 ADD MSTORE POP POP POP JUMP JUMPDEST PUSH1 0x0 JUMPDEST DUP4 DUP2 LT ISZERO PUSH2 0x14A2 JUMPI DUP1 DUP3 ADD MLOAD DUP2 DUP5 ADD MSTORE PUSH1 0x20 DUP2 ADD SWAP1 POP PUSH2 0x1487 JUMP JUMPDEST DUP4 DUP2 GT ISZERO PUSH2 0x14B1 JUMPI PUSH1 0x0 DUP5 DUP5 ADD MSTORE JUMPDEST POP POP POP POP JUMP JUMPDEST PUSH2 0x14C0 DUP3 PUSH2 0x15A3 JUMP JUMPDEST DUP2 ADD DUP2 DUP2 LT PUSH8 0xFFFFFFFFFFFFFFFF DUP3 GT OR ISZERO PUSH2 0x14DF JUMPI PUSH2 0x14DE PUSH2 0x1560 JUMP JUMPDEST JUMPDEST DUP1 PUSH1 0x40 MSTORE POP POP POP JUMP JUMPDEST PUSH1 0x0 PUSH2 0x14F3 DUP3 PUSH2 0x144C JUMP JUMPDEST SWAP2 POP PUSH32 0xFFFFFFFFFFFFFFFFFFFFFFFFFFFFFFFFFFFFFFFFFFFFFFFFFFFFFFFFFFFFFFFF DUP3 EQ ISZERO PUSH2 0x1526 JUMPI PUSH2 0x1525 PUSH2 0x1531 JUMP JUMPDEST JUMPDEST PUSH1 0x1 DUP3 ADD SWAP1 POP SWAP2 SWAP1 POP JUMP JUMPDEST PUSH32 0x4E487B7100000000000000000000000000000000000000000000000000000000 PUSH1 0x0 MSTORE PUSH1 0x11 PUSH1 0x4 MSTORE PUSH1 0x24 PUSH1 0x0 REVERT JUMPDEST PUSH32 0x4E487B7100000000000000000000000000000000000000000000000000000000 PUSH1 0x0 MSTORE PUSH1 0x41 PUSH1 0x4 MSTORE PUSH1 0x24 PUSH1 0x0 REVERT JUMPDEST PUSH1 0x0 DUP1 REVERT JUMPDEST PUSH1 0x0 DUP1 REVERT JUMPDEST PUSH1 0x0 DUP1 REVERT JUMPDEST PUSH1 0x0 DUP1 REVERT JUMPDEST PUSH1 0x0 PUSH1 0x1F NOT PUSH1 0x1F DUP4 ADD AND SWAP1 POP SWAP2 SWAP1 POP JUMP JUMPDEST PUSH32 0x4F776E61626C653A206E6577206F776E657220697320746865207A65726F2061 PUSH1 0x0 DUP3 ADD MSTORE PUSH32 0x6464726573730000000000000000000000000000000000000000000000000000 PUSH1 0x20 DUP3 ADD MSTORE POP JUMP JUMPDEST PUSH32 0x46756E6374696F6E206D7573742062652063616C6C6564207468726F75676820 PUSH1 0x0 DUP3 ADD MSTORE PUSH32 0x64656C656761746563616C6C0000000000000000000000000000000000000000 PUSH1 0x20 DUP3 ADD MSTORE POP JUMP JUMPDEST PUSH32 0x46756E6374696F6E206D7573742062652063616C6C6564207468726F75676820 PUSH1 0x0 DUP3 ADD MSTORE PUSH32 0x6163746976652070726F78790000000000000000000000000000000000000000 PUSH1 0x20 DUP3 ADD MSTORE POP JUMP JUMPDEST PUSH32 0x555550535570677261646561626C653A206D757374206E6F742062652063616C PUSH1 0x0 DUP3 ADD MSTORE PUSH32 0x6C6564207468726F7567682064656C656761746563616C6C0000000000000000 PUSH1 0x20 DUP3 ADD MSTORE POP JUMP JUMPDEST PUSH32 0x45524331393637557067726164653A20756E737570706F727465642070726F78 PUSH1 0x0 DUP3 ADD MSTORE PUSH32 0x6961626C65555549440000000000000000000000000000000000000000000000 PUSH1 0x20 DUP3 ADD MSTORE POP JUMP JUMPDEST PUSH32 0x496E697469616C697A61626C653A20636F6E747261637420697320616C726561 PUSH1 0x0 DUP3 ADD MSTORE PUSH32 0x647920696E697469616C697A6564000000000000000000000000000000000000 PUSH1 0x20 DUP3 ADD MSTORE POP JUMP JUMPDEST PUSH32 0x45524331393637557067726164653A206E657720696D706C656D656E74617469 PUSH1 0x0 DUP3 ADD MSTORE PUSH32 0x6F6E206973206E6F742055555053000000000000000000000000000000000000 PUSH1 0x20 DUP3 ADD MSTORE POP JUMP JUMPDEST PUSH32 0x455243313936373A206E657720696D706C656D656E746174696F6E206973206E PUSH1 0x0 DUP3 ADD MSTORE PUSH32 0x6F74206120636F6E747261637400000000000000000000000000000000000000 PUSH1 0x20 DUP3 ADD MSTORE POP JUMP JUMPDEST PUSH32 0x4F776E61626C653A2063616C6C6572206973206E6F7420746865206F776E6572 PUSH1 0x0 DUP3 ADD MSTORE POP JUMP JUMPDEST PUSH32 0x416464726573733A2064656C65676174652063616C6C20746F206E6F6E2D636F PUSH1 0x0 DUP3 ADD MSTORE PUSH32 0x6E74726163740000000000000000000000000000000000000000000000000000 PUSH1 0x20 DUP3 ADD MSTORE POP JUMP JUMPDEST PUSH32 0x496E697469616C697A61626C653A20636F6E7472616374206973206E6F742069 PUSH1 0x0 DUP3 ADD MSTORE PUSH32 0x6E697469616C697A696E67000000000000000000000000000000000000000000 PUSH1 0x20 DUP3 ADD MSTORE POP JUMP JUMPDEST PUSH2 0x18FC DUP2 PUSH2 0x1410 JUMP JUMPDEST DUP2 EQ PUSH2 0x1907 JUMPI PUSH1 0x0 DUP1 REVERT JUMPDEST POP JUMP JUMPDEST PUSH2 0x1913 DUP2 PUSH2 0x1422 JUMP JUMPDEST DUP2 EQ PUSH2 0x191E JUMPI PUSH1 0x0 DUP1 REVERT JUMPDEST POP JUMP INVALID COINBASE PUSH5 0x6472657373 GASPRICE KECCAK256 PUSH13 0x6F772D6C6576656C2064656C65 PUSH8 0x6174652063616C6C KECCAK256 PUSH7 0x61696C6564A264 PUSH10 0x70667358221220981298 0x22 SHR EQ MOD 0xD5 0xAB PUSH32 0x5DE89CDA9D623F062EB3F7D6AF93C8B79C7C152C6B4364736F6C634300080700 CALLER "
				},
				"gasEstimates": {
					"creation": {
						"codeDepositCost": "1305200",
						"executionCost": "infinite",
						"totalCost": "infinite"
					},
					"external": {
						"count()": "2430",
						"inc()": "24549",
						"initialize()": "138199",
						"owner()": "2588",
						"proxiableUUID()": "infinite",
						"renounceOwnership()": "30420",
						"transferOwnership(address)": "30835",
						"upgradeTo(address)": "infinite",
						"upgradeToAndCall(address,bytes)": "infinite"
					},
					"internal": {
						"_authorizeUpgrade(address)": "infinite"
					}
				},
				"methodIdentifiers": {
					"count()": "06661abd",
					"inc()": "371303c0",
					"initialize()": "8129fc1c",
					"owner()": "8da5cb5b",
					"proxiableUUID()": "52d1902d",
					"renounceOwnership()": "715018a6",
					"transferOwnership(address)": "f2fde38b",
					"upgradeTo(address)": "3659cfe6",
					"upgradeToAndCall(address,bytes)": "4f1ef286"
				}
			},
			"storageLayout": {
				"storage": [
					{
						"astId": 527,
						"contract": "upgradeable/UUPS_ProxyV2.sol:ProxyContractV1",
						"label": "_initialized",
						"offset": 0,
						"slot": "0",
						"type": "t_uint8"
					},
					{
						"astId": 530,
						"contract": "upgradeable/UUPS_ProxyV2.sol:ProxyContractV1",
						"label": "_initializing",
						"offset": 1,
						"slot": "0",
						"type": "t_bool"
					},
					{
						"astId": 509,
						"contract": "upgradeable/UUPS_ProxyV2.sol:ProxyContractV1",
						"label": "__gap",
						"offset": 0,
						"slot": "1",
						"type": "t_array(t_uint256)50_storage"
					},
					{
						"astId": 824,
						"contract": "upgradeable/UUPS_ProxyV2.sol:ProxyContractV1",
						"label": "__gap",
						"offset": 0,
						"slot": "51",
						"type": "t_array(t_uint256)50_storage"
					},
					{
						"astId": 1150,
						"contract": "upgradeable/UUPS_ProxyV2.sol:ProxyContractV1",
						"label": "__gap",
						"offset": 0,
						"slot": "101",
						"type": "t_array(t_uint256)50_storage"
					},
					{
						"astId": 10,
						"contract": "upgradeable/UUPS_ProxyV2.sol:ProxyContractV1",
						"label": "_owner",
						"offset": 0,
						"slot": "151",
						"type": "t_address"
					},
					{
						"astId": 130,
						"contract": "upgradeable/UUPS_ProxyV2.sol:ProxyContractV1",
						"label": "__gap",
						"offset": 0,
						"slot": "152",
						"type": "t_array(t_uint256)49_storage"
					},
					{
						"astId": 1225,
						"contract": "upgradeable/UUPS_ProxyV2.sol:ProxyContractV1",
						"label": "count",
						"offset": 0,
						"slot": "201",
						"type": "t_uint256"
					}
				],
				"types": {
					"t_address": {
						"encoding": "inplace",
						"label": "address",
						"numberOfBytes": "20"
					},
					"t_array(t_uint256)49_storage": {
						"base": "t_uint256",
						"encoding": "inplace",
						"label": "uint256[49]",
						"numberOfBytes": "1568"
					},
					"t_array(t_uint256)50_storage": {
						"base": "t_uint256",
						"encoding": "inplace",
						"label": "uint256[50]",
						"numberOfBytes": "1600"
					},
					"t_bool": {
						"encoding": "inplace",
						"label": "bool",
						"numberOfBytes": "1"
					},
					"t_uint256": {
						"encoding": "inplace",
						"label": "uint256",
						"numberOfBytes": "32"
					},
					"t_uint8": {
						"encoding": "inplace",
						"label": "uint8",
						"numberOfBytes": "1"
					}
				}
			},
			"userdoc": {
				"kind": "user",
				"methods": {},
				"version": 1
			}
		}
	}
}