{
	"upgradeable/implV2.sol": {
		"ImplV2": {
			"abi": [
				{
					"inputs": [],
					"name": "dec",
					"outputs": [],
					"stateMutability": "nonpayable",
					"type": "function"
				},
				{
					"inputs": [],
					"name": "implementation",
					"outputs": [
						{
							"internalType": "address",
							"name": "",
							"type": "address"
						}
					],
					"stateMutability": "view",
					"type": "function"
				},
				{
					"inputs": [],
					"name": "inc",
					"outputs": [],
					"stateMutability": "nonpayable",
					"type": "function"
				},
				{
					"inputs": [],
					"name": "x",
					"outputs": [
						{
							"internalType": "uint256",
							"name": "",
							"type": "uint256"
						}
					],
					"stateMutability": "view",
					"type": "function"
				}
			],
			"devdoc": {
				"kind": "dev",
				"methods": {},
				"version": 1
			},
			"evm": {
				"assembly": "    /* \"upgradeable/implV2.sol\":70:260  contract ImplV2 {\r... */\n  mstore(0x40, 0x80)\n  callvalue\n  dup1\n  iszero\n  tag_1\n  jumpi\n  0x00\n  dup1\n  revert\ntag_1:\n  pop\n  dataSize(sub_0)\n  dup1\n  dataOffset(sub_0)\n  0x00\n  codecopy\n  0x00\n  return\nstop\n\nsub_0: assembly {\n        /* \"upgradeable/implV2.sol\":70:260  contract ImplV2 {\r... */\n      mstore(0x40, 0x80)\n      callvalue\n      dup1\n      iszero\n      tag_1\n      jumpi\n      0x00\n      dup1\n      revert\n    tag_1:\n      pop\n      jumpi(tag_2, lt(calldatasize, 0x04))\n      shr(0xe0, calldataload(0x00))\n      dup1\n      0x0c55699c\n      eq\n      tag_3\n      jumpi\n      dup1\n      0x371303c0\n      eq\n      tag_4\n      jumpi\n      dup1\n      0x5c60da1b\n      eq\n      tag_5\n      jumpi\n      dup1\n      0xb3bcfa82\n      eq\n      tag_6\n      jumpi\n    tag_2:\n      0x00\n      dup1\n      revert\n        /* \"upgradeable/implV2.sol\":129:142  uint public x */\n    tag_3:\n      tag_7\n      tag_8\n      jump\t// in\n    tag_7:\n      mload(0x40)\n      tag_9\n      swap2\n      swap1\n      tag_10\n      jump\t// in\n    tag_9:\n      mload(0x40)\n      dup1\n      swap2\n      sub\n      swap1\n      return\n        /* \"upgradeable/implV2.sol\":151:200  function inc() external {\r... */\n    tag_4:\n      tag_11\n      tag_12\n      jump\t// in\n    tag_11:\n      stop\n        /* \"upgradeable/implV2.sol\":93:122  address public implementation */\n    tag_5:\n      tag_13\n      tag_14\n      jump\t// in\n    tag_13:\n      mload(0x40)\n      tag_15\n      swap2\n      swap1\n      tag_16\n      jump\t// in\n    tag_15:\n      mload(0x40)\n      dup1\n      swap2\n      sub\n      swap1\n      return\n        /* \"upgradeable/implV2.sol\":208:257  function dec() external {\r... */\n    tag_6:\n      tag_17\n      tag_18\n      jump\t// in\n    tag_17:\n      stop\n        /* \"upgradeable/implV2.sol\":129:142  uint public x */\n    tag_8:\n      sload(0x01)\n      dup2\n      jump\t// out\n        /* \"upgradeable/implV2.sol\":151:200  function inc() external {\r... */\n    tag_12:\n        /* \"upgradeable/implV2.sol\":191:192  1 */\n      0x01\n        /* \"upgradeable/implV2.sol\":186:187  x */\n      dup1\n      0x00\n        /* \"upgradeable/implV2.sol\":186:192  x += 1 */\n      dup3\n      dup3\n      sload\n      tag_20\n      swap2\n      swap1\n      tag_21\n      jump\t// in\n    tag_20:\n      swap3\n      pop\n      pop\n      dup2\n      swap1\n      sstore\n      pop\n        /* \"upgradeable/implV2.sol\":151:200  function inc() external {\r... */\n      jump\t// out\n        /* \"upgradeable/implV2.sol\":93:122  address public implementation */\n    tag_14:\n      0x00\n      dup1\n      sload\n      swap1\n      0x0100\n      exp\n      swap1\n      div\n      0xffffffffffffffffffffffffffffffffffffffff\n      and\n      dup2\n      jump\t// out\n        /* \"upgradeable/implV2.sol\":208:257  function dec() external {\r... */\n    tag_18:\n        /* \"upgradeable/implV2.sol\":248:249  1 */\n      0x01\n        /* \"upgradeable/implV2.sol\":243:244  x */\n      dup1\n      0x00\n        /* \"upgradeable/implV2.sol\":243:249  x -= 1 */\n      dup3\n      dup3\n      sload\n      tag_23\n      swap2\n      swap1\n      tag_24\n      jump\t// in\n    tag_23:\n      swap3\n      pop\n      pop\n      dup2\n      swap1\n      sstore\n      pop\n        /* \"upgradeable/implV2.sol\":208:257  function dec() external {\r... */\n      jump\t// out\n        /* \"#utility.yul\":7:125   */\n    tag_26:\n        /* \"#utility.yul\":94:118   */\n      tag_28\n        /* \"#utility.yul\":112:117   */\n      dup2\n        /* \"#utility.yul\":94:118   */\n      tag_29\n      jump\t// in\n    tag_28:\n        /* \"#utility.yul\":89:92   */\n      dup3\n        /* \"#utility.yul\":82:119   */\n      mstore\n        /* \"#utility.yul\":7:125   */\n      pop\n      pop\n      jump\t// out\n        /* \"#utility.yul\":131:249   */\n    tag_30:\n        /* \"#utility.yul\":218:242   */\n      tag_32\n        /* \"#utility.yul\":236:241   */\n      dup2\n        /* \"#utility.yul\":218:242   */\n      tag_33\n      jump\t// in\n    tag_32:\n        /* \"#utility.yul\":213:216   */\n      dup3\n        /* \"#utility.yul\":206:243   */\n      mstore\n        /* \"#utility.yul\":131:249   */\n      pop\n      pop\n      jump\t// out\n        /* \"#utility.yul\":255:477   */\n    tag_16:\n        /* \"#utility.yul\":348:352   */\n      0x00\n        /* \"#utility.yul\":386:388   */\n      0x20\n        /* \"#utility.yul\":375:384   */\n      dup3\n        /* \"#utility.yul\":371:389   */\n      add\n        /* \"#utility.yul\":363:389   */\n      swap1\n      pop\n        /* \"#utility.yul\":399:470   */\n      tag_35\n        /* \"#utility.yul\":467:468   */\n      0x00\n        /* \"#utility.yul\":456:465   */\n      dup4\n        /* \"#utility.yul\":452:469   */\n      add\n        /* \"#utility.yul\":443:449   */\n      dup5\n        /* \"#utility.yul\":399:470   */\n      tag_26\n      jump\t// in\n    tag_35:\n        /* \"#utility.yul\":255:477   */\n      swap3\n      swap2\n      pop\n      pop\n      jump\t// out\n        /* \"#utility.yul\":483:705   */\n    tag_10:\n        /* \"#utility.yul\":576:580   */\n      0x00\n        /* \"#utility.yul\":614:616   */\n      0x20\n        /* \"#utility.yul\":603:612   */\n      dup3\n        /* \"#utility.yul\":599:617   */\n      add\n        /* \"#utility.yul\":591:617   */\n      swap1\n      pop\n        /* \"#utility.yul\":627:698   */\n      tag_37\n        /* \"#utility.yul\":695:696   */\n      0x00\n        /* \"#utility.yul\":684:693   */\n      dup4\n        /* \"#utility.yul\":680:697   */\n      add\n        /* \"#utility.yul\":671:677   */\n      dup5\n        /* \"#utility.yul\":627:698   */\n      tag_30\n      jump\t// in\n    tag_37:\n        /* \"#utility.yul\":483:705   */\n      swap3\n      swap2\n      pop\n      pop\n      jump\t// out\n        /* \"#utility.yul\":711:1016   */\n    tag_21:\n        /* \"#utility.yul\":751:754   */\n      0x00\n        /* \"#utility.yul\":770:790   */\n      tag_39\n        /* \"#utility.yul\":788:789   */\n      dup3\n        /* \"#utility.yul\":770:790   */\n      tag_33\n      jump\t// in\n    tag_39:\n        /* \"#utility.yul\":765:790   */\n      swap2\n      pop\n        /* \"#utility.yul\":804:824   */\n      tag_40\n        /* \"#utility.yul\":822:823   */\n      dup4\n        /* \"#utility.yul\":804:824   */\n      tag_33\n      jump\t// in\n    tag_40:\n        /* \"#utility.yul\":799:824   */\n      swap3\n      pop\n        /* \"#utility.yul\":958:959   */\n      dup3\n        /* \"#utility.yul\":890:956   */\n      0xffffffffffffffffffffffffffffffffffffffffffffffffffffffffffffffff\n        /* \"#utility.yul\":886:960   */\n      sub\n        /* \"#utility.yul\":883:884   */\n      dup3\n        /* \"#utility.yul\":880:961   */\n      gt\n        /* \"#utility.yul\":877:984   */\n      iszero\n      tag_41\n      jumpi\n        /* \"#utility.yul\":964:982   */\n      tag_42\n      tag_43\n      jump\t// in\n    tag_42:\n        /* \"#utility.yul\":877:984   */\n    tag_41:\n        /* \"#utility.yul\":1008:1009   */\n      dup3\n        /* \"#utility.yul\":1005:1006   */\n      dup3\n        /* \"#utility.yul\":1001:1010   */\n      add\n        /* \"#utility.yul\":994:1010   */\n      swap1\n      pop\n        /* \"#utility.yul\":711:1016   */\n      swap3\n      swap2\n      pop\n      pop\n      jump\t// out\n        /* \"#utility.yul\":1022:1213   */\n    tag_24:\n        /* \"#utility.yul\":1062:1066   */\n      0x00\n        /* \"#utility.yul\":1082:1102   */\n      tag_45\n        /* \"#utility.yul\":1100:1101   */\n      dup3\n        /* \"#utility.yul\":1082:1102   */\n      tag_33\n      jump\t// in\n    tag_45:\n        /* \"#utility.yul\":1077:1102   */\n      swap2\n      pop\n        /* \"#utility.yul\":1116:1136   */\n      tag_46\n        /* \"#utility.yul\":1134:1135   */\n      dup4\n        /* \"#utility.yul\":1116:1136   */\n      tag_33\n      jump\t// in\n    tag_46:\n        /* \"#utility.yul\":1111:1136   */\n      swap3\n      pop\n        /* \"#utility.yul\":1155:1156   */\n      dup3\n        /* \"#utility.yul\":1152:1153   */\n      dup3\n        /* \"#utility.yul\":1149:1157   */\n      lt\n        /* \"#utility.yul\":1146:1180   */\n      iszero\n      tag_47\n      jumpi\n        /* \"#utility.yul\":1160:1178   */\n      tag_48\n      tag_43\n      jump\t// in\n    tag_48:\n        /* \"#utility.yul\":1146:1180   */\n    tag_47:\n        /* \"#utility.yul\":1205:1206   */\n      dup3\n        /* \"#utility.yul\":1202:1203   */\n      dup3\n        /* \"#utility.yul\":1198:1207   */\n      sub\n        /* \"#utility.yul\":1190:1207   */\n      swap1\n      pop\n        /* \"#utility.yul\":1022:1213   */\n      swap3\n      swap2\n      pop\n      pop\n      jump\t// out\n        /* \"#utility.yul\":1219:1315   */\n    tag_29:\n        /* \"#utility.yul\":1256:1263   */\n      0x00\n        /* \"#utility.yul\":1285:1309   */\n      tag_50\n        /* \"#utility.yul\":1303:1308   */\n      dup3\n        /* \"#utility.yul\":1285:1309   */\n      tag_51\n      jump\t// in\n    tag_50:\n        /* \"#utility.yul\":1274:1309   */\n      swap1\n      pop\n        /* \"#utility.yul\":1219:1315   */\n      swap2\n      swap1\n      pop\n      jump\t// out\n        /* \"#utility.yul\":1321:1447   */\n    tag_51:\n        /* \"#utility.yul\":1358:1365   */\n      0x00\n        /* \"#utility.yul\":1398:1440   */\n      0xffffffffffffffffffffffffffffffffffffffff\n        /* \"#utility.yul\":1391:1396   */\n      dup3\n        /* \"#utility.yul\":1387:1441   */\n      and\n        /* \"#utility.yul\":1376:1441   */\n      swap1\n      pop\n        /* \"#utility.yul\":1321:1447   */\n      swap2\n      swap1\n      pop\n      jump\t// out\n        /* \"#utility.yul\":1453:1530   */\n    tag_33:\n        /* \"#utility.yul\":1490:1497   */\n      0x00\n        /* \"#utility.yul\":1519:1524   */\n      dup2\n        /* \"#utility.yul\":1508:1524   */\n      swap1\n      pop\n        /* \"#utility.yul\":1453:1530   */\n      swap2\n      swap1\n      pop\n      jump\t// out\n        /* \"#utility.yul\":1536:1716   */\n    tag_43:\n        /* \"#utility.yul\":1584:1661   */\n      0x4e487b7100000000000000000000000000000000000000000000000000000000\n        /* \"#utility.yul\":1581:1582   */\n      0x00\n        /* \"#utility.yul\":1574:1662   */\n      mstore\n        /* \"#utility.yul\":1681:1685   */\n      0x11\n        /* \"#utility.yul\":1678:1679   */\n      0x04\n        /* \"#utility.yul\":1671:1686   */\n      mstore\n        /* \"#utility.yul\":1705:1709   */\n      0x24\n        /* \"#utility.yul\":1702:1703   */\n      0x00\n        /* \"#utility.yul\":1695:1710   */\n      revert\n\n    auxdata: 0xa264697066735822122039acd3b866ecbad7d3faf30a9a0f0c3ee166cafa612329a4bc960070f212e26064736f6c63430008070033\n}\n",
				"bytecode": {
					"linkReferences": {},
					"object": "608060405234801561001057600080fd5b50610280806100206000396000f3fe608060405234801561001057600080fd5b506004361061004c5760003560e01c80630c55699c14610051578063371303c01461006f5780635c60da1b14610079578063b3bcfa8214610097575b600080fd5b6100596100a1565b604051610066919061013a565b60405180910390f35b6100776100a7565b005b6100816100c2565b60405161008e919061011f565b60405180910390f35b61009f6100e6565b005b60015481565b60018060008282546100b99190610155565b92505081905550565b60008054906101000a900473ffffffffffffffffffffffffffffffffffffffff1681565b60018060008282546100f891906101ab565b92505081905550565b61010a816101df565b82525050565b61011981610211565b82525050565b60006020820190506101346000830184610101565b92915050565b600060208201905061014f6000830184610110565b92915050565b600061016082610211565b915061016b83610211565b9250827fffffffffffffffffffffffffffffffffffffffffffffffffffffffffffffffff038211156101a05761019f61021b565b5b828201905092915050565b60006101b682610211565b91506101c183610211565b9250828210156101d4576101d361021b565b5b828203905092915050565b60006101ea826101f1565b9050919050565b600073ffffffffffffffffffffffffffffffffffffffff82169050919050565b6000819050919050565b7f4e487b7100000000000000000000000000000000000000000000000000000000600052601160045260246000fdfea264697066735822122039acd3b866ecbad7d3faf30a9a0f0c3ee166cafa612329a4bc960070f212e26064736f6c63430008070033",
					"opcodes": "PUSH1 0x80 PUSH1 0x40 MSTORE CALLVALUE DUP1 ISZERO PUSH2 0x10 JUMPI PUSH1 0x0 DUP1 REVERT JUMPDEST POP PUSH2 0x280 DUP1 PUSH2 0x20 PUSH1 0x0 CODECOPY PUSH1 0x0 RETURN INVALID PUSH1 0x80 PUSH1 0x40 MSTORE CALLVALUE DUP1 ISZERO PUSH2 0x10 JUMPI PUSH1 0x0 DUP1 REVERT JUMPDEST POP PUSH1 0x4 CALLDATASIZE LT PUSH2 0x4C JUMPI PUSH1 0x0 CALLDATALOAD PUSH1 0xE0 SHR DUP1 PUSH4 0xC55699C EQ PUSH2 0x51 JUMPI DUP1 PUSH4 0x371303C0 EQ PUSH2 0x6F JUMPI DUP1 PUSH4 0x5C60DA1B EQ PUSH2 0x79 JUMPI DUP1 PUSH4 0xB3BCFA82 EQ PUSH2 0x97 JUMPI JUMPDEST PUSH1 0x0 DUP1 REVERT JUMPDEST PUSH2 0x59 PUSH2 0xA1 JUMP JUMPDEST PUSH1 0x40 MLOAD PUSH2 0x66 SWAP2 SWAP1 PUSH2 0x13A JUMP JUMPDEST PUSH1 0x40 MLOAD DUP1 SWAP2 SUB SWAP1 RETURN JUMPDEST PUSH2 0x77 PUSH2 0xA7 JUMP JUMPDEST STOP JUMPDEST PUSH2 0x81 PUSH2 0xC2 JUMP JUMPDEST PUSH1 0x40 MLOAD PUSH2 0x8E SWAP2 SWAP1 PUSH2 0x11F JUMP JUMPDEST PUSH1 0x40 MLOAD DUP1 SWAP2 SUB SWAP1 RETURN JUMPDEST PUSH2 0x9F PUSH2 0xE6 JUMP JUMPDEST STOP JUMPDEST PUSH1 0x1 SLOAD DUP2 JUMP JUMPDEST PUSH1 0x1 DUP1 PUSH1 0x0 DUP3 DUP3 SLOAD PUSH2 0xB9 SWAP2 SWAP1 PUSH2 0x155 JUMP JUMPDEST SWAP3 POP POP DUP2 SWAP1 SSTORE POP JUMP JUMPDEST PUSH1 0x0 DUP1 SLOAD SWAP1 PUSH2 0x100 EXP SWAP1 DIV PUSH20 0xFFFFFFFFFFFFFFFFFFFFFFFFFFFFFFFFFFFFFFFF AND DUP2 JUMP JUMPDEST PUSH1 0x1 DUP1 PUSH1 0x0 DUP3 DUP3 SLOAD PUSH2 0xF8 SWAP2 SWAP1 PUSH2 0x1AB JUMP JUMPDEST SWAP3 POP POP DUP2 SWAP1 SSTORE POP JUMP JUMPDEST PUSH2 0x10A DUP2 PUSH2 0x1DF JUMP JUMPDEST DUP3 MSTORE POP POP JUMP JUMPDEST PUSH2 0x119 DUP2 PUSH2 0x211 JUMP JUMPDEST DUP3 MSTORE POP POP JUMP JUMPDEST PUSH1 0x0 PUSH1 0x20 DUP3 ADD SWAP1 POP PUSH2 0x134 PUSH1 0x0 DUP4 ADD DUP5 PUSH2 0x101 JUMP JUMPDEST SWAP3 SWAP2 POP POP JUMP JUMPDEST PUSH1 0x0 PUSH1 0x20 DUP3 ADD SWAP1 POP PUSH2 0x14F PUSH1 0x0 DUP4 ADD DUP5 PUSH2 0x110 JUMP JUMPDEST SWAP3 SWAP2 POP POP JUMP JUMPDEST PUSH1 0x0 PUSH2 0x160 DUP3 PUSH2 0x211 JUMP JUMPDEST SWAP2 POP PUSH2 0x16B DUP4 PUSH2 0x211 JUMP JUMPDEST SWAP3 POP DUP3 PUSH32 0xFFFFFFFFFFFFFFFFFFFFFFFFFFFFFFFFFFFFFFFFFFFFFFFFFFFFFFFFFFFFFFFF SUB DUP3 GT ISZERO PUSH2 0x1A0 JUMPI PUSH2 0x19F PUSH2 0x21B JUMP JUMPDEST JUMPDEST DUP3 DUP3 ADD SWAP1 POP SWAP3 SWAP2 POP POP JUMP JUMPDEST PUSH1 0x0 PUSH2 0x1B6 DUP3 PUSH2 0x211 JUMP JUMPDEST SWAP2 POP PUSH2 0x1C1 DUP4 PUSH2 0x211 JUMP JUMPDEST SWAP3 POP DUP3 DUP3 LT ISZERO PUSH2 0x1D4 JUMPI PUSH2 0x1D3 PUSH2 0x21B JUMP JUMPDEST JUMPDEST DUP3 DUP3 SUB SWAP1 POP SWAP3 SWAP2 POP POP JUMP JUMPDEST PUSH1 0x0 PUSH2 0x1EA DUP3 PUSH2 0x1F1 JUMP JUMPDEST SWAP1 POP SWAP2 SWAP1 POP JUMP JUMPDEST PUSH1 0x0 PUSH20 0xFFFFFFFFFFFFFFFFFFFFFFFFFFFFFFFFFFFFFFFF DUP3 AND SWAP1 POP SWAP2 SWAP1 POP JUMP JUMPDEST PUSH1 0x0 DUP2 SWAP1 POP SWAP2 SWAP1 POP JUMP JUMPDEST PUSH32 0x4E487B7100000000000000000000000000000000000000000000000000000000 PUSH1 0x0 MSTORE PUSH1 0x11 PUSH1 0x4 MSTORE PUSH1 0x24 PUSH1 0x0 REVERT INVALID LOG2 PUSH5 0x6970667358 0x22 SLT KECCAK256 CODECOPY 0xAC 0xD3 0xB8 PUSH7 0xECBAD7D3FAF30A SWAP11 0xF 0xC RETURNDATACOPY 0xE1 PUSH7 0xCAFA612329A4BC SWAP7 STOP PUSH17 0xF212E26064736F6C634300080700330000 "
				},
				"gasEstimates": {
					"creation": {
						"codeDepositCost": "128000",
						"executionCost": "171",
						"totalCost": "128171"
					},
					"external": {
						"dec()": "infinite",
						"implementation()": "2533",
						"inc()": "infinite",
						"x()": "2407"
					}
				},
				"methodIdentifiers": {
					"dec()": "b3bcfa82",
					"implementation()": "5c60da1b",
					"inc()": "371303c0",
					"x()": "0c55699c"
				}
			},
			"storageLayout": {
				"storage": [
					{
						"astId": 3,
						"contract": "upgradeable/implV2.sol:ImplV2",
						"label": "implementation",
						"offset": 0,
						"slot": "0",
						"type": "t_address"
					},
					{
						"astId": 5,
						"contract": "upgradeable/implV2.sol:ImplV2",
						"label": "x",
						"offset": 0,
						"slot": "1",
						"type": "t_uint256"
					}
				],
				"types": {
					"t_address": {
						"encoding": "inplace",
						"label": "address",
						"numberOfBytes": "20"
					},
					"t_uint256": {
						"encoding": "inplace",
						"label": "uint256",
						"numberOfBytes": "32"
					}
				}
			},
			"userdoc": {
				"kind": "user",
				"methods": {},
				"version": 1
			}
		}
	}
}