{
	"upgradeable/proxy.sol": {
		"Proxy": {
			"abi": [
				{
					"stateMutability": "payable",
					"type": "fallback"
				},
				{
					"inputs": [],
					"name": "implementation",
					"outputs": [
						{
							"internalType": "address",
							"name": "",
							"type": "address"
						}
					],
					"stateMutability": "view",
					"type": "function"
				},
				{
					"inputs": [
						{
							"internalType": "address",
							"name": "_implementation",
							"type": "address"
						}
					],
					"name": "setImplementation",
					"outputs": [],
					"stateMutability": "nonpayable",
					"type": "function"
				},
				{
					"inputs": [],
					"name": "x",
					"outputs": [
						{
							"internalType": "uint256",
							"name": "",
							"type": "uint256"
						}
					],
					"stateMutability": "view",
					"type": "function"
				}
			],
			"devdoc": {
				"kind": "dev",
				"methods": {},
				"version": 1
			},
			"evm": {
				"assembly": "    /* \"upgradeable/proxy.sol\":70:831  contract Proxy {\r... */\n  mstore(0x40, 0x80)\n  callvalue\n  dup1\n  iszero\n  tag_1\n  jumpi\n  0x00\n  dup1\n  revert\ntag_1:\n  pop\n  dataSize(sub_0)\n  dup1\n  dataOffset(sub_0)\n  0x00\n  codecopy\n  0x00\n  return\nstop\n\nsub_0: assembly {\n        /* \"upgradeable/proxy.sol\":70:831  contract Proxy {\r... */\n      mstore(0x40, 0x80)\n      jumpi(tag_1, lt(calldatasize, 0x04))\n      shr(0xe0, calldataload(0x00))\n      dup1\n      0x0c55699c\n      eq\n      tag_3\n      jumpi\n      dup1\n      0x5c60da1b\n      eq\n      tag_4\n      jumpi\n      dup1\n      0xd784d426\n      eq\n      tag_5\n      jumpi\n      jump(tag_2)\n    tag_1:\n    tag_2:\n        /* \"upgradeable/proxy.sol\":795:820  _delegate(implementation) */\n      tag_8\n        /* \"upgradeable/proxy.sol\":805:819  implementation */\n      0x00\n      dup1\n      sload\n      swap1\n      0x0100\n      exp\n      swap1\n      div\n      0xffffffffffffffffffffffffffffffffffffffff\n      and\n        /* \"upgradeable/proxy.sol\":795:804  _delegate */\n      tag_9\n        /* \"upgradeable/proxy.sol\":795:820  _delegate(implementation) */\n      jump\t// in\n    tag_8:\n        /* \"upgradeable/proxy.sol\":70:831  contract Proxy {\r... */\n      stop\n        /* \"upgradeable/proxy.sol\":128:141  uint public x */\n    tag_3:\n      callvalue\n      dup1\n      iszero\n      tag_10\n      jumpi\n      0x00\n      dup1\n      revert\n    tag_10:\n      pop\n      tag_11\n      tag_12\n      jump\t// in\n    tag_11:\n      mload(0x40)\n      tag_13\n      swap2\n      swap1\n      tag_14\n      jump\t// in\n    tag_13:\n      mload(0x40)\n      dup1\n      swap2\n      sub\n      swap1\n      return\n        /* \"upgradeable/proxy.sol\":92:121  address public implementation */\n    tag_4:\n      callvalue\n      dup1\n      iszero\n      tag_15\n      jumpi\n      0x00\n      dup1\n      revert\n    tag_15:\n      pop\n      tag_16\n      tag_17\n      jump\t// in\n    tag_16:\n      mload(0x40)\n      tag_18\n      swap2\n      swap1\n      tag_19\n      jump\t// in\n    tag_18:\n      mload(0x40)\n      dup1\n      swap2\n      sub\n      swap1\n      return\n        /* \"upgradeable/proxy.sol\":150:262  function setImplementation(address _implementation) external {\r... */\n    tag_5:\n      callvalue\n      dup1\n      iszero\n      tag_20\n      jumpi\n      0x00\n      dup1\n      revert\n    tag_20:\n      pop\n      tag_21\n      0x04\n      dup1\n      calldatasize\n      sub\n      dup2\n      add\n      swap1\n      tag_22\n      swap2\n      swap1\n      tag_23\n      jump\t// in\n    tag_22:\n      tag_24\n      jump\t// in\n    tag_21:\n      stop\n        /* \"upgradeable/proxy.sol\":270:749  function _delegate(address _implementation) internal {\r... */\n    tag_9:\n        /* \"upgradeable/proxy.sol\":377:391  calldatasize() */\n      calldatasize\n        /* \"upgradeable/proxy.sol\":374:375  0 */\n      0x00\n        /* \"upgradeable/proxy.sol\":371:372  0 */\n      dup1\n        /* \"upgradeable/proxy.sol\":358:392  calldatacopy(0, 0, calldatasize()) */\n      calldatacopy\n        /* \"upgradeable/proxy.sol\":481:482  0 */\n      0x00\n        /* \"upgradeable/proxy.sol\":478:479  0 */\n      dup1\n        /* \"upgradeable/proxy.sol\":462:476  calldatasize() */\n      calldatasize\n        /* \"upgradeable/proxy.sol\":459:460  0 */\n      0x00\n        /* \"upgradeable/proxy.sol\":442:457  _implementation */\n      dup5\n        /* \"upgradeable/proxy.sol\":435:440  gas() */\n      gas\n        /* \"upgradeable/proxy.sol\":422:483  delegatecall(gas(), _implementation, 0, calldatasize(), 0, 0) */\n      delegatecall\n        /* \"upgradeable/proxy.sol\":520:536  returndatasize() */\n      returndatasize\n        /* \"upgradeable/proxy.sol\":517:518  0 */\n      0x00\n        /* \"upgradeable/proxy.sol\":514:515  0 */\n      dup1\n        /* \"upgradeable/proxy.sol\":499:537  returndatacopy(0, 0, returndatasize()) */\n      returndatacopy\n        /* \"upgradeable/proxy.sol\":560:566  result */\n      dup1\n        /* \"upgradeable/proxy.sol\":585:586  0 */\n      0x00\n        /* \"upgradeable/proxy.sol\":580:648  case 0 {\r... */\n      dup2\n      eq\n      tag_27\n      jumpi\n        /* \"upgradeable/proxy.sol\":699:715  returndatasize() */\n      returndatasize\n        /* \"upgradeable/proxy.sol\":696:697  0 */\n      0x00\n        /* \"upgradeable/proxy.sol\":689:716  return(0, returndatasize()) */\n      return\n        /* \"upgradeable/proxy.sol\":580:648  case 0 {\r... */\n    tag_27:\n        /* \"upgradeable/proxy.sol\":616:632  returndatasize() */\n      returndatasize\n        /* \"upgradeable/proxy.sol\":613:614  0 */\n      0x00\n        /* \"upgradeable/proxy.sol\":606:633  revert(0, returndatasize()) */\n      revert\n        /* \"upgradeable/proxy.sol\":128:141  uint public x */\n    tag_12:\n      sload(0x01)\n      dup2\n      jump\t// out\n        /* \"upgradeable/proxy.sol\":92:121  address public implementation */\n    tag_17:\n      0x00\n      dup1\n      sload\n      swap1\n      0x0100\n      exp\n      swap1\n      div\n      0xffffffffffffffffffffffffffffffffffffffff\n      and\n      dup2\n      jump\t// out\n        /* \"upgradeable/proxy.sol\":150:262  function setImplementation(address _implementation) external {\r... */\n    tag_24:\n        /* \"upgradeable/proxy.sol\":239:254  _implementation */\n      dup1\n        /* \"upgradeable/proxy.sol\":222:236  implementation */\n      0x00\n      dup1\n        /* \"upgradeable/proxy.sol\":222:254  implementation = _implementation */\n      0x0100\n      exp\n      dup2\n      sload\n      dup2\n      0xffffffffffffffffffffffffffffffffffffffff\n      mul\n      not\n      and\n      swap1\n      dup4\n      0xffffffffffffffffffffffffffffffffffffffff\n      and\n      mul\n      or\n      swap1\n      sstore\n      pop\n        /* \"upgradeable/proxy.sol\":150:262  function setImplementation(address _implementation) external {\r... */\n      pop\n      jump\t// out\n        /* \"#utility.yul\":7:146   */\n    tag_30:\n        /* \"#utility.yul\":53:58   */\n      0x00\n        /* \"#utility.yul\":91:97   */\n      dup2\n        /* \"#utility.yul\":78:98   */\n      calldataload\n        /* \"#utility.yul\":69:98   */\n      swap1\n      pop\n        /* \"#utility.yul\":107:140   */\n      tag_32\n        /* \"#utility.yul\":134:139   */\n      dup2\n        /* \"#utility.yul\":107:140   */\n      tag_33\n      jump\t// in\n    tag_32:\n        /* \"#utility.yul\":7:146   */\n      swap3\n      swap2\n      pop\n      pop\n      jump\t// out\n        /* \"#utility.yul\":152:481   */\n    tag_23:\n        /* \"#utility.yul\":211:217   */\n      0x00\n        /* \"#utility.yul\":260:262   */\n      0x20\n        /* \"#utility.yul\":248:257   */\n      dup3\n        /* \"#utility.yul\":239:246   */\n      dup5\n        /* \"#utility.yul\":235:258   */\n      sub\n        /* \"#utility.yul\":231:263   */\n      slt\n        /* \"#utility.yul\":228:347   */\n      iszero\n      tag_35\n      jumpi\n        /* \"#utility.yul\":266:345   */\n      tag_36\n      tag_37\n      jump\t// in\n    tag_36:\n        /* \"#utility.yul\":228:347   */\n    tag_35:\n        /* \"#utility.yul\":386:387   */\n      0x00\n        /* \"#utility.yul\":411:464   */\n      tag_38\n        /* \"#utility.yul\":456:463   */\n      dup5\n        /* \"#utility.yul\":447:453   */\n      dup3\n        /* \"#utility.yul\":436:445   */\n      dup6\n        /* \"#utility.yul\":432:454   */\n      add\n        /* \"#utility.yul\":411:464   */\n      tag_30\n      jump\t// in\n    tag_38:\n        /* \"#utility.yul\":401:464   */\n      swap2\n      pop\n        /* \"#utility.yul\":357:474   */\n      pop\n        /* \"#utility.yul\":152:481   */\n      swap3\n      swap2\n      pop\n      pop\n      jump\t// out\n        /* \"#utility.yul\":487:605   */\n    tag_39:\n        /* \"#utility.yul\":574:598   */\n      tag_41\n        /* \"#utility.yul\":592:597   */\n      dup2\n        /* \"#utility.yul\":574:598   */\n      tag_42\n      jump\t// in\n    tag_41:\n        /* \"#utility.yul\":569:572   */\n      dup3\n        /* \"#utility.yul\":562:599   */\n      mstore\n        /* \"#utility.yul\":487:605   */\n      pop\n      pop\n      jump\t// out\n        /* \"#utility.yul\":611:729   */\n    tag_43:\n        /* \"#utility.yul\":698:722   */\n      tag_45\n        /* \"#utility.yul\":716:721   */\n      dup2\n        /* \"#utility.yul\":698:722   */\n      tag_46\n      jump\t// in\n    tag_45:\n        /* \"#utility.yul\":693:696   */\n      dup3\n        /* \"#utility.yul\":686:723   */\n      mstore\n        /* \"#utility.yul\":611:729   */\n      pop\n      pop\n      jump\t// out\n        /* \"#utility.yul\":735:957   */\n    tag_19:\n        /* \"#utility.yul\":828:832   */\n      0x00\n        /* \"#utility.yul\":866:868   */\n      0x20\n        /* \"#utility.yul\":855:864   */\n      dup3\n        /* \"#utility.yul\":851:869   */\n      add\n        /* \"#utility.yul\":843:869   */\n      swap1\n      pop\n        /* \"#utility.yul\":879:950   */\n      tag_48\n        /* \"#utility.yul\":947:948   */\n      0x00\n        /* \"#utility.yul\":936:945   */\n      dup4\n        /* \"#utility.yul\":932:949   */\n      add\n        /* \"#utility.yul\":923:929   */\n      dup5\n        /* \"#utility.yul\":879:950   */\n      tag_39\n      jump\t// in\n    tag_48:\n        /* \"#utility.yul\":735:957   */\n      swap3\n      swap2\n      pop\n      pop\n      jump\t// out\n        /* \"#utility.yul\":963:1185   */\n    tag_14:\n        /* \"#utility.yul\":1056:1060   */\n      0x00\n        /* \"#utility.yul\":1094:1096   */\n      0x20\n        /* \"#utility.yul\":1083:1092   */\n      dup3\n        /* \"#utility.yul\":1079:1097   */\n      add\n        /* \"#utility.yul\":1071:1097   */\n      swap1\n      pop\n        /* \"#utility.yul\":1107:1178   */\n      tag_50\n        /* \"#utility.yul\":1175:1176   */\n      0x00\n        /* \"#utility.yul\":1164:1173   */\n      dup4\n        /* \"#utility.yul\":1160:1177   */\n      add\n        /* \"#utility.yul\":1151:1157   */\n      dup5\n        /* \"#utility.yul\":1107:1178   */\n      tag_43\n      jump\t// in\n    tag_50:\n        /* \"#utility.yul\":963:1185   */\n      swap3\n      swap2\n      pop\n      pop\n      jump\t// out\n        /* \"#utility.yul\":1272:1368   */\n    tag_42:\n        /* \"#utility.yul\":1309:1316   */\n      0x00\n        /* \"#utility.yul\":1338:1362   */\n      tag_54\n        /* \"#utility.yul\":1356:1361   */\n      dup3\n        /* \"#utility.yul\":1338:1362   */\n      tag_55\n      jump\t// in\n    tag_54:\n        /* \"#utility.yul\":1327:1362   */\n      swap1\n      pop\n        /* \"#utility.yul\":1272:1368   */\n      swap2\n      swap1\n      pop\n      jump\t// out\n        /* \"#utility.yul\":1374:1500   */\n    tag_55:\n        /* \"#utility.yul\":1411:1418   */\n      0x00\n        /* \"#utility.yul\":1451:1493   */\n      0xffffffffffffffffffffffffffffffffffffffff\n        /* \"#utility.yul\":1444:1449   */\n      dup3\n        /* \"#utility.yul\":1440:1494   */\n      and\n        /* \"#utility.yul\":1429:1494   */\n      swap1\n      pop\n        /* \"#utility.yul\":1374:1500   */\n      swap2\n      swap1\n      pop\n      jump\t// out\n        /* \"#utility.yul\":1506:1583   */\n    tag_46:\n        /* \"#utility.yul\":1543:1550   */\n      0x00\n        /* \"#utility.yul\":1572:1577   */\n      dup2\n        /* \"#utility.yul\":1561:1577   */\n      swap1\n      pop\n        /* \"#utility.yul\":1506:1583   */\n      swap2\n      swap1\n      pop\n      jump\t// out\n        /* \"#utility.yul\":1712:1829   */\n    tag_37:\n        /* \"#utility.yul\":1821:1822   */\n      0x00\n        /* \"#utility.yul\":1818:1819   */\n      dup1\n        /* \"#utility.yul\":1811:1823   */\n      revert\n        /* \"#utility.yul\":1835:1957   */\n    tag_33:\n        /* \"#utility.yul\":1908:1932   */\n      tag_62\n        /* \"#utility.yul\":1926:1931   */\n      dup2\n        /* \"#utility.yul\":1908:1932   */\n      tag_42\n      jump\t// in\n    tag_62:\n        /* \"#utility.yul\":1901:1906   */\n      dup2\n        /* \"#utility.yul\":1898:1933   */\n      eq\n        /* \"#utility.yul\":1888:1951   */\n      tag_63\n      jumpi\n        /* \"#utility.yul\":1947:1948   */\n      0x00\n        /* \"#utility.yul\":1944:1945   */\n      dup1\n        /* \"#utility.yul\":1937:1949   */\n      revert\n        /* \"#utility.yul\":1888:1951   */\n    tag_63:\n        /* \"#utility.yul\":1835:1957   */\n      pop\n      jump\t// out\n\n    auxdata: 0xa26469706673582212201ecdce1082543736c5c7b321f6894c42e198689d4eb321f3ea0b9d7b910acfaf64736f6c63430008070033\n}\n",
				"bytecode": {
					"linkReferences": {},
					"object": "608060405234801561001057600080fd5b5061029a806100206000396000f3fe6080604052600436106100385760003560e01c80630c55699c146100645780635c60da1b1461008f578063d784d426146100ba57610039565b5b61006260008054906101000a900473ffffffffffffffffffffffffffffffffffffffff166100e3565b005b34801561007057600080fd5b50610079610109565b60405161008691906101f1565b60405180910390f35b34801561009b57600080fd5b506100a461010f565b6040516100b191906101d6565b60405180910390f35b3480156100c657600080fd5b506100e160048036038101906100dc919061018b565b610133565b005b3660008037600080366000845af43d6000803e8060008114610104573d6000f35b3d6000fd5b60015481565b60008054906101000a900473ffffffffffffffffffffffffffffffffffffffff1681565b806000806101000a81548173ffffffffffffffffffffffffffffffffffffffff021916908373ffffffffffffffffffffffffffffffffffffffff16021790555050565b6000813590506101858161024d565b92915050565b6000602082840312156101a1576101a0610248565b5b60006101af84828501610176565b91505092915050565b6101c18161020c565b82525050565b6101d08161023e565b82525050565b60006020820190506101eb60008301846101b8565b92915050565b600060208201905061020660008301846101c7565b92915050565b60006102178261021e565b9050919050565b600073ffffffffffffffffffffffffffffffffffffffff82169050919050565b6000819050919050565b600080fd5b6102568161020c565b811461026157600080fd5b5056fea26469706673582212201ecdce1082543736c5c7b321f6894c42e198689d4eb321f3ea0b9d7b910acfaf64736f6c63430008070033",
					"opcodes": "PUSH1 0x80 PUSH1 0x40 MSTORE CALLVALUE DUP1 ISZERO PUSH2 0x10 JUMPI PUSH1 0x0 DUP1 REVERT JUMPDEST POP PUSH2 0x29A DUP1 PUSH2 0x20 PUSH1 0x0 CODECOPY PUSH1 0x0 RETURN INVALID PUSH1 0x80 PUSH1 0x40 MSTORE PUSH1 0x4 CALLDATASIZE LT PUSH2 0x38 JUMPI PUSH1 0x0 CALLDATALOAD PUSH1 0xE0 SHR DUP1 PUSH4 0xC55699C EQ PUSH2 0x64 JUMPI DUP1 PUSH4 0x5C60DA1B EQ PUSH2 0x8F JUMPI DUP1 PUSH4 0xD784D426 EQ PUSH2 0xBA JUMPI PUSH2 0x39 JUMP JUMPDEST JUMPDEST PUSH2 0x62 PUSH1 0x0 DUP1 SLOAD SWAP1 PUSH2 0x100 EXP SWAP1 DIV PUSH20 0xFFFFFFFFFFFFFFFFFFFFFFFFFFFFFFFFFFFFFFFF AND PUSH2 0xE3 JUMP JUMPDEST STOP JUMPDEST CALLVALUE DUP1 ISZERO PUSH2 0x70 JUMPI PUSH1 0x0 DUP1 REVERT JUMPDEST POP PUSH2 0x79 PUSH2 0x109 JUMP JUMPDEST PUSH1 0x40 MLOAD PUSH2 0x86 SWAP2 SWAP1 PUSH2 0x1F1 JUMP JUMPDEST PUSH1 0x40 MLOAD DUP1 SWAP2 SUB SWAP1 RETURN JUMPDEST CALLVALUE DUP1 ISZERO PUSH2 0x9B JUMPI PUSH1 0x0 DUP1 REVERT JUMPDEST POP PUSH2 0xA4 PUSH2 0x10F JUMP JUMPDEST PUSH1 0x40 MLOAD PUSH2 0xB1 SWAP2 SWAP1 PUSH2 0x1D6 JUMP JUMPDEST PUSH1 0x40 MLOAD DUP1 SWAP2 SUB SWAP1 RETURN JUMPDEST CALLVALUE DUP1 ISZERO PUSH2 0xC6 JUMPI PUSH1 0x0 DUP1 REVERT JUMPDEST POP PUSH2 0xE1 PUSH1 0x4 DUP1 CALLDATASIZE SUB DUP2 ADD SWAP1 PUSH2 0xDC SWAP2 SWAP1 PUSH2 0x18B JUMP JUMPDEST PUSH2 0x133 JUMP JUMPDEST STOP JUMPDEST CALLDATASIZE PUSH1 0x0 DUP1 CALLDATACOPY PUSH1 0x0 DUP1 CALLDATASIZE PUSH1 0x0 DUP5 GAS DELEGATECALL RETURNDATASIZE PUSH1 0x0 DUP1 RETURNDATACOPY DUP1 PUSH1 0x0 DUP2 EQ PUSH2 0x104 JUMPI RETURNDATASIZE PUSH1 0x0 RETURN JUMPDEST RETURNDATASIZE PUSH1 0x0 REVERT JUMPDEST PUSH1 0x1 SLOAD DUP2 JUMP JUMPDEST PUSH1 0x0 DUP1 SLOAD SWAP1 PUSH2 0x100 EXP SWAP1 DIV PUSH20 0xFFFFFFFFFFFFFFFFFFFFFFFFFFFFFFFFFFFFFFFF AND DUP2 JUMP JUMPDEST DUP1 PUSH1 0x0 DUP1 PUSH2 0x100 EXP DUP2 SLOAD DUP2 PUSH20 0xFFFFFFFFFFFFFFFFFFFFFFFFFFFFFFFFFFFFFFFF MUL NOT AND SWAP1 DUP4 PUSH20 0xFFFFFFFFFFFFFFFFFFFFFFFFFFFFFFFFFFFFFFFF AND MUL OR SWAP1 SSTORE POP POP JUMP JUMPDEST PUSH1 0x0 DUP2 CALLDATALOAD SWAP1 POP PUSH2 0x185 DUP2 PUSH2 0x24D JUMP JUMPDEST SWAP3 SWAP2 POP POP JUMP JUMPDEST PUSH1 0x0 PUSH1 0x20 DUP3 DUP5 SUB SLT ISZERO PUSH2 0x1A1 JUMPI PUSH2 0x1A0 PUSH2 0x248 JUMP JUMPDEST JUMPDEST PUSH1 0x0 PUSH2 0x1AF DUP5 DUP3 DUP6 ADD PUSH2 0x176 JUMP JUMPDEST SWAP2 POP POP SWAP3 SWAP2 POP POP JUMP JUMPDEST PUSH2 0x1C1 DUP2 PUSH2 0x20C JUMP JUMPDEST DUP3 MSTORE POP POP JUMP JUMPDEST PUSH2 0x1D0 DUP2 PUSH2 0x23E JUMP JUMPDEST DUP3 MSTORE POP POP JUMP JUMPDEST PUSH1 0x0 PUSH1 0x20 DUP3 ADD SWAP1 POP PUSH2 0x1EB PUSH1 0x0 DUP4 ADD DUP5 PUSH2 0x1B8 JUMP JUMPDEST SWAP3 SWAP2 POP POP JUMP JUMPDEST PUSH1 0x0 PUSH1 0x20 DUP3 ADD SWAP1 POP PUSH2 0x206 PUSH1 0x0 DUP4 ADD DUP5 PUSH2 0x1C7 JUMP JUMPDEST SWAP3 SWAP2 POP POP JUMP JUMPDEST PUSH1 0x0 PUSH2 0x217 DUP3 PUSH2 0x21E JUMP JUMPDEST SWAP1 POP SWAP2 SWAP1 POP JUMP JUMPDEST PUSH1 0x0 PUSH20 0xFFFFFFFFFFFFFFFFFFFFFFFFFFFFFFFFFFFFFFFF DUP3 AND SWAP1 POP SWAP2 SWAP1 POP JUMP JUMPDEST PUSH1 0x0 DUP2 SWAP1 POP SWAP2 SWAP1 POP JUMP JUMPDEST PUSH1 0x0 DUP1 REVERT JUMPDEST PUSH2 0x256 DUP2 PUSH2 0x20C JUMP JUMPDEST DUP2 EQ PUSH2 0x261 JUMPI PUSH1 0x0 DUP1 REVERT JUMPDEST POP JUMP INVALID LOG2 PUSH5 0x6970667358 0x22 SLT KECCAK256 0x1E 0xCD 0xCE LT DUP3 SLOAD CALLDATACOPY CALLDATASIZE 0xC5 0xC7 0xB3 0x21 0xF6 DUP10 0x4C TIMESTAMP 0xE1 SWAP9 PUSH9 0x9D4EB321F3EA0B9D7B SWAP2 EXP 0xCF 0xAF PUSH5 0x736F6C6343 STOP ADDMOD SMOD STOP CALLER "
				},
				"gasEstimates": {
					"creation": {
						"codeDepositCost": "133200",
						"executionCost": "177",
						"totalCost": "133377"
					},
					"external": {
						"": "infinite",
						"implementation()": "2511",
						"setImplementation(address)": "24744",
						"x()": "2407"
					},
					"internal": {
						"_delegate(address)": "infinite"
					}
				},
				"methodIdentifiers": {
					"implementation()": "5c60da1b",
					"setImplementation(address)": "d784d426",
					"x()": "0c55699c"
				}
			},
			"storageLayout": {
				"storage": [
					{
						"astId": 3,
						"contract": "upgradeable/proxy.sol:Proxy",
						"label": "implementation",
						"offset": 0,
						"slot": "0",
						"type": "t_address"
					},
					{
						"astId": 5,
						"contract": "upgradeable/proxy.sol:Proxy",
						"label": "x",
						"offset": 0,
						"slot": "1",
						"type": "t_uint256"
					}
				],
				"types": {
					"t_address": {
						"encoding": "inplace",
						"label": "address",
						"numberOfBytes": "20"
					},
					"t_uint256": {
						"encoding": "inplace",
						"label": "uint256",
						"numberOfBytes": "32"
					}
				}
			},
			"userdoc": {
				"kind": "user",
				"methods": {},
				"version": 1
			}
		}
	}
}