{
	"chainlink/random.sol": {
		"Dice": {
			"abi": [
				{
					"inputs": [],
					"stateMutability": "payable",
					"type": "constructor"
				},
				{
					"inputs": [],
					"name": "getWinner",
					"outputs": [
						{
							"internalType": "address",
							"name": "",
							"type": "address"
						}
					],
					"stateMutability": "view",
					"type": "function"
				},
				{
					"inputs": [
						{
							"internalType": "uint8",
							"name": "dice_number",
							"type": "uint8"
						}
					],
					"name": "roll",
					"outputs": [],
					"stateMutability": "payable",
					"type": "function"
				},
				{
					"stateMutability": "payable",
					"type": "receive"
				}
			],
			"devdoc": {
				"kind": "dev",
				"methods": {},
				"version": 1
			},
			"evm": {
				"assembly": "    /* \"chainlink/random.sol\":67:515  contract Dice {... */\n  mstore(0x40, 0x80)\n  dataSize(sub_0)\n  dup1\n  dataOffset(sub_0)\n  0x00\n  codecopy\n  0x00\n  return\nstop\n\nsub_0: assembly {\n        /* \"chainlink/random.sol\":67:515  contract Dice {... */\n      mstore(0x40, 0x80)\n      jumpi(tag_1, lt(calldatasize, 0x04))\n      shr(0xe0, calldataload(0x00))\n      dup1\n      0x6bf0f4a1\n      eq\n      tag_3\n      jumpi\n      dup1\n      0x8e7ea5b2\n      eq\n      tag_4\n      jumpi\n      jump(tag_2)\n    tag_1:\n      jumpi(tag_2, calldatasize)\n      stop\n    tag_2:\n      0x00\n      dup1\n      revert\n        /* \"chainlink/random.sol\":186:427  function roll(uint8 dice_number) public payable {... */\n    tag_3:\n      tag_7\n      0x04\n      dup1\n      calldatasize\n      sub\n      dup2\n      add\n      swap1\n      tag_8\n      swap2\n      swap1\n      tag_9\n      jump\t// in\n    tag_8:\n      tag_10\n      jump\t// in\n    tag_7:\n      stop\n        /* \"chainlink/random.sol\":433:513  function getWinner() public view returns(address) {... */\n    tag_4:\n      callvalue\n      dup1\n      iszero\n      tag_11\n      jumpi\n      0x00\n      dup1\n      revert\n    tag_11:\n      pop\n      tag_12\n      tag_13\n      jump\t// in\n    tag_12:\n      mload(0x40)\n      tag_14\n      swap2\n      swap1\n      tag_15\n      jump\t// in\n    tag_14:\n      mload(0x40)\n      dup1\n      swap2\n      sub\n      swap1\n      return\n        /* \"chainlink/random.sol\":186:427  function roll(uint8 dice_number) public payable {... */\n    tag_10:\n        /* \"chainlink/random.sol\":244:254  uint8 dice */\n      0x00\n        /* \"chainlink/random.sol\":337:340  251 */\n      0xfb\n        /* \"chainlink/random.sol\":298:313  block.timestamp */\n      timestamp\n        /* \"chainlink/random.sol\":315:331  block.difficulty */\n      difficulty\n        /* \"chainlink/random.sol\":281:332  abi.encodePacked(block.timestamp, block.difficulty) */\n      add(0x20, mload(0x40))\n      tag_17\n      swap3\n      swap2\n      swap1\n      tag_18\n      jump\t// in\n    tag_17:\n      mload(0x40)\n      0x20\n      dup2\n      dup4\n      sub\n      sub\n      dup2\n      mstore\n      swap1\n      0x40\n      mstore\n        /* \"chainlink/random.sol\":271:333  keccak256(abi.encodePacked(block.timestamp, block.difficulty)) */\n      dup1\n      mload\n      swap1\n      0x20\n      add\n      keccak256\n        /* \"chainlink/random.sol\":263:334  uint256(keccak256(abi.encodePacked(block.timestamp, block.difficulty))) */\n      0x00\n      shr\n        /* \"chainlink/random.sol\":263:340  uint256(keccak256(abi.encodePacked(block.timestamp, block.difficulty))) % 251 */\n      tag_19\n      swap2\n      swap1\n      tag_20\n      jump\t// in\n    tag_19:\n        /* \"chainlink/random.sol\":244:341  uint8 dice = uint8(uint256(keccak256(abi.encodePacked(block.timestamp, block.difficulty))) % 251) */\n      swap1\n      pop\n        /* \"chainlink/random.sol\":371:375  dice */\n      dup1\n        /* \"chainlink/random.sol\":356:375  dice_number == dice */\n      0xff\n      and\n        /* \"chainlink/random.sol\":356:367  dice_number */\n      dup3\n        /* \"chainlink/random.sol\":356:375  dice_number == dice */\n      0xff\n      and\n      eq\n        /* \"chainlink/random.sol\":352:421  if (dice_number == dice) {... */\n      iszero\n      tag_21\n      jumpi\n        /* \"chainlink/random.sol\":400:410  msg.sender */\n      caller\n        /* \"chainlink/random.sol\":391:397  winner */\n      0x00\n      dup1\n        /* \"chainlink/random.sol\":391:410  winner = msg.sender */\n      0x0100\n      exp\n      dup2\n      sload\n      dup2\n      0xffffffffffffffffffffffffffffffffffffffff\n      mul\n      not\n      and\n      swap1\n      dup4\n      0xffffffffffffffffffffffffffffffffffffffff\n      and\n      mul\n      or\n      swap1\n      sstore\n      pop\n        /* \"chainlink/random.sol\":352:421  if (dice_number == dice) {... */\n    tag_21:\n        /* \"chainlink/random.sol\":234:427  {... */\n      pop\n        /* \"chainlink/random.sol\":186:427  function roll(uint8 dice_number) public payable {... */\n      pop\n      jump\t// out\n        /* \"chainlink/random.sol\":433:513  function getWinner() public view returns(address) {... */\n    tag_13:\n        /* \"chainlink/random.sol\":474:481  address */\n      0x00\n        /* \"chainlink/random.sol\":500:506  winner */\n      dup1\n      0x00\n      swap1\n      sload\n      swap1\n      0x0100\n      exp\n      swap1\n      div\n      0xffffffffffffffffffffffffffffffffffffffff\n      and\n        /* \"chainlink/random.sol\":493:506  return winner */\n      swap1\n      pop\n        /* \"chainlink/random.sol\":433:513  function getWinner() public view returns(address) {... */\n      swap1\n      jump\t// out\n        /* \"#utility.yul\":7:142   */\n    tag_24:\n        /* \"#utility.yul\":51:56   */\n      0x00\n        /* \"#utility.yul\":89:95   */\n      dup2\n        /* \"#utility.yul\":76:96   */\n      calldataload\n        /* \"#utility.yul\":67:96   */\n      swap1\n      pop\n        /* \"#utility.yul\":105:136   */\n      tag_26\n        /* \"#utility.yul\":130:135   */\n      dup2\n        /* \"#utility.yul\":105:136   */\n      tag_27\n      jump\t// in\n    tag_26:\n        /* \"#utility.yul\":7:142   */\n      swap3\n      swap2\n      pop\n      pop\n      jump\t// out\n        /* \"#utility.yul\":148:473   */\n    tag_9:\n        /* \"#utility.yul\":205:211   */\n      0x00\n        /* \"#utility.yul\":254:256   */\n      0x20\n        /* \"#utility.yul\":242:251   */\n      dup3\n        /* \"#utility.yul\":233:240   */\n      dup5\n        /* \"#utility.yul\":229:252   */\n      sub\n        /* \"#utility.yul\":225:257   */\n      slt\n        /* \"#utility.yul\":222:341   */\n      iszero\n      tag_29\n      jumpi\n        /* \"#utility.yul\":260:339   */\n      tag_30\n      tag_31\n      jump\t// in\n    tag_30:\n        /* \"#utility.yul\":222:341   */\n    tag_29:\n        /* \"#utility.yul\":380:381   */\n      0x00\n        /* \"#utility.yul\":405:456   */\n      tag_32\n        /* \"#utility.yul\":448:455   */\n      dup5\n        /* \"#utility.yul\":439:445   */\n      dup3\n        /* \"#utility.yul\":428:437   */\n      dup6\n        /* \"#utility.yul\":424:446   */\n      add\n        /* \"#utility.yul\":405:456   */\n      tag_24\n      jump\t// in\n    tag_32:\n        /* \"#utility.yul\":395:456   */\n      swap2\n      pop\n        /* \"#utility.yul\":351:466   */\n      pop\n        /* \"#utility.yul\":148:473   */\n      swap3\n      swap2\n      pop\n      pop\n      jump\t// out\n        /* \"#utility.yul\":479:597   */\n    tag_33:\n        /* \"#utility.yul\":566:590   */\n      tag_35\n        /* \"#utility.yul\":584:589   */\n      dup2\n        /* \"#utility.yul\":566:590   */\n      tag_36\n      jump\t// in\n    tag_35:\n        /* \"#utility.yul\":561:564   */\n      dup3\n        /* \"#utility.yul\":554:591   */\n      mstore\n        /* \"#utility.yul\":479:597   */\n      pop\n      pop\n      jump\t// out\n        /* \"#utility.yul\":603:760   */\n    tag_37:\n        /* \"#utility.yul\":708:753   */\n      tag_39\n        /* \"#utility.yul\":728:752   */\n      tag_40\n        /* \"#utility.yul\":746:751   */\n      dup3\n        /* \"#utility.yul\":728:752   */\n      tag_41\n      jump\t// in\n    tag_40:\n        /* \"#utility.yul\":708:753   */\n      tag_42\n      jump\t// in\n    tag_39:\n        /* \"#utility.yul\":703:706   */\n      dup3\n        /* \"#utility.yul\":696:754   */\n      mstore\n        /* \"#utility.yul\":603:760   */\n      pop\n      pop\n      jump\t// out\n        /* \"#utility.yul\":766:1163   */\n    tag_18:\n        /* \"#utility.yul\":906:909   */\n      0x00\n        /* \"#utility.yul\":921:996   */\n      tag_44\n        /* \"#utility.yul\":992:995   */\n      dup3\n        /* \"#utility.yul\":983:989   */\n      dup6\n        /* \"#utility.yul\":921:996   */\n      tag_37\n      jump\t// in\n    tag_44:\n        /* \"#utility.yul\":1021:1023   */\n      0x20\n        /* \"#utility.yul\":1016:1019   */\n      dup3\n        /* \"#utility.yul\":1012:1024   */\n      add\n        /* \"#utility.yul\":1005:1024   */\n      swap2\n      pop\n        /* \"#utility.yul\":1034:1109   */\n      tag_45\n        /* \"#utility.yul\":1105:1108   */\n      dup3\n        /* \"#utility.yul\":1096:1102   */\n      dup5\n        /* \"#utility.yul\":1034:1109   */\n      tag_37\n      jump\t// in\n    tag_45:\n        /* \"#utility.yul\":1134:1136   */\n      0x20\n        /* \"#utility.yul\":1129:1132   */\n      dup3\n        /* \"#utility.yul\":1125:1137   */\n      add\n        /* \"#utility.yul\":1118:1137   */\n      swap2\n      pop\n        /* \"#utility.yul\":1154:1157   */\n      dup2\n        /* \"#utility.yul\":1147:1157   */\n      swap1\n      pop\n        /* \"#utility.yul\":766:1163   */\n      swap4\n      swap3\n      pop\n      pop\n      pop\n      jump\t// out\n        /* \"#utility.yul\":1169:1391   */\n    tag_15:\n        /* \"#utility.yul\":1262:1266   */\n      0x00\n        /* \"#utility.yul\":1300:1302   */\n      0x20\n        /* \"#utility.yul\":1289:1298   */\n      dup3\n        /* \"#utility.yul\":1285:1303   */\n      add\n        /* \"#utility.yul\":1277:1303   */\n      swap1\n      pop\n        /* \"#utility.yul\":1313:1384   */\n      tag_47\n        /* \"#utility.yul\":1381:1382   */\n      0x00\n        /* \"#utility.yul\":1370:1379   */\n      dup4\n        /* \"#utility.yul\":1366:1383   */\n      add\n        /* \"#utility.yul\":1357:1363   */\n      dup5\n        /* \"#utility.yul\":1313:1384   */\n      tag_33\n      jump\t// in\n    tag_47:\n        /* \"#utility.yul\":1169:1391   */\n      swap3\n      swap2\n      pop\n      pop\n      jump\t// out\n        /* \"#utility.yul\":1478:1574   */\n    tag_36:\n        /* \"#utility.yul\":1515:1522   */\n      0x00\n        /* \"#utility.yul\":1544:1568   */\n      tag_51\n        /* \"#utility.yul\":1562:1567   */\n      dup3\n        /* \"#utility.yul\":1544:1568   */\n      tag_52\n      jump\t// in\n    tag_51:\n        /* \"#utility.yul\":1533:1568   */\n      swap1\n      pop\n        /* \"#utility.yul\":1478:1574   */\n      swap2\n      swap1\n      pop\n      jump\t// out\n        /* \"#utility.yul\":1580:1706   */\n    tag_52:\n        /* \"#utility.yul\":1617:1624   */\n      0x00\n        /* \"#utility.yul\":1657:1699   */\n      0xffffffffffffffffffffffffffffffffffffffff\n        /* \"#utility.yul\":1650:1655   */\n      dup3\n        /* \"#utility.yul\":1646:1700   */\n      and\n        /* \"#utility.yul\":1635:1700   */\n      swap1\n      pop\n        /* \"#utility.yul\":1580:1706   */\n      swap2\n      swap1\n      pop\n      jump\t// out\n        /* \"#utility.yul\":1712:1789   */\n    tag_41:\n        /* \"#utility.yul\":1749:1756   */\n      0x00\n        /* \"#utility.yul\":1778:1783   */\n      dup2\n        /* \"#utility.yul\":1767:1783   */\n      swap1\n      pop\n        /* \"#utility.yul\":1712:1789   */\n      swap2\n      swap1\n      pop\n      jump\t// out\n        /* \"#utility.yul\":1795:1881   */\n    tag_55:\n        /* \"#utility.yul\":1830:1837   */\n      0x00\n        /* \"#utility.yul\":1870:1874   */\n      0xff\n        /* \"#utility.yul\":1863:1868   */\n      dup3\n        /* \"#utility.yul\":1859:1875   */\n      and\n        /* \"#utility.yul\":1848:1875   */\n      swap1\n      pop\n        /* \"#utility.yul\":1795:1881   */\n      swap2\n      swap1\n      pop\n      jump\t// out\n        /* \"#utility.yul\":1887:1966   */\n    tag_42:\n        /* \"#utility.yul\":1926:1933   */\n      0x00\n        /* \"#utility.yul\":1955:1960   */\n      dup2\n        /* \"#utility.yul\":1944:1960   */\n      swap1\n      pop\n        /* \"#utility.yul\":1887:1966   */\n      swap2\n      swap1\n      pop\n      jump\t// out\n        /* \"#utility.yul\":1972:2148   */\n    tag_20:\n        /* \"#utility.yul\":2004:2005   */\n      0x00\n        /* \"#utility.yul\":2021:2041   */\n      tag_59\n        /* \"#utility.yul\":2039:2040   */\n      dup3\n        /* \"#utility.yul\":2021:2041   */\n      tag_41\n      jump\t// in\n    tag_59:\n        /* \"#utility.yul\":2016:2041   */\n      swap2\n      pop\n        /* \"#utility.yul\":2055:2075   */\n      tag_60\n        /* \"#utility.yul\":2073:2074   */\n      dup4\n        /* \"#utility.yul\":2055:2075   */\n      tag_41\n      jump\t// in\n    tag_60:\n        /* \"#utility.yul\":2050:2075   */\n      swap3\n      pop\n        /* \"#utility.yul\":2094:2095   */\n      dup3\n        /* \"#utility.yul\":2084:2119   */\n      tag_61\n      jumpi\n        /* \"#utility.yul\":2099:2117   */\n      tag_62\n      tag_63\n      jump\t// in\n    tag_62:\n        /* \"#utility.yul\":2084:2119   */\n    tag_61:\n        /* \"#utility.yul\":2140:2141   */\n      dup3\n        /* \"#utility.yul\":2137:2138   */\n      dup3\n        /* \"#utility.yul\":2133:2142   */\n      mod\n        /* \"#utility.yul\":2128:2142   */\n      swap1\n      pop\n        /* \"#utility.yul\":1972:2148   */\n      swap3\n      swap2\n      pop\n      pop\n      jump\t// out\n        /* \"#utility.yul\":2154:2334   */\n    tag_63:\n        /* \"#utility.yul\":2202:2279   */\n      0x4e487b7100000000000000000000000000000000000000000000000000000000\n        /* \"#utility.yul\":2199:2200   */\n      0x00\n        /* \"#utility.yul\":2192:2280   */\n      mstore\n        /* \"#utility.yul\":2299:2303   */\n      0x12\n        /* \"#utility.yul\":2296:2297   */\n      0x04\n        /* \"#utility.yul\":2289:2304   */\n      mstore\n        /* \"#utility.yul\":2323:2327   */\n      0x24\n        /* \"#utility.yul\":2320:2321   */\n      0x00\n        /* \"#utility.yul\":2313:2328   */\n      revert\n        /* \"#utility.yul\":2463:2580   */\n    tag_31:\n        /* \"#utility.yul\":2572:2573   */\n      0x00\n        /* \"#utility.yul\":2569:2570   */\n      dup1\n        /* \"#utility.yul\":2562:2574   */\n      revert\n        /* \"#utility.yul\":2586:2704   */\n    tag_27:\n        /* \"#utility.yul\":2657:2679   */\n      tag_69\n        /* \"#utility.yul\":2673:2678   */\n      dup2\n        /* \"#utility.yul\":2657:2679   */\n      tag_55\n      jump\t// in\n    tag_69:\n        /* \"#utility.yul\":2650:2655   */\n      dup2\n        /* \"#utility.yul\":2647:2680   */\n      eq\n        /* \"#utility.yul\":2637:2698   */\n      tag_70\n      jumpi\n        /* \"#utility.yul\":2694:2695   */\n      0x00\n        /* \"#utility.yul\":2691:2692   */\n      dup1\n        /* \"#utility.yul\":2684:2696   */\n      revert\n        /* \"#utility.yul\":2637:2698   */\n    tag_70:\n        /* \"#utility.yul\":2586:2704   */\n      pop\n      jump\t// out\n\n    auxdata: 0xa26469706673582212204335bae89342e863b7004e836f6079a230ee837fbbd6f29be566be5805ff087964736f6c63430008070033\n}\n",
				"bytecode": {
					"linkReferences": {},
					"object": "60806040526102ec806100136000396000f3fe60806040526004361061002d5760003560e01c80636bf0f4a1146100395780638e7ea5b21461005557610034565b3661003457005b600080fd5b610053600480360381019061004e919061014d565b610080565b005b34801561006157600080fd5b5061006a61010f565b60405161007791906101cc565b60405180910390f35b600060fb42446040516020016100979291906101a0565b6040516020818303038152906040528051906020012060001c6100ba919061023a565b90508060ff168260ff16141561010b57336000806101000a81548173ffffffffffffffffffffffffffffffffffffffff021916908373ffffffffffffffffffffffffffffffffffffffff1602179055505b5050565b60008060009054906101000a900473ffffffffffffffffffffffffffffffffffffffff16905090565b6000813590506101478161029f565b92915050565b6000602082840312156101635761016261029a565b5b600061017184828501610138565b91505092915050565b610183816101e7565b82525050565b61019a61019582610219565b610230565b82525050565b60006101ac8285610189565b6020820191506101bc8284610189565b6020820191508190509392505050565b60006020820190506101e1600083018461017a565b92915050565b60006101f2826101f9565b9050919050565b600073ffffffffffffffffffffffffffffffffffffffff82169050919050565b6000819050919050565b600060ff82169050919050565b6000819050919050565b600061024582610219565b915061025083610219565b9250826102605761025f61026b565b5b828206905092915050565b7f4e487b7100000000000000000000000000000000000000000000000000000000600052601260045260246000fd5b600080fd5b6102a881610223565b81146102b357600080fd5b5056fea26469706673582212204335bae89342e863b7004e836f6079a230ee837fbbd6f29be566be5805ff087964736f6c63430008070033",
					"opcodes": "PUSH1 0x80 PUSH1 0x40 MSTORE PUSH2 0x2EC DUP1 PUSH2 0x13 PUSH1 0x0 CODECOPY PUSH1 0x0 RETURN INVALID PUSH1 0x80 PUSH1 0x40 MSTORE PUSH1 0x4 CALLDATASIZE LT PUSH2 0x2D JUMPI PUSH1 0x0 CALLDATALOAD PUSH1 0xE0 SHR DUP1 PUSH4 0x6BF0F4A1 EQ PUSH2 0x39 JUMPI DUP1 PUSH4 0x8E7EA5B2 EQ PUSH2 0x55 JUMPI PUSH2 0x34 JUMP JUMPDEST CALLDATASIZE PUSH2 0x34 JUMPI STOP JUMPDEST PUSH1 0x0 DUP1 REVERT JUMPDEST PUSH2 0x53 PUSH1 0x4 DUP1 CALLDATASIZE SUB DUP2 ADD SWAP1 PUSH2 0x4E SWAP2 SWAP1 PUSH2 0x14D JUMP JUMPDEST PUSH2 0x80 JUMP JUMPDEST STOP JUMPDEST CALLVALUE DUP1 ISZERO PUSH2 0x61 JUMPI PUSH1 0x0 DUP1 REVERT JUMPDEST POP PUSH2 0x6A PUSH2 0x10F JUMP JUMPDEST PUSH1 0x40 MLOAD PUSH2 0x77 SWAP2 SWAP1 PUSH2 0x1CC JUMP JUMPDEST PUSH1 0x40 MLOAD DUP1 SWAP2 SUB SWAP1 RETURN JUMPDEST PUSH1 0x0 PUSH1 0xFB TIMESTAMP DIFFICULTY PUSH1 0x40 MLOAD PUSH1 0x20 ADD PUSH2 0x97 SWAP3 SWAP2 SWAP1 PUSH2 0x1A0 JUMP JUMPDEST PUSH1 0x40 MLOAD PUSH1 0x20 DUP2 DUP4 SUB SUB DUP2 MSTORE SWAP1 PUSH1 0x40 MSTORE DUP1 MLOAD SWAP1 PUSH1 0x20 ADD KECCAK256 PUSH1 0x0 SHR PUSH2 0xBA SWAP2 SWAP1 PUSH2 0x23A JUMP JUMPDEST SWAP1 POP DUP1 PUSH1 0xFF AND DUP3 PUSH1 0xFF AND EQ ISZERO PUSH2 0x10B JUMPI CALLER PUSH1 0x0 DUP1 PUSH2 0x100 EXP DUP2 SLOAD DUP2 PUSH20 0xFFFFFFFFFFFFFFFFFFFFFFFFFFFFFFFFFFFFFFFF MUL NOT AND SWAP1 DUP4 PUSH20 0xFFFFFFFFFFFFFFFFFFFFFFFFFFFFFFFFFFFFFFFF AND MUL OR SWAP1 SSTORE POP JUMPDEST POP POP JUMP JUMPDEST PUSH1 0x0 DUP1 PUSH1 0x0 SWAP1 SLOAD SWAP1 PUSH2 0x100 EXP SWAP1 DIV PUSH20 0xFFFFFFFFFFFFFFFFFFFFFFFFFFFFFFFFFFFFFFFF AND SWAP1 POP SWAP1 JUMP JUMPDEST PUSH1 0x0 DUP2 CALLDATALOAD SWAP1 POP PUSH2 0x147 DUP2 PUSH2 0x29F JUMP JUMPDEST SWAP3 SWAP2 POP POP JUMP JUMPDEST PUSH1 0x0 PUSH1 0x20 DUP3 DUP5 SUB SLT ISZERO PUSH2 0x163 JUMPI PUSH2 0x162 PUSH2 0x29A JUMP JUMPDEST JUMPDEST PUSH1 0x0 PUSH2 0x171 DUP5 DUP3 DUP6 ADD PUSH2 0x138 JUMP JUMPDEST SWAP2 POP POP SWAP3 SWAP2 POP POP JUMP JUMPDEST PUSH2 0x183 DUP2 PUSH2 0x1E7 JUMP JUMPDEST DUP3 MSTORE POP POP JUMP JUMPDEST PUSH2 0x19A PUSH2 0x195 DUP3 PUSH2 0x219 JUMP JUMPDEST PUSH2 0x230 JUMP JUMPDEST DUP3 MSTORE POP POP JUMP JUMPDEST PUSH1 0x0 PUSH2 0x1AC DUP3 DUP6 PUSH2 0x189 JUMP JUMPDEST PUSH1 0x20 DUP3 ADD SWAP2 POP PUSH2 0x1BC DUP3 DUP5 PUSH2 0x189 JUMP JUMPDEST PUSH1 0x20 DUP3 ADD SWAP2 POP DUP2 SWAP1 POP SWAP4 SWAP3 POP POP POP JUMP JUMPDEST PUSH1 0x0 PUSH1 0x20 DUP3 ADD SWAP1 POP PUSH2 0x1E1 PUSH1 0x0 DUP4 ADD DUP5 PUSH2 0x17A JUMP JUMPDEST SWAP3 SWAP2 POP POP JUMP JUMPDEST PUSH1 0x0 PUSH2 0x1F2 DUP3 PUSH2 0x1F9 JUMP JUMPDEST SWAP1 POP SWAP2 SWAP1 POP JUMP JUMPDEST PUSH1 0x0 PUSH20 0xFFFFFFFFFFFFFFFFFFFFFFFFFFFFFFFFFFFFFFFF DUP3 AND SWAP1 POP SWAP2 SWAP1 POP JUMP JUMPDEST PUSH1 0x0 DUP2 SWAP1 POP SWAP2 SWAP1 POP JUMP JUMPDEST PUSH1 0x0 PUSH1 0xFF DUP3 AND SWAP1 POP SWAP2 SWAP1 POP JUMP JUMPDEST PUSH1 0x0 DUP2 SWAP1 POP SWAP2 SWAP1 POP JUMP JUMPDEST PUSH1 0x0 PUSH2 0x245 DUP3 PUSH2 0x219 JUMP JUMPDEST SWAP2 POP PUSH2 0x250 DUP4 PUSH2 0x219 JUMP JUMPDEST SWAP3 POP DUP3 PUSH2 0x260 JUMPI PUSH2 0x25F PUSH2 0x26B JUMP JUMPDEST JUMPDEST DUP3 DUP3 MOD SWAP1 POP SWAP3 SWAP2 POP POP JUMP JUMPDEST PUSH32 0x4E487B7100000000000000000000000000000000000000000000000000000000 PUSH1 0x0 MSTORE PUSH1 0x12 PUSH1 0x4 MSTORE PUSH1 0x24 PUSH1 0x0 REVERT JUMPDEST PUSH1 0x0 DUP1 REVERT JUMPDEST PUSH2 0x2A8 DUP2 PUSH2 0x223 JUMP JUMPDEST DUP2 EQ PUSH2 0x2B3 JUMPI PUSH1 0x0 DUP1 REVERT JUMPDEST POP JUMP INVALID LOG2 PUSH5 0x6970667358 0x22 SLT KECCAK256 NUMBER CALLDATALOAD 0xBA 0xE8 SWAP4 TIMESTAMP 0xE8 PUSH4 0xB7004E83 PUSH16 0x6079A230EE837FBBD6F29BE566BE5805 SELFDESTRUCT ADDMOD PUSH26 0x64736F6C63430008070033000000000000000000000000000000 "
				},
				"gasEstimates": {
					"creation": {
						"codeDepositCost": "149600",
						"executionCost": "172",
						"totalCost": "149772"
					},
					"external": {
						"getWinner()": "2522",
						"roll(uint8)": "infinite"
					}
				},
				"methodIdentifiers": {
					"getWinner()": "8e7ea5b2",
					"roll(uint8)": "6bf0f4a1"
				}
			},
			"storageLayout": {
				"storage": [
					{
						"astId": 11,
						"contract": "chainlink/random.sol:Dice",
						"label": "winner",
						"offset": 0,
						"slot": "0",
						"type": "t_address"
					}
				],
				"types": {
					"t_address": {
						"encoding": "inplace",
						"label": "address",
						"numberOfBytes": "20"
					}
				}
			},
			"userdoc": {
				"kind": "user",
				"methods": {},
				"version": 1
			}
		}
	}
}