{
	"chainlink/getprice_chainlink.sol": {
		"PriceConsumerV3": {
			"abi": [
				{
					"inputs": [],
					"stateMutability": "nonpayable",
					"type": "constructor"
				},
				{
					"inputs": [],
					"name": "getDecimals",
					"outputs": [
						{
							"internalType": "uint8",
							"name": "",
							"type": "uint8"
						}
					],
					"stateMutability": "view",
					"type": "function"
				},
				{
					"inputs": [],
					"name": "getDescription",
					"outputs": [
						{
							"internalType": "string",
							"name": "",
							"type": "string"
						}
					],
					"stateMutability": "view",
					"type": "function"
				},
				{
					"inputs": [],
					"name": "getLatestPrice",
					"outputs": [
						{
							"internalType": "int256",
							"name": "",
							"type": "int256"
						}
					],
					"stateMutability": "view",
					"type": "function"
				}
			],
			"devdoc": {
				"kind": "dev",
				"methods": {},
				"version": 1
			},
			"evm": {
				"assembly": "    /* \"chainlink/getprice_chainlink.sol\":145:1089  contract PriceConsumerV3 {... */\n  mstore(0x40, 0x80)\n    /* \"chainlink/getprice_chainlink.sol\":350:458  constructor() {... */\n  callvalue\n  dup1\n  iszero\n  tag_1\n  jumpi\n  0x00\n  dup1\n  revert\ntag_1:\n  pop\n    /* \"chainlink/getprice_chainlink.sol\":408:450  0xD4a33860578De61DBAbDc8BFdb98FD742fA7028e */\n  0xd4a33860578de61dbabdc8bfdb98fd742fa7028e\n    /* \"chainlink/getprice_chainlink.sol\":374:383  priceFeed */\n  0x00\n  dup1\n    /* \"chainlink/getprice_chainlink.sol\":374:451  priceFeed = AggregatorV3Interface(0xD4a33860578De61DBAbDc8BFdb98FD742fA7028e) */\n  0x0100\n  exp\n  dup2\n  sload\n  dup2\n  0xffffffffffffffffffffffffffffffffffffffff\n  mul\n  not\n  and\n  swap1\n  dup4\n  0xffffffffffffffffffffffffffffffffffffffff\n  and\n  mul\n  or\n  swap1\n  sstore\n  pop\n    /* \"chainlink/getprice_chainlink.sol\":145:1089  contract PriceConsumerV3 {... */\n  dataSize(sub_0)\n  dup1\n  dataOffset(sub_0)\n  0x00\n  codecopy\n  0x00\n  return\nstop\n\nsub_0: assembly {\n        /* \"chainlink/getprice_chainlink.sol\":145:1089  contract PriceConsumerV3 {... */\n      mstore(0x40, 0x80)\n      callvalue\n      dup1\n      iszero\n      tag_1\n      jumpi\n      0x00\n      dup1\n      revert\n    tag_1:\n      pop\n      jumpi(tag_2, lt(calldatasize, 0x04))\n      shr(0xe0, calldataload(0x00))\n      dup1\n      0x1a092541\n      eq\n      tag_3\n      jumpi\n      dup1\n      0x8e15f473\n      eq\n      tag_4\n      jumpi\n      dup1\n      0xf0141d84\n      eq\n      tag_5\n      jumpi\n    tag_2:\n      0x00\n      dup1\n      revert\n        /* \"chainlink/getprice_chainlink.sol\":592:736  function getDescription() external view returns (string memory) {... */\n    tag_3:\n      tag_6\n      tag_7\n      jump\t// in\n    tag_6:\n      mload(0x40)\n      tag_8\n      swap2\n      swap1\n      tag_9\n      jump\t// in\n    tag_8:\n      mload(0x40)\n      dup1\n      swap2\n      sub\n      swap1\n      return\n        /* \"chainlink/getprice_chainlink.sol\":791:1081  function getLatestPrice() public view returns (int) {... */\n    tag_4:\n      tag_10\n      tag_11\n      jump\t// in\n    tag_10:\n      mload(0x40)\n      tag_12\n      swap2\n      swap1\n      tag_13\n      jump\t// in\n    tag_12:\n      mload(0x40)\n      dup1\n      swap2\n      sub\n      swap1\n      return\n        /* \"chainlink/getprice_chainlink.sol\":464:586  function getDecimals() external view returns (uint8) {... */\n    tag_5:\n      tag_14\n      tag_15\n      jump\t// in\n    tag_14:\n      mload(0x40)\n      tag_16\n      swap2\n      swap1\n      tag_17\n      jump\t// in\n    tag_16:\n      mload(0x40)\n      dup1\n      swap2\n      sub\n      swap1\n      return\n        /* \"chainlink/getprice_chainlink.sol\":592:736  function getDescription() external view returns (string memory) {... */\n    tag_7:\n        /* \"chainlink/getprice_chainlink.sol\":641:654  string memory */\n      0x60\n        /* \"chainlink/getprice_chainlink.sol\":666:683  string memory des */\n      0x00\n        /* \"chainlink/getprice_chainlink.sol\":686:695  priceFeed */\n      dup1\n      0x00\n      swap1\n      sload\n      swap1\n      0x0100\n      exp\n      swap1\n      div\n      0xffffffffffffffffffffffffffffffffffffffff\n      and\n        /* \"chainlink/getprice_chainlink.sol\":686:707  priceFeed.description */\n      0xffffffffffffffffffffffffffffffffffffffff\n      and\n      0x7284e416\n        /* \"chainlink/getprice_chainlink.sol\":686:709  priceFeed.description() */\n      mload(0x40)\n      dup2\n      0xffffffff\n      and\n      0xe0\n      shl\n      dup2\n      mstore\n      0x04\n      add\n      0x00\n      mload(0x40)\n      dup1\n      dup4\n      sub\n      dup2\n      dup7\n      dup1\n      extcodesize\n      iszero\n      dup1\n      iszero\n      tag_19\n      jumpi\n      0x00\n      dup1\n      revert\n    tag_19:\n      pop\n      gas\n      staticcall\n      iszero\n      dup1\n      iszero\n      tag_21\n      jumpi\n      returndatasize\n      0x00\n      dup1\n      returndatacopy\n      revert(0x00, returndatasize)\n    tag_21:\n      pop\n      pop\n      pop\n      pop\n      mload(0x40)\n      returndatasize\n      0x00\n      dup3\n      returndatacopy\n      returndatasize\n      not(0x1f)\n      0x1f\n      dup3\n      add\n      and\n      dup3\n      add\n      dup1\n      0x40\n      mstore\n      pop\n      dup2\n      add\n      swap1\n      tag_22\n      swap2\n      swap1\n      tag_23\n      jump\t// in\n    tag_22:\n        /* \"chainlink/getprice_chainlink.sol\":666:709  string memory des = priceFeed.description() */\n      swap1\n      pop\n        /* \"chainlink/getprice_chainlink.sol\":726:729  des */\n      dup1\n        /* \"chainlink/getprice_chainlink.sol\":719:729  return des */\n      swap2\n      pop\n      pop\n        /* \"chainlink/getprice_chainlink.sol\":592:736  function getDescription() external view returns (string memory) {... */\n      swap1\n      jump\t// out\n        /* \"chainlink/getprice_chainlink.sol\":791:1081  function getLatestPrice() public view returns (int) {... */\n    tag_11:\n        /* \"chainlink/getprice_chainlink.sol\":838:841  int */\n      0x00\n        /* \"chainlink/getprice_chainlink.sol\":899:908  int price */\n      dup1\n        /* \"chainlink/getprice_chainlink.sol\":1025:1034  priceFeed */\n      0x00\n      dup1\n      sload\n      swap1\n      0x0100\n      exp\n      swap1\n      div\n      0xffffffffffffffffffffffffffffffffffffffff\n      and\n        /* \"chainlink/getprice_chainlink.sol\":1025:1050  priceFeed.latestRoundData */\n      0xffffffffffffffffffffffffffffffffffffffff\n      and\n      0xfeaf968c\n        /* \"chainlink/getprice_chainlink.sol\":1025:1052  priceFeed.latestRoundData() */\n      mload(0x40)\n      dup2\n      0xffffffff\n      and\n      0xe0\n      shl\n      dup2\n      mstore\n      0x04\n      add\n      0xa0\n      mload(0x40)\n      dup1\n      dup4\n      sub\n      dup2\n      dup7\n      dup1\n      extcodesize\n      iszero\n      dup1\n      iszero\n      tag_25\n      jumpi\n      0x00\n      dup1\n      revert\n    tag_25:\n      pop\n      gas\n      staticcall\n      iszero\n      dup1\n      iszero\n      tag_27\n      jumpi\n      returndatasize\n      0x00\n      dup1\n      returndatacopy\n      revert(0x00, returndatasize)\n    tag_27:\n      pop\n      pop\n      pop\n      pop\n      mload(0x40)\n      returndatasize\n      not(0x1f)\n      0x1f\n      dup3\n      add\n      and\n      dup3\n      add\n      dup1\n      0x40\n      mstore\n      pop\n      dup2\n      add\n      swap1\n      tag_28\n      swap2\n      swap1\n      tag_29\n      jump\t// in\n    tag_28:\n        /* \"chainlink/getprice_chainlink.sol\":853:1052  (... */\n      pop\n      pop\n      pop\n      swap2\n      pop\n      pop\n        /* \"chainlink/getprice_chainlink.sol\":1069:1074  price */\n      dup1\n        /* \"chainlink/getprice_chainlink.sol\":1062:1074  return price */\n      swap2\n      pop\n      pop\n        /* \"chainlink/getprice_chainlink.sol\":791:1081  function getLatestPrice() public view returns (int) {... */\n      swap1\n      jump\t// out\n        /* \"chainlink/getprice_chainlink.sol\":464:586  function getDecimals() external view returns (uint8) {... */\n    tag_15:\n        /* \"chainlink/getprice_chainlink.sol\":510:515  uint8 */\n      0x00\n        /* \"chainlink/getprice_chainlink.sol\":527:536  uint8 dec */\n      dup1\n        /* \"chainlink/getprice_chainlink.sol\":539:548  priceFeed */\n      0x00\n      dup1\n      sload\n      swap1\n      0x0100\n      exp\n      swap1\n      div\n      0xffffffffffffffffffffffffffffffffffffffff\n      and\n        /* \"chainlink/getprice_chainlink.sol\":539:557  priceFeed.decimals */\n      0xffffffffffffffffffffffffffffffffffffffff\n      and\n      0x313ce567\n        /* \"chainlink/getprice_chainlink.sol\":539:559  priceFeed.decimals() */\n      mload(0x40)\n      dup2\n      0xffffffff\n      and\n      0xe0\n      shl\n      dup2\n      mstore\n      0x04\n      add\n      0x20\n      mload(0x40)\n      dup1\n      dup4\n      sub\n      dup2\n      dup7\n      dup1\n      extcodesize\n      iszero\n      dup1\n      iszero\n      tag_31\n      jumpi\n      0x00\n      dup1\n      revert\n    tag_31:\n      pop\n      gas\n      staticcall\n      iszero\n      dup1\n      iszero\n      tag_33\n      jumpi\n      returndatasize\n      0x00\n      dup1\n      returndatacopy\n      revert(0x00, returndatasize)\n    tag_33:\n      pop\n      pop\n      pop\n      pop\n      mload(0x40)\n      returndatasize\n      not(0x1f)\n      0x1f\n      dup3\n      add\n      and\n      dup3\n      add\n      dup1\n      0x40\n      mstore\n      pop\n      dup2\n      add\n      swap1\n      tag_34\n      swap2\n      swap1\n      tag_35\n      jump\t// in\n    tag_34:\n        /* \"chainlink/getprice_chainlink.sol\":527:559  uint8 dec = priceFeed.decimals() */\n      swap1\n      pop\n        /* \"chainlink/getprice_chainlink.sol\":576:579  dec */\n      dup1\n        /* \"chainlink/getprice_chainlink.sol\":569:579  return dec */\n      swap2\n      pop\n      pop\n        /* \"chainlink/getprice_chainlink.sol\":464:586  function getDecimals() external view returns (uint8) {... */\n      swap1\n      jump\t// out\n        /* \"#utility.yul\":7:428   */\n    tag_37:\n        /* \"#utility.yul\":96:101   */\n      0x00\n        /* \"#utility.yul\":121:187   */\n      tag_39\n        /* \"#utility.yul\":137:186   */\n      tag_40\n        /* \"#utility.yul\":179:185   */\n      dup5\n        /* \"#utility.yul\":137:186   */\n      tag_41\n      jump\t// in\n    tag_40:\n        /* \"#utility.yul\":121:187   */\n      tag_42\n      jump\t// in\n    tag_39:\n        /* \"#utility.yul\":112:187   */\n      swap1\n      pop\n        /* \"#utility.yul\":210:216   */\n      dup3\n        /* \"#utility.yul\":203:208   */\n      dup2\n        /* \"#utility.yul\":196:217   */\n      mstore\n        /* \"#utility.yul\":248:252   */\n      0x20\n        /* \"#utility.yul\":241:246   */\n      dup2\n        /* \"#utility.yul\":237:253   */\n      add\n        /* \"#utility.yul\":286:289   */\n      dup5\n        /* \"#utility.yul\":277:283   */\n      dup5\n        /* \"#utility.yul\":272:275   */\n      dup5\n        /* \"#utility.yul\":268:284   */\n      add\n        /* \"#utility.yul\":265:290   */\n      gt\n        /* \"#utility.yul\":262:374   */\n      iszero\n      tag_43\n      jumpi\n        /* \"#utility.yul\":293:372   */\n      tag_44\n      tag_45\n      jump\t// in\n    tag_44:\n        /* \"#utility.yul\":262:374   */\n    tag_43:\n        /* \"#utility.yul\":383:422   */\n      tag_46\n        /* \"#utility.yul\":415:421   */\n      dup5\n        /* \"#utility.yul\":410:413   */\n      dup3\n        /* \"#utility.yul\":405:408   */\n      dup6\n        /* \"#utility.yul\":383:422   */\n      tag_47\n      jump\t// in\n    tag_46:\n        /* \"#utility.yul\":102:428   */\n      pop\n        /* \"#utility.yul\":7:428   */\n      swap4\n      swap3\n      pop\n      pop\n      pop\n      jump\t// out\n        /* \"#utility.yul\":434:575   */\n    tag_48:\n        /* \"#utility.yul\":490:495   */\n      0x00\n        /* \"#utility.yul\":521:527   */\n      dup2\n        /* \"#utility.yul\":515:528   */\n      mload\n        /* \"#utility.yul\":506:528   */\n      swap1\n      pop\n        /* \"#utility.yul\":537:569   */\n      tag_50\n        /* \"#utility.yul\":563:568   */\n      dup2\n        /* \"#utility.yul\":537:569   */\n      tag_51\n      jump\t// in\n    tag_50:\n        /* \"#utility.yul\":434:575   */\n      swap3\n      swap2\n      pop\n      pop\n      jump\t// out\n        /* \"#utility.yul\":595:950   */\n    tag_52:\n        /* \"#utility.yul\":662:667   */\n      0x00\n        /* \"#utility.yul\":711:714   */\n      dup3\n        /* \"#utility.yul\":704:708   */\n      0x1f\n        /* \"#utility.yul\":696:702   */\n      dup4\n        /* \"#utility.yul\":692:709   */\n      add\n        /* \"#utility.yul\":688:715   */\n      slt\n        /* \"#utility.yul\":678:800   */\n      tag_54\n      jumpi\n        /* \"#utility.yul\":719:798   */\n      tag_55\n      tag_56\n      jump\t// in\n    tag_55:\n        /* \"#utility.yul\":678:800   */\n    tag_54:\n        /* \"#utility.yul\":829:835   */\n      dup2\n        /* \"#utility.yul\":823:836   */\n      mload\n        /* \"#utility.yul\":854:944   */\n      tag_57\n        /* \"#utility.yul\":940:943   */\n      dup5\n        /* \"#utility.yul\":932:938   */\n      dup3\n        /* \"#utility.yul\":925:929   */\n      0x20\n        /* \"#utility.yul\":917:923   */\n      dup7\n        /* \"#utility.yul\":913:930   */\n      add\n        /* \"#utility.yul\":854:944   */\n      tag_37\n      jump\t// in\n    tag_57:\n        /* \"#utility.yul\":845:944   */\n      swap2\n      pop\n        /* \"#utility.yul\":668:950   */\n      pop\n        /* \"#utility.yul\":595:950   */\n      swap3\n      swap2\n      pop\n      pop\n      jump\t// out\n        /* \"#utility.yul\":956:1099   */\n    tag_58:\n        /* \"#utility.yul\":1013:1018   */\n      0x00\n        /* \"#utility.yul\":1044:1050   */\n      dup2\n        /* \"#utility.yul\":1038:1051   */\n      mload\n        /* \"#utility.yul\":1029:1051   */\n      swap1\n      pop\n        /* \"#utility.yul\":1060:1093   */\n      tag_60\n        /* \"#utility.yul\":1087:1092   */\n      dup2\n        /* \"#utility.yul\":1060:1093   */\n      tag_61\n      jump\t// in\n    tag_60:\n        /* \"#utility.yul\":956:1099   */\n      swap3\n      swap2\n      pop\n      pop\n      jump\t// out\n        /* \"#utility.yul\":1105:1246   */\n    tag_62:\n        /* \"#utility.yul\":1161:1166   */\n      0x00\n        /* \"#utility.yul\":1192:1198   */\n      dup2\n        /* \"#utility.yul\":1186:1199   */\n      mload\n        /* \"#utility.yul\":1177:1199   */\n      swap1\n      pop\n        /* \"#utility.yul\":1208:1240   */\n      tag_64\n        /* \"#utility.yul\":1234:1239   */\n      dup2\n        /* \"#utility.yul\":1208:1240   */\n      tag_65\n      jump\t// in\n    tag_64:\n        /* \"#utility.yul\":1105:1246   */\n      swap3\n      swap2\n      pop\n      pop\n      jump\t// out\n        /* \"#utility.yul\":1252:1391   */\n    tag_66:\n        /* \"#utility.yul\":1307:1312   */\n      0x00\n        /* \"#utility.yul\":1338:1344   */\n      dup2\n        /* \"#utility.yul\":1332:1345   */\n      mload\n        /* \"#utility.yul\":1323:1345   */\n      swap1\n      pop\n        /* \"#utility.yul\":1354:1385   */\n      tag_68\n        /* \"#utility.yul\":1379:1384   */\n      dup2\n        /* \"#utility.yul\":1354:1385   */\n      tag_69\n      jump\t// in\n    tag_68:\n        /* \"#utility.yul\":1252:1391   */\n      swap3\n      swap2\n      pop\n      pop\n      jump\t// out\n        /* \"#utility.yul\":1397:1921   */\n    tag_23:\n        /* \"#utility.yul\":1477:1483   */\n      0x00\n        /* \"#utility.yul\":1526:1528   */\n      0x20\n        /* \"#utility.yul\":1514:1523   */\n      dup3\n        /* \"#utility.yul\":1505:1512   */\n      dup5\n        /* \"#utility.yul\":1501:1524   */\n      sub\n        /* \"#utility.yul\":1497:1529   */\n      slt\n        /* \"#utility.yul\":1494:1613   */\n      iszero\n      tag_71\n      jumpi\n        /* \"#utility.yul\":1532:1611   */\n      tag_72\n      tag_73\n      jump\t// in\n    tag_72:\n        /* \"#utility.yul\":1494:1613   */\n    tag_71:\n        /* \"#utility.yul\":1673:1674   */\n      0x00\n        /* \"#utility.yul\":1662:1671   */\n      dup3\n        /* \"#utility.yul\":1658:1675   */\n      add\n        /* \"#utility.yul\":1652:1676   */\n      mload\n        /* \"#utility.yul\":1703:1721   */\n      0xffffffffffffffff\n        /* \"#utility.yul\":1695:1701   */\n      dup2\n        /* \"#utility.yul\":1692:1722   */\n      gt\n        /* \"#utility.yul\":1689:1806   */\n      iszero\n      tag_74\n      jumpi\n        /* \"#utility.yul\":1725:1804   */\n      tag_75\n      tag_76\n      jump\t// in\n    tag_75:\n        /* \"#utility.yul\":1689:1806   */\n    tag_74:\n        /* \"#utility.yul\":1830:1904   */\n      tag_77\n        /* \"#utility.yul\":1896:1903   */\n      dup5\n        /* \"#utility.yul\":1887:1893   */\n      dup3\n        /* \"#utility.yul\":1876:1885   */\n      dup6\n        /* \"#utility.yul\":1872:1894   */\n      add\n        /* \"#utility.yul\":1830:1904   */\n      tag_52\n      jump\t// in\n    tag_77:\n        /* \"#utility.yul\":1820:1904   */\n      swap2\n      pop\n        /* \"#utility.yul\":1623:1914   */\n      pop\n        /* \"#utility.yul\":1397:1921   */\n      swap3\n      swap2\n      pop\n      pop\n      jump\t// out\n        /* \"#utility.yul\":1927:2898   */\n    tag_29:\n        /* \"#utility.yul\":2030:2036   */\n      0x00\n        /* \"#utility.yul\":2038:2044   */\n      dup1\n        /* \"#utility.yul\":2046:2052   */\n      0x00\n        /* \"#utility.yul\":2054:2060   */\n      dup1\n        /* \"#utility.yul\":2062:2068   */\n      0x00\n        /* \"#utility.yul\":2111:2114   */\n      0xa0\n        /* \"#utility.yul\":2099:2108   */\n      dup7\n        /* \"#utility.yul\":2090:2097   */\n      dup9\n        /* \"#utility.yul\":2086:2109   */\n      sub\n        /* \"#utility.yul\":2082:2115   */\n      slt\n        /* \"#utility.yul\":2079:2199   */\n      iszero\n      tag_79\n      jumpi\n        /* \"#utility.yul\":2118:2197   */\n      tag_80\n      tag_73\n      jump\t// in\n    tag_80:\n        /* \"#utility.yul\":2079:2199   */\n    tag_79:\n        /* \"#utility.yul\":2238:2239   */\n      0x00\n        /* \"#utility.yul\":2263:2326   */\n      tag_81\n        /* \"#utility.yul\":2318:2325   */\n      dup9\n        /* \"#utility.yul\":2309:2315   */\n      dup3\n        /* \"#utility.yul\":2298:2307   */\n      dup10\n        /* \"#utility.yul\":2294:2316   */\n      add\n        /* \"#utility.yul\":2263:2326   */\n      tag_62\n      jump\t// in\n    tag_81:\n        /* \"#utility.yul\":2253:2326   */\n      swap6\n      pop\n        /* \"#utility.yul\":2209:2336   */\n      pop\n        /* \"#utility.yul\":2375:2377   */\n      0x20\n        /* \"#utility.yul\":2401:2464   */\n      tag_82\n        /* \"#utility.yul\":2456:2463   */\n      dup9\n        /* \"#utility.yul\":2447:2453   */\n      dup3\n        /* \"#utility.yul\":2436:2445   */\n      dup10\n        /* \"#utility.yul\":2432:2454   */\n      add\n        /* \"#utility.yul\":2401:2464   */\n      tag_48\n      jump\t// in\n    tag_82:\n        /* \"#utility.yul\":2391:2464   */\n      swap5\n      pop\n        /* \"#utility.yul\":2346:2474   */\n      pop\n        /* \"#utility.yul\":2513:2515   */\n      0x40\n        /* \"#utility.yul\":2539:2603   */\n      tag_83\n        /* \"#utility.yul\":2595:2602   */\n      dup9\n        /* \"#utility.yul\":2586:2592   */\n      dup3\n        /* \"#utility.yul\":2575:2584   */\n      dup10\n        /* \"#utility.yul\":2571:2593   */\n      add\n        /* \"#utility.yul\":2539:2603   */\n      tag_58\n      jump\t// in\n    tag_83:\n        /* \"#utility.yul\":2529:2603   */\n      swap4\n      pop\n        /* \"#utility.yul\":2484:2613   */\n      pop\n        /* \"#utility.yul\":2652:2654   */\n      0x60\n        /* \"#utility.yul\":2678:2742   */\n      tag_84\n        /* \"#utility.yul\":2734:2741   */\n      dup9\n        /* \"#utility.yul\":2725:2731   */\n      dup3\n        /* \"#utility.yul\":2714:2723   */\n      dup10\n        /* \"#utility.yul\":2710:2732   */\n      add\n        /* \"#utility.yul\":2678:2742   */\n      tag_58\n      jump\t// in\n    tag_84:\n        /* \"#utility.yul\":2668:2742   */\n      swap3\n      pop\n        /* \"#utility.yul\":2623:2752   */\n      pop\n        /* \"#utility.yul\":2791:2794   */\n      0x80\n        /* \"#utility.yul\":2818:2881   */\n      tag_85\n        /* \"#utility.yul\":2873:2880   */\n      dup9\n        /* \"#utility.yul\":2864:2870   */\n      dup3\n        /* \"#utility.yul\":2853:2862   */\n      dup10\n        /* \"#utility.yul\":2849:2871   */\n      add\n        /* \"#utility.yul\":2818:2881   */\n      tag_62\n      jump\t// in\n    tag_85:\n        /* \"#utility.yul\":2808:2881   */\n      swap2\n      pop\n        /* \"#utility.yul\":2762:2891   */\n      pop\n        /* \"#utility.yul\":1927:2898   */\n      swap3\n      swap6\n      pop\n      swap3\n      swap6\n      swap1\n      swap4\n      pop\n      jump\t// out\n        /* \"#utility.yul\":2904:3251   */\n    tag_35:\n        /* \"#utility.yul\":2972:2978   */\n      0x00\n        /* \"#utility.yul\":3021:3023   */\n      0x20\n        /* \"#utility.yul\":3009:3018   */\n      dup3\n        /* \"#utility.yul\":3000:3007   */\n      dup5\n        /* \"#utility.yul\":2996:3019   */\n      sub\n        /* \"#utility.yul\":2992:3024   */\n      slt\n        /* \"#utility.yul\":2989:3108   */\n      iszero\n      tag_87\n      jumpi\n        /* \"#utility.yul\":3027:3106   */\n      tag_88\n      tag_73\n      jump\t// in\n    tag_88:\n        /* \"#utility.yul\":2989:3108   */\n    tag_87:\n        /* \"#utility.yul\":3147:3148   */\n      0x00\n        /* \"#utility.yul\":3172:3234   */\n      tag_89\n        /* \"#utility.yul\":3226:3233   */\n      dup5\n        /* \"#utility.yul\":3217:3223   */\n      dup3\n        /* \"#utility.yul\":3206:3215   */\n      dup6\n        /* \"#utility.yul\":3202:3224   */\n      add\n        /* \"#utility.yul\":3172:3234   */\n      tag_66\n      jump\t// in\n    tag_89:\n        /* \"#utility.yul\":3162:3234   */\n      swap2\n      pop\n        /* \"#utility.yul\":3118:3244   */\n      pop\n        /* \"#utility.yul\":2904:3251   */\n      swap3\n      swap2\n      pop\n      pop\n      jump\t// out\n        /* \"#utility.yul\":3257:3372   */\n    tag_90:\n        /* \"#utility.yul\":3342:3365   */\n      tag_92\n        /* \"#utility.yul\":3359:3364   */\n      dup2\n        /* \"#utility.yul\":3342:3365   */\n      tag_93\n      jump\t// in\n    tag_92:\n        /* \"#utility.yul\":3337:3340   */\n      dup3\n        /* \"#utility.yul\":3330:3366   */\n      mstore\n        /* \"#utility.yul\":3257:3372   */\n      pop\n      pop\n      jump\t// out\n        /* \"#utility.yul\":3378:3742   */\n    tag_94:\n        /* \"#utility.yul\":3466:3469   */\n      0x00\n        /* \"#utility.yul\":3494:3533   */\n      tag_96\n        /* \"#utility.yul\":3527:3532   */\n      dup3\n        /* \"#utility.yul\":3494:3533   */\n      tag_97\n      jump\t// in\n    tag_96:\n        /* \"#utility.yul\":3549:3620   */\n      tag_98\n        /* \"#utility.yul\":3613:3619   */\n      dup2\n        /* \"#utility.yul\":3608:3611   */\n      dup6\n        /* \"#utility.yul\":3549:3620   */\n      tag_99\n      jump\t// in\n    tag_98:\n        /* \"#utility.yul\":3542:3620   */\n      swap4\n      pop\n        /* \"#utility.yul\":3629:3681   */\n      tag_100\n        /* \"#utility.yul\":3674:3680   */\n      dup2\n        /* \"#utility.yul\":3669:3672   */\n      dup6\n        /* \"#utility.yul\":3662:3666   */\n      0x20\n        /* \"#utility.yul\":3655:3660   */\n      dup7\n        /* \"#utility.yul\":3651:3667   */\n      add\n        /* \"#utility.yul\":3629:3681   */\n      tag_47\n      jump\t// in\n    tag_100:\n        /* \"#utility.yul\":3706:3735   */\n      tag_101\n        /* \"#utility.yul\":3728:3734   */\n      dup2\n        /* \"#utility.yul\":3706:3735   */\n      tag_102\n      jump\t// in\n    tag_101:\n        /* \"#utility.yul\":3701:3704   */\n      dup5\n        /* \"#utility.yul\":3697:3736   */\n      add\n        /* \"#utility.yul\":3690:3736   */\n      swap2\n      pop\n        /* \"#utility.yul\":3470:3742   */\n      pop\n        /* \"#utility.yul\":3378:3742   */\n      swap3\n      swap2\n      pop\n      pop\n      jump\t// out\n        /* \"#utility.yul\":3748:3860   */\n    tag_103:\n        /* \"#utility.yul\":3831:3853   */\n      tag_105\n        /* \"#utility.yul\":3847:3852   */\n      dup2\n        /* \"#utility.yul\":3831:3853   */\n      tag_106\n      jump\t// in\n    tag_105:\n        /* \"#utility.yul\":3826:3829   */\n      dup3\n        /* \"#utility.yul\":3819:3854   */\n      mstore\n        /* \"#utility.yul\":3748:3860   */\n      pop\n      pop\n      jump\t// out\n        /* \"#utility.yul\":3866:4084   */\n    tag_13:\n        /* \"#utility.yul\":3957:3961   */\n      0x00\n        /* \"#utility.yul\":3995:3997   */\n      0x20\n        /* \"#utility.yul\":3984:3993   */\n      dup3\n        /* \"#utility.yul\":3980:3998   */\n      add\n        /* \"#utility.yul\":3972:3998   */\n      swap1\n      pop\n        /* \"#utility.yul\":4008:4077   */\n      tag_108\n        /* \"#utility.yul\":4074:4075   */\n      0x00\n        /* \"#utility.yul\":4063:4072   */\n      dup4\n        /* \"#utility.yul\":4059:4076   */\n      add\n        /* \"#utility.yul\":4050:4056   */\n      dup5\n        /* \"#utility.yul\":4008:4077   */\n      tag_90\n      jump\t// in\n    tag_108:\n        /* \"#utility.yul\":3866:4084   */\n      swap3\n      swap2\n      pop\n      pop\n      jump\t// out\n        /* \"#utility.yul\":4090:4403   */\n    tag_9:\n        /* \"#utility.yul\":4203:4207   */\n      0x00\n        /* \"#utility.yul\":4241:4243   */\n      0x20\n        /* \"#utility.yul\":4230:4239   */\n      dup3\n        /* \"#utility.yul\":4226:4244   */\n      add\n        /* \"#utility.yul\":4218:4244   */\n      swap1\n      pop\n        /* \"#utility.yul\":4290:4299   */\n      dup2\n        /* \"#utility.yul\":4284:4288   */\n      dup2\n        /* \"#utility.yul\":4280:4300   */\n      sub\n        /* \"#utility.yul\":4276:4277   */\n      0x00\n        /* \"#utility.yul\":4265:4274   */\n      dup4\n        /* \"#utility.yul\":4261:4278   */\n      add\n        /* \"#utility.yul\":4254:4301   */\n      mstore\n        /* \"#utility.yul\":4318:4396   */\n      tag_110\n        /* \"#utility.yul\":4391:4395   */\n      dup2\n        /* \"#utility.yul\":4382:4388   */\n      dup5\n        /* \"#utility.yul\":4318:4396   */\n      tag_94\n      jump\t// in\n    tag_110:\n        /* \"#utility.yul\":4310:4396   */\n      swap1\n      pop\n        /* \"#utility.yul\":4090:4403   */\n      swap3\n      swap2\n      pop\n      pop\n      jump\t// out\n        /* \"#utility.yul\":4409:4623   */\n    tag_17:\n        /* \"#utility.yul\":4498:4502   */\n      0x00\n        /* \"#utility.yul\":4536:4538   */\n      0x20\n        /* \"#utility.yul\":4525:4534   */\n      dup3\n        /* \"#utility.yul\":4521:4539   */\n      add\n        /* \"#utility.yul\":4513:4539   */\n      swap1\n      pop\n        /* \"#utility.yul\":4549:4616   */\n      tag_112\n        /* \"#utility.yul\":4613:4614   */\n      0x00\n        /* \"#utility.yul\":4602:4611   */\n      dup4\n        /* \"#utility.yul\":4598:4615   */\n      add\n        /* \"#utility.yul\":4589:4595   */\n      dup5\n        /* \"#utility.yul\":4549:4616   */\n      tag_103\n      jump\t// in\n    tag_112:\n        /* \"#utility.yul\":4409:4623   */\n      swap3\n      swap2\n      pop\n      pop\n      jump\t// out\n        /* \"#utility.yul\":4629:4758   */\n    tag_42:\n        /* \"#utility.yul\":4663:4669   */\n      0x00\n        /* \"#utility.yul\":4690:4710   */\n      tag_114\n      tag_115\n      jump\t// in\n    tag_114:\n        /* \"#utility.yul\":4680:4710   */\n      swap1\n      pop\n        /* \"#utility.yul\":4719:4752   */\n      tag_116\n        /* \"#utility.yul\":4747:4751   */\n      dup3\n        /* \"#utility.yul\":4739:4745   */\n      dup3\n        /* \"#utility.yul\":4719:4752   */\n      tag_117\n      jump\t// in\n    tag_116:\n        /* \"#utility.yul\":4629:4758   */\n      swap2\n      swap1\n      pop\n      jump\t// out\n        /* \"#utility.yul\":4764:4839   */\n    tag_115:\n        /* \"#utility.yul\":4797:4803   */\n      0x00\n        /* \"#utility.yul\":4830:4832   */\n      0x40\n        /* \"#utility.yul\":4824:4833   */\n      mload\n        /* \"#utility.yul\":4814:4833   */\n      swap1\n      pop\n        /* \"#utility.yul\":4764:4839   */\n      swap1\n      jump\t// out\n        /* \"#utility.yul\":4845:5153   */\n    tag_41:\n        /* \"#utility.yul\":4907:4911   */\n      0x00\n        /* \"#utility.yul\":4997:5015   */\n      0xffffffffffffffff\n        /* \"#utility.yul\":4989:4995   */\n      dup3\n        /* \"#utility.yul\":4986:5016   */\n      gt\n        /* \"#utility.yul\":4983:5039   */\n      iszero\n      tag_120\n      jumpi\n        /* \"#utility.yul\":5019:5037   */\n      tag_121\n      tag_122\n      jump\t// in\n    tag_121:\n        /* \"#utility.yul\":4983:5039   */\n    tag_120:\n        /* \"#utility.yul\":5057:5086   */\n      tag_123\n        /* \"#utility.yul\":5079:5085   */\n      dup3\n        /* \"#utility.yul\":5057:5086   */\n      tag_102\n      jump\t// in\n    tag_123:\n        /* \"#utility.yul\":5049:5086   */\n      swap1\n      pop\n        /* \"#utility.yul\":5141:5145   */\n      0x20\n        /* \"#utility.yul\":5135:5139   */\n      dup2\n        /* \"#utility.yul\":5131:5146   */\n      add\n        /* \"#utility.yul\":5123:5146   */\n      swap1\n      pop\n        /* \"#utility.yul\":4845:5153   */\n      swap2\n      swap1\n      pop\n      jump\t// out\n        /* \"#utility.yul\":5159:5258   */\n    tag_97:\n        /* \"#utility.yul\":5211:5217   */\n      0x00\n        /* \"#utility.yul\":5245:5250   */\n      dup2\n        /* \"#utility.yul\":5239:5251   */\n      mload\n        /* \"#utility.yul\":5229:5251   */\n      swap1\n      pop\n        /* \"#utility.yul\":5159:5258   */\n      swap2\n      swap1\n      pop\n      jump\t// out\n        /* \"#utility.yul\":5264:5433   */\n    tag_99:\n        /* \"#utility.yul\":5348:5359   */\n      0x00\n        /* \"#utility.yul\":5382:5388   */\n      dup3\n        /* \"#utility.yul\":5377:5380   */\n      dup3\n        /* \"#utility.yul\":5370:5389   */\n      mstore\n        /* \"#utility.yul\":5422:5426   */\n      0x20\n        /* \"#utility.yul\":5417:5420   */\n      dup3\n        /* \"#utility.yul\":5413:5427   */\n      add\n        /* \"#utility.yul\":5398:5427   */\n      swap1\n      pop\n        /* \"#utility.yul\":5264:5433   */\n      swap3\n      swap2\n      pop\n      pop\n      jump\t// out\n        /* \"#utility.yul\":5439:5515   */\n    tag_93:\n        /* \"#utility.yul\":5475:5482   */\n      0x00\n        /* \"#utility.yul\":5504:5509   */\n      dup2\n        /* \"#utility.yul\":5493:5509   */\n      swap1\n      pop\n        /* \"#utility.yul\":5439:5515   */\n      swap2\n      swap1\n      pop\n      jump\t// out\n        /* \"#utility.yul\":5521:5598   */\n    tag_127:\n        /* \"#utility.yul\":5558:5565   */\n      0x00\n        /* \"#utility.yul\":5587:5592   */\n      dup2\n        /* \"#utility.yul\":5576:5592   */\n      swap1\n      pop\n        /* \"#utility.yul\":5521:5598   */\n      swap2\n      swap1\n      pop\n      jump\t// out\n        /* \"#utility.yul\":5604:5690   */\n    tag_106:\n        /* \"#utility.yul\":5639:5646   */\n      0x00\n        /* \"#utility.yul\":5679:5683   */\n      0xff\n        /* \"#utility.yul\":5672:5677   */\n      dup3\n        /* \"#utility.yul\":5668:5684   */\n      and\n        /* \"#utility.yul\":5657:5684   */\n      swap1\n      pop\n        /* \"#utility.yul\":5604:5690   */\n      swap2\n      swap1\n      pop\n      jump\t// out\n        /* \"#utility.yul\":5696:5801   */\n    tag_130:\n        /* \"#utility.yul\":5732:5739   */\n      0x00\n        /* \"#utility.yul\":5772:5794   */\n      0xffffffffffffffffffff\n        /* \"#utility.yul\":5765:5770   */\n      dup3\n        /* \"#utility.yul\":5761:5795   */\n      and\n        /* \"#utility.yul\":5750:5795   */\n      swap1\n      pop\n        /* \"#utility.yul\":5696:5801   */\n      swap2\n      swap1\n      pop\n      jump\t// out\n        /* \"#utility.yul\":5807:6114   */\n    tag_47:\n        /* \"#utility.yul\":5875:5876   */\n      0x00\n        /* \"#utility.yul\":5885:5998   */\n    tag_133:\n        /* \"#utility.yul\":5899:5905   */\n      dup4\n        /* \"#utility.yul\":5896:5897   */\n      dup2\n        /* \"#utility.yul\":5893:5906   */\n      lt\n        /* \"#utility.yul\":5885:5998   */\n      iszero\n      tag_135\n      jumpi\n        /* \"#utility.yul\":5984:5985   */\n      dup1\n        /* \"#utility.yul\":5979:5982   */\n      dup3\n        /* \"#utility.yul\":5975:5986   */\n      add\n        /* \"#utility.yul\":5969:5987   */\n      mload\n        /* \"#utility.yul\":5965:5966   */\n      dup2\n        /* \"#utility.yul\":5960:5963   */\n      dup5\n        /* \"#utility.yul\":5956:5967   */\n      add\n        /* \"#utility.yul\":5949:5988   */\n      mstore\n        /* \"#utility.yul\":5921:5923   */\n      0x20\n        /* \"#utility.yul\":5918:5919   */\n      dup2\n        /* \"#utility.yul\":5914:5924   */\n      add\n        /* \"#utility.yul\":5909:5924   */\n      swap1\n      pop\n        /* \"#utility.yul\":5885:5998   */\n      jump(tag_133)\n    tag_135:\n        /* \"#utility.yul\":6016:6022   */\n      dup4\n        /* \"#utility.yul\":6013:6014   */\n      dup2\n        /* \"#utility.yul\":6010:6023   */\n      gt\n        /* \"#utility.yul\":6007:6108   */\n      iszero\n      tag_136\n      jumpi\n        /* \"#utility.yul\":6096:6097   */\n      0x00\n        /* \"#utility.yul\":6087:6093   */\n      dup5\n        /* \"#utility.yul\":6082:6085   */\n      dup5\n        /* \"#utility.yul\":6078:6094   */\n      add\n        /* \"#utility.yul\":6071:6098   */\n      mstore\n        /* \"#utility.yul\":6007:6108   */\n    tag_136:\n        /* \"#utility.yul\":5856:6114   */\n      pop\n        /* \"#utility.yul\":5807:6114   */\n      pop\n      pop\n      pop\n      jump\t// out\n        /* \"#utility.yul\":6120:6401   */\n    tag_117:\n        /* \"#utility.yul\":6203:6230   */\n      tag_138\n        /* \"#utility.yul\":6225:6229   */\n      dup3\n        /* \"#utility.yul\":6203:6230   */\n      tag_102\n      jump\t// in\n    tag_138:\n        /* \"#utility.yul\":6195:6201   */\n      dup2\n        /* \"#utility.yul\":6191:6231   */\n      add\n        /* \"#utility.yul\":6333:6339   */\n      dup2\n        /* \"#utility.yul\":6321:6331   */\n      dup2\n        /* \"#utility.yul\":6318:6340   */\n      lt\n        /* \"#utility.yul\":6297:6315   */\n      0xffffffffffffffff\n        /* \"#utility.yul\":6285:6295   */\n      dup3\n        /* \"#utility.yul\":6282:6316   */\n      gt\n        /* \"#utility.yul\":6279:6341   */\n      or\n        /* \"#utility.yul\":6276:6364   */\n      iszero\n      tag_139\n      jumpi\n        /* \"#utility.yul\":6344:6362   */\n      tag_140\n      tag_122\n      jump\t// in\n    tag_140:\n        /* \"#utility.yul\":6276:6364   */\n    tag_139:\n        /* \"#utility.yul\":6384:6394   */\n      dup1\n        /* \"#utility.yul\":6380:6382   */\n      0x40\n        /* \"#utility.yul\":6373:6395   */\n      mstore\n        /* \"#utility.yul\":6163:6401   */\n      pop\n        /* \"#utility.yul\":6120:6401   */\n      pop\n      pop\n      jump\t// out\n        /* \"#utility.yul\":6407:6587   */\n    tag_122:\n        /* \"#utility.yul\":6455:6532   */\n      0x4e487b7100000000000000000000000000000000000000000000000000000000\n        /* \"#utility.yul\":6452:6453   */\n      0x00\n        /* \"#utility.yul\":6445:6533   */\n      mstore\n        /* \"#utility.yul\":6552:6556   */\n      0x41\n        /* \"#utility.yul\":6549:6550   */\n      0x04\n        /* \"#utility.yul\":6542:6557   */\n      mstore\n        /* \"#utility.yul\":6576:6580   */\n      0x24\n        /* \"#utility.yul\":6573:6574   */\n      0x00\n        /* \"#utility.yul\":6566:6581   */\n      revert\n        /* \"#utility.yul\":6593:6710   */\n    tag_56:\n        /* \"#utility.yul\":6702:6703   */\n      0x00\n        /* \"#utility.yul\":6699:6700   */\n      dup1\n        /* \"#utility.yul\":6692:6704   */\n      revert\n        /* \"#utility.yul\":6716:6833   */\n    tag_45:\n        /* \"#utility.yul\":6825:6826   */\n      0x00\n        /* \"#utility.yul\":6822:6823   */\n      dup1\n        /* \"#utility.yul\":6815:6827   */\n      revert\n        /* \"#utility.yul\":6839:6956   */\n    tag_76:\n        /* \"#utility.yul\":6948:6949   */\n      0x00\n        /* \"#utility.yul\":6945:6946   */\n      dup1\n        /* \"#utility.yul\":6938:6950   */\n      revert\n        /* \"#utility.yul\":6962:7079   */\n    tag_73:\n        /* \"#utility.yul\":7071:7072   */\n      0x00\n        /* \"#utility.yul\":7068:7069   */\n      dup1\n        /* \"#utility.yul\":7061:7073   */\n      revert\n        /* \"#utility.yul\":7085:7187   */\n    tag_102:\n        /* \"#utility.yul\":7126:7132   */\n      0x00\n        /* \"#utility.yul\":7177:7179   */\n      0x1f\n        /* \"#utility.yul\":7173:7180   */\n      not\n        /* \"#utility.yul\":7168:7170   */\n      0x1f\n        /* \"#utility.yul\":7161:7166   */\n      dup4\n        /* \"#utility.yul\":7157:7171   */\n      add\n        /* \"#utility.yul\":7153:7181   */\n      and\n        /* \"#utility.yul\":7143:7181   */\n      swap1\n      pop\n        /* \"#utility.yul\":7085:7187   */\n      swap2\n      swap1\n      pop\n      jump\t// out\n        /* \"#utility.yul\":7193:7313   */\n    tag_51:\n        /* \"#utility.yul\":7265:7288   */\n      tag_148\n        /* \"#utility.yul\":7282:7287   */\n      dup2\n        /* \"#utility.yul\":7265:7288   */\n      tag_93\n      jump\t// in\n    tag_148:\n        /* \"#utility.yul\":7258:7263   */\n      dup2\n        /* \"#utility.yul\":7255:7289   */\n      eq\n        /* \"#utility.yul\":7245:7307   */\n      tag_149\n      jumpi\n        /* \"#utility.yul\":7303:7304   */\n      0x00\n        /* \"#utility.yul\":7300:7301   */\n      dup1\n        /* \"#utility.yul\":7293:7305   */\n      revert\n        /* \"#utility.yul\":7245:7307   */\n    tag_149:\n        /* \"#utility.yul\":7193:7313   */\n      pop\n      jump\t// out\n        /* \"#utility.yul\":7319:7441   */\n    tag_61:\n        /* \"#utility.yul\":7392:7416   */\n      tag_151\n        /* \"#utility.yul\":7410:7415   */\n      dup2\n        /* \"#utility.yul\":7392:7416   */\n      tag_127\n      jump\t// in\n    tag_151:\n        /* \"#utility.yul\":7385:7390   */\n      dup2\n        /* \"#utility.yul\":7382:7417   */\n      eq\n        /* \"#utility.yul\":7372:7435   */\n      tag_152\n      jumpi\n        /* \"#utility.yul\":7431:7432   */\n      0x00\n        /* \"#utility.yul\":7428:7429   */\n      dup1\n        /* \"#utility.yul\":7421:7433   */\n      revert\n        /* \"#utility.yul\":7372:7435   */\n    tag_152:\n        /* \"#utility.yul\":7319:7441   */\n      pop\n      jump\t// out\n        /* \"#utility.yul\":7447:7565   */\n    tag_69:\n        /* \"#utility.yul\":7518:7540   */\n      tag_154\n        /* \"#utility.yul\":7534:7539   */\n      dup2\n        /* \"#utility.yul\":7518:7540   */\n      tag_106\n      jump\t// in\n    tag_154:\n        /* \"#utility.yul\":7511:7516   */\n      dup2\n        /* \"#utility.yul\":7508:7541   */\n      eq\n        /* \"#utility.yul\":7498:7559   */\n      tag_155\n      jumpi\n        /* \"#utility.yul\":7555:7556   */\n      0x00\n        /* \"#utility.yul\":7552:7553   */\n      dup1\n        /* \"#utility.yul\":7545:7557   */\n      revert\n        /* \"#utility.yul\":7498:7559   */\n    tag_155:\n        /* \"#utility.yul\":7447:7565   */\n      pop\n      jump\t// out\n        /* \"#utility.yul\":7571:7691   */\n    tag_65:\n        /* \"#utility.yul\":7643:7666   */\n      tag_157\n        /* \"#utility.yul\":7660:7665   */\n      dup2\n        /* \"#utility.yul\":7643:7666   */\n      tag_130\n      jump\t// in\n    tag_157:\n        /* \"#utility.yul\":7636:7641   */\n      dup2\n        /* \"#utility.yul\":7633:7667   */\n      eq\n        /* \"#utility.yul\":7623:7685   */\n      tag_158\n      jumpi\n        /* \"#utility.yul\":7681:7682   */\n      0x00\n        /* \"#utility.yul\":7678:7679   */\n      dup1\n        /* \"#utility.yul\":7671:7683   */\n      revert\n        /* \"#utility.yul\":7623:7685   */\n    tag_158:\n        /* \"#utility.yul\":7571:7691   */\n      pop\n      jump\t// out\n\n    auxdata: 0xa26469706673582212206f2b0661e3ea41d075d7e8f1d82a6aafac3ac0072136e4792b5381ee36f768ab64736f6c63430008070033\n}\n",
				"bytecode": {
					"linkReferences": {},
					"object": "608060405234801561001057600080fd5b5073d4a33860578de61dbabdc8bfdb98fd742fa7028e6000806101000a81548173ffffffffffffffffffffffffffffffffffffffff021916908373ffffffffffffffffffffffffffffffffffffffff160217905550610700806100746000396000f3fe608060405234801561001057600080fd5b50600436106100415760003560e01c80631a092541146100465780638e15f47314610064578063f0141d8414610082575b600080fd5b61004e6100a0565b60405161005b91906104d0565b60405180910390f35b61006c610151565b60405161007991906104b5565b60405180910390f35b61008a6101ff565b60405161009791906104f2565b60405180910390f35b606060008060009054906101000a900473ffffffffffffffffffffffffffffffffffffffff1673ffffffffffffffffffffffffffffffffffffffff16637284e4166040518163ffffffff1660e01b815260040160006040518083038186803b15801561010b57600080fd5b505afa15801561011f573d6000803e3d6000fd5b505050506040513d6000823e3d601f19601f82011682018060405250810190610148919061036d565b90508091505090565b60008060008054906101000a900473ffffffffffffffffffffffffffffffffffffffff1673ffffffffffffffffffffffffffffffffffffffff1663feaf968c6040518163ffffffff1660e01b815260040160a06040518083038186803b1580156101ba57600080fd5b505afa1580156101ce573d6000803e3d6000fd5b505050506040513d601f19601f820116820180604052508101906101f291906103b6565b5050509150508091505090565b60008060008054906101000a900473ffffffffffffffffffffffffffffffffffffffff1673ffffffffffffffffffffffffffffffffffffffff1663313ce5676040518163ffffffff1660e01b815260040160206040518083038186803b15801561026857600080fd5b505afa15801561027c573d6000803e3d6000fd5b505050506040513d601f19601f820116820180604052508101906102a09190610431565b90508091505090565b60006102bc6102b784610532565b61050d565b9050828152602081018484840111156102d8576102d761064e565b5b6102e38482856105b6565b509392505050565b6000815190506102fa8161066e565b92915050565b600082601f83011261031557610314610649565b5b81516103258482602086016102a9565b91505092915050565b60008151905061033d81610685565b92915050565b600081519050610352816106b3565b92915050565b6000815190506103678161069c565b92915050565b60006020828403121561038357610382610658565b5b600082015167ffffffffffffffff8111156103a1576103a0610653565b5b6103ad84828501610300565b91505092915050565b600080600080600060a086880312156103d2576103d1610658565b5b60006103e088828901610343565b95505060206103f1888289016102eb565b94505060406104028882890161032e565b93505060606104138882890161032e565b925050608061042488828901610343565b9150509295509295909350565b60006020828403121561044757610446610658565b5b600061045584828501610358565b91505092915050565b6104678161057f565b82525050565b600061047882610563565b610482818561056e565b93506104928185602086016105b6565b61049b8161065d565b840191505092915050565b6104af81610593565b82525050565b60006020820190506104ca600083018461045e565b92915050565b600060208201905081810360008301526104ea818461046d565b905092915050565b600060208201905061050760008301846104a6565b92915050565b6000610517610528565b905061052382826105e9565b919050565b6000604051905090565b600067ffffffffffffffff82111561054d5761054c61061a565b5b6105568261065d565b9050602081019050919050565b600081519050919050565b600082825260208201905092915050565b6000819050919050565b6000819050919050565b600060ff82169050919050565b600069ffffffffffffffffffff82169050919050565b60005b838110156105d45780820151818401526020810190506105b9565b838111156105e3576000848401525b50505050565b6105f28261065d565b810181811067ffffffffffffffff821117156106115761061061061a565b5b80604052505050565b7f4e487b7100000000000000000000000000000000000000000000000000000000600052604160045260246000fd5b600080fd5b600080fd5b600080fd5b600080fd5b6000601f19601f8301169050919050565b6106778161057f565b811461068257600080fd5b50565b61068e81610589565b811461069957600080fd5b50565b6106a581610593565b81146106b057600080fd5b50565b6106bc816105a0565b81146106c757600080fd5b5056fea26469706673582212206f2b0661e3ea41d075d7e8f1d82a6aafac3ac0072136e4792b5381ee36f768ab64736f6c63430008070033",
					"opcodes": "PUSH1 0x80 PUSH1 0x40 MSTORE CALLVALUE DUP1 ISZERO PUSH2 0x10 JUMPI PUSH1 0x0 DUP1 REVERT JUMPDEST POP PUSH20 0xD4A33860578DE61DBABDC8BFDB98FD742FA7028E PUSH1 0x0 DUP1 PUSH2 0x100 EXP DUP2 SLOAD DUP2 PUSH20 0xFFFFFFFFFFFFFFFFFFFFFFFFFFFFFFFFFFFFFFFF MUL NOT AND SWAP1 DUP4 PUSH20 0xFFFFFFFFFFFFFFFFFFFFFFFFFFFFFFFFFFFFFFFF AND MUL OR SWAP1 SSTORE POP PUSH2 0x700 DUP1 PUSH2 0x74 PUSH1 0x0 CODECOPY PUSH1 0x0 RETURN INVALID PUSH1 0x80 PUSH1 0x40 MSTORE CALLVALUE DUP1 ISZERO PUSH2 0x10 JUMPI PUSH1 0x0 DUP1 REVERT JUMPDEST POP PUSH1 0x4 CALLDATASIZE LT PUSH2 0x41 JUMPI PUSH1 0x0 CALLDATALOAD PUSH1 0xE0 SHR DUP1 PUSH4 0x1A092541 EQ PUSH2 0x46 JUMPI DUP1 PUSH4 0x8E15F473 EQ PUSH2 0x64 JUMPI DUP1 PUSH4 0xF0141D84 EQ PUSH2 0x82 JUMPI JUMPDEST PUSH1 0x0 DUP1 REVERT JUMPDEST PUSH2 0x4E PUSH2 0xA0 JUMP JUMPDEST PUSH1 0x40 MLOAD PUSH2 0x5B SWAP2 SWAP1 PUSH2 0x4D0 JUMP JUMPDEST PUSH1 0x40 MLOAD DUP1 SWAP2 SUB SWAP1 RETURN JUMPDEST PUSH2 0x6C PUSH2 0x151 JUMP JUMPDEST PUSH1 0x40 MLOAD PUSH2 0x79 SWAP2 SWAP1 PUSH2 0x4B5 JUMP JUMPDEST PUSH1 0x40 MLOAD DUP1 SWAP2 SUB SWAP1 RETURN JUMPDEST PUSH2 0x8A PUSH2 0x1FF JUMP JUMPDEST PUSH1 0x40 MLOAD PUSH2 0x97 SWAP2 SWAP1 PUSH2 0x4F2 JUMP JUMPDEST PUSH1 0x40 MLOAD DUP1 SWAP2 SUB SWAP1 RETURN JUMPDEST PUSH1 0x60 PUSH1 0x0 DUP1 PUSH1 0x0 SWAP1 SLOAD SWAP1 PUSH2 0x100 EXP SWAP1 DIV PUSH20 0xFFFFFFFFFFFFFFFFFFFFFFFFFFFFFFFFFFFFFFFF AND PUSH20 0xFFFFFFFFFFFFFFFFFFFFFFFFFFFFFFFFFFFFFFFF AND PUSH4 0x7284E416 PUSH1 0x40 MLOAD DUP2 PUSH4 0xFFFFFFFF AND PUSH1 0xE0 SHL DUP2 MSTORE PUSH1 0x4 ADD PUSH1 0x0 PUSH1 0x40 MLOAD DUP1 DUP4 SUB DUP2 DUP7 DUP1 EXTCODESIZE ISZERO DUP1 ISZERO PUSH2 0x10B JUMPI PUSH1 0x0 DUP1 REVERT JUMPDEST POP GAS STATICCALL ISZERO DUP1 ISZERO PUSH2 0x11F JUMPI RETURNDATASIZE PUSH1 0x0 DUP1 RETURNDATACOPY RETURNDATASIZE PUSH1 0x0 REVERT JUMPDEST POP POP POP POP PUSH1 0x40 MLOAD RETURNDATASIZE PUSH1 0x0 DUP3 RETURNDATACOPY RETURNDATASIZE PUSH1 0x1F NOT PUSH1 0x1F DUP3 ADD AND DUP3 ADD DUP1 PUSH1 0x40 MSTORE POP DUP2 ADD SWAP1 PUSH2 0x148 SWAP2 SWAP1 PUSH2 0x36D JUMP JUMPDEST SWAP1 POP DUP1 SWAP2 POP POP SWAP1 JUMP JUMPDEST PUSH1 0x0 DUP1 PUSH1 0x0 DUP1 SLOAD SWAP1 PUSH2 0x100 EXP SWAP1 DIV PUSH20 0xFFFFFFFFFFFFFFFFFFFFFFFFFFFFFFFFFFFFFFFF AND PUSH20 0xFFFFFFFFFFFFFFFFFFFFFFFFFFFFFFFFFFFFFFFF AND PUSH4 0xFEAF968C PUSH1 0x40 MLOAD DUP2 PUSH4 0xFFFFFFFF AND PUSH1 0xE0 SHL DUP2 MSTORE PUSH1 0x4 ADD PUSH1 0xA0 PUSH1 0x40 MLOAD DUP1 DUP4 SUB DUP2 DUP7 DUP1 EXTCODESIZE ISZERO DUP1 ISZERO PUSH2 0x1BA JUMPI PUSH1 0x0 DUP1 REVERT JUMPDEST POP GAS STATICCALL ISZERO DUP1 ISZERO PUSH2 0x1CE JUMPI RETURNDATASIZE PUSH1 0x0 DUP1 RETURNDATACOPY RETURNDATASIZE PUSH1 0x0 REVERT JUMPDEST POP POP POP POP PUSH1 0x40 MLOAD RETURNDATASIZE PUSH1 0x1F NOT PUSH1 0x1F DUP3 ADD AND DUP3 ADD DUP1 PUSH1 0x40 MSTORE POP DUP2 ADD SWAP1 PUSH2 0x1F2 SWAP2 SWAP1 PUSH2 0x3B6 JUMP JUMPDEST POP POP POP SWAP2 POP POP DUP1 SWAP2 POP POP SWAP1 JUMP JUMPDEST PUSH1 0x0 DUP1 PUSH1 0x0 DUP1 SLOAD SWAP1 PUSH2 0x100 EXP SWAP1 DIV PUSH20 0xFFFFFFFFFFFFFFFFFFFFFFFFFFFFFFFFFFFFFFFF AND PUSH20 0xFFFFFFFFFFFFFFFFFFFFFFFFFFFFFFFFFFFFFFFF AND PUSH4 0x313CE567 PUSH1 0x40 MLOAD DUP2 PUSH4 0xFFFFFFFF AND PUSH1 0xE0 SHL DUP2 MSTORE PUSH1 0x4 ADD PUSH1 0x20 PUSH1 0x40 MLOAD DUP1 DUP4 SUB DUP2 DUP7 DUP1 EXTCODESIZE ISZERO DUP1 ISZERO PUSH2 0x268 JUMPI PUSH1 0x0 DUP1 REVERT JUMPDEST POP GAS STATICCALL ISZERO DUP1 ISZERO PUSH2 0x27C JUMPI RETURNDATASIZE PUSH1 0x0 DUP1 RETURNDATACOPY RETURNDATASIZE PUSH1 0x0 REVERT JUMPDEST POP POP POP POP PUSH1 0x40 MLOAD RETURNDATASIZE PUSH1 0x1F NOT PUSH1 0x1F DUP3 ADD AND DUP3 ADD DUP1 PUSH1 0x40 MSTORE POP DUP2 ADD SWAP1 PUSH2 0x2A0 SWAP2 SWAP1 PUSH2 0x431 JUMP JUMPDEST SWAP1 POP DUP1 SWAP2 POP POP SWAP1 JUMP JUMPDEST PUSH1 0x0 PUSH2 0x2BC PUSH2 0x2B7 DUP5 PUSH2 0x532 JUMP JUMPDEST PUSH2 0x50D JUMP JUMPDEST SWAP1 POP DUP3 DUP2 MSTORE PUSH1 0x20 DUP2 ADD DUP5 DUP5 DUP5 ADD GT ISZERO PUSH2 0x2D8 JUMPI PUSH2 0x2D7 PUSH2 0x64E JUMP JUMPDEST JUMPDEST PUSH2 0x2E3 DUP5 DUP3 DUP6 PUSH2 0x5B6 JUMP JUMPDEST POP SWAP4 SWAP3 POP POP POP JUMP JUMPDEST PUSH1 0x0 DUP2 MLOAD SWAP1 POP PUSH2 0x2FA DUP2 PUSH2 0x66E JUMP JUMPDEST SWAP3 SWAP2 POP POP JUMP JUMPDEST PUSH1 0x0 DUP3 PUSH1 0x1F DUP4 ADD SLT PUSH2 0x315 JUMPI PUSH2 0x314 PUSH2 0x649 JUMP JUMPDEST JUMPDEST DUP2 MLOAD PUSH2 0x325 DUP5 DUP3 PUSH1 0x20 DUP7 ADD PUSH2 0x2A9 JUMP JUMPDEST SWAP2 POP POP SWAP3 SWAP2 POP POP JUMP JUMPDEST PUSH1 0x0 DUP2 MLOAD SWAP1 POP PUSH2 0x33D DUP2 PUSH2 0x685 JUMP JUMPDEST SWAP3 SWAP2 POP POP JUMP JUMPDEST PUSH1 0x0 DUP2 MLOAD SWAP1 POP PUSH2 0x352 DUP2 PUSH2 0x6B3 JUMP JUMPDEST SWAP3 SWAP2 POP POP JUMP JUMPDEST PUSH1 0x0 DUP2 MLOAD SWAP1 POP PUSH2 0x367 DUP2 PUSH2 0x69C JUMP JUMPDEST SWAP3 SWAP2 POP POP JUMP JUMPDEST PUSH1 0x0 PUSH1 0x20 DUP3 DUP5 SUB SLT ISZERO PUSH2 0x383 JUMPI PUSH2 0x382 PUSH2 0x658 JUMP JUMPDEST JUMPDEST PUSH1 0x0 DUP3 ADD MLOAD PUSH8 0xFFFFFFFFFFFFFFFF DUP2 GT ISZERO PUSH2 0x3A1 JUMPI PUSH2 0x3A0 PUSH2 0x653 JUMP JUMPDEST JUMPDEST PUSH2 0x3AD DUP5 DUP3 DUP6 ADD PUSH2 0x300 JUMP JUMPDEST SWAP2 POP POP SWAP3 SWAP2 POP POP JUMP JUMPDEST PUSH1 0x0 DUP1 PUSH1 0x0 DUP1 PUSH1 0x0 PUSH1 0xA0 DUP7 DUP9 SUB SLT ISZERO PUSH2 0x3D2 JUMPI PUSH2 0x3D1 PUSH2 0x658 JUMP JUMPDEST JUMPDEST PUSH1 0x0 PUSH2 0x3E0 DUP9 DUP3 DUP10 ADD PUSH2 0x343 JUMP JUMPDEST SWAP6 POP POP PUSH1 0x20 PUSH2 0x3F1 DUP9 DUP3 DUP10 ADD PUSH2 0x2EB JUMP JUMPDEST SWAP5 POP POP PUSH1 0x40 PUSH2 0x402 DUP9 DUP3 DUP10 ADD PUSH2 0x32E JUMP JUMPDEST SWAP4 POP POP PUSH1 0x60 PUSH2 0x413 DUP9 DUP3 DUP10 ADD PUSH2 0x32E JUMP JUMPDEST SWAP3 POP POP PUSH1 0x80 PUSH2 0x424 DUP9 DUP3 DUP10 ADD PUSH2 0x343 JUMP JUMPDEST SWAP2 POP POP SWAP3 SWAP6 POP SWAP3 SWAP6 SWAP1 SWAP4 POP JUMP JUMPDEST PUSH1 0x0 PUSH1 0x20 DUP3 DUP5 SUB SLT ISZERO PUSH2 0x447 JUMPI PUSH2 0x446 PUSH2 0x658 JUMP JUMPDEST JUMPDEST PUSH1 0x0 PUSH2 0x455 DUP5 DUP3 DUP6 ADD PUSH2 0x358 JUMP JUMPDEST SWAP2 POP POP SWAP3 SWAP2 POP POP JUMP JUMPDEST PUSH2 0x467 DUP2 PUSH2 0x57F JUMP JUMPDEST DUP3 MSTORE POP POP JUMP JUMPDEST PUSH1 0x0 PUSH2 0x478 DUP3 PUSH2 0x563 JUMP JUMPDEST PUSH2 0x482 DUP2 DUP6 PUSH2 0x56E JUMP JUMPDEST SWAP4 POP PUSH2 0x492 DUP2 DUP6 PUSH1 0x20 DUP7 ADD PUSH2 0x5B6 JUMP JUMPDEST PUSH2 0x49B DUP2 PUSH2 0x65D JUMP JUMPDEST DUP5 ADD SWAP2 POP POP SWAP3 SWAP2 POP POP JUMP JUMPDEST PUSH2 0x4AF DUP2 PUSH2 0x593 JUMP JUMPDEST DUP3 MSTORE POP POP JUMP JUMPDEST PUSH1 0x0 PUSH1 0x20 DUP3 ADD SWAP1 POP PUSH2 0x4CA PUSH1 0x0 DUP4 ADD DUP5 PUSH2 0x45E JUMP JUMPDEST SWAP3 SWAP2 POP POP JUMP JUMPDEST PUSH1 0x0 PUSH1 0x20 DUP3 ADD SWAP1 POP DUP2 DUP2 SUB PUSH1 0x0 DUP4 ADD MSTORE PUSH2 0x4EA DUP2 DUP5 PUSH2 0x46D JUMP JUMPDEST SWAP1 POP SWAP3 SWAP2 POP POP JUMP JUMPDEST PUSH1 0x0 PUSH1 0x20 DUP3 ADD SWAP1 POP PUSH2 0x507 PUSH1 0x0 DUP4 ADD DUP5 PUSH2 0x4A6 JUMP JUMPDEST SWAP3 SWAP2 POP POP JUMP JUMPDEST PUSH1 0x0 PUSH2 0x517 PUSH2 0x528 JUMP JUMPDEST SWAP1 POP PUSH2 0x523 DUP3 DUP3 PUSH2 0x5E9 JUMP JUMPDEST SWAP2 SWAP1 POP JUMP JUMPDEST PUSH1 0x0 PUSH1 0x40 MLOAD SWAP1 POP SWAP1 JUMP JUMPDEST PUSH1 0x0 PUSH8 0xFFFFFFFFFFFFFFFF DUP3 GT ISZERO PUSH2 0x54D JUMPI PUSH2 0x54C PUSH2 0x61A JUMP JUMPDEST JUMPDEST PUSH2 0x556 DUP3 PUSH2 0x65D JUMP JUMPDEST SWAP1 POP PUSH1 0x20 DUP2 ADD SWAP1 POP SWAP2 SWAP1 POP JUMP JUMPDEST PUSH1 0x0 DUP2 MLOAD SWAP1 POP SWAP2 SWAP1 POP JUMP JUMPDEST PUSH1 0x0 DUP3 DUP3 MSTORE PUSH1 0x20 DUP3 ADD SWAP1 POP SWAP3 SWAP2 POP POP JUMP JUMPDEST PUSH1 0x0 DUP2 SWAP1 POP SWAP2 SWAP1 POP JUMP JUMPDEST PUSH1 0x0 DUP2 SWAP1 POP SWAP2 SWAP1 POP JUMP JUMPDEST PUSH1 0x0 PUSH1 0xFF DUP3 AND SWAP1 POP SWAP2 SWAP1 POP JUMP JUMPDEST PUSH1 0x0 PUSH10 0xFFFFFFFFFFFFFFFFFFFF DUP3 AND SWAP1 POP SWAP2 SWAP1 POP JUMP JUMPDEST PUSH1 0x0 JUMPDEST DUP4 DUP2 LT ISZERO PUSH2 0x5D4 JUMPI DUP1 DUP3 ADD MLOAD DUP2 DUP5 ADD MSTORE PUSH1 0x20 DUP2 ADD SWAP1 POP PUSH2 0x5B9 JUMP JUMPDEST DUP4 DUP2 GT ISZERO PUSH2 0x5E3 JUMPI PUSH1 0x0 DUP5 DUP5 ADD MSTORE JUMPDEST POP POP POP POP JUMP JUMPDEST PUSH2 0x5F2 DUP3 PUSH2 0x65D JUMP JUMPDEST DUP2 ADD DUP2 DUP2 LT PUSH8 0xFFFFFFFFFFFFFFFF DUP3 GT OR ISZERO PUSH2 0x611 JUMPI PUSH2 0x610 PUSH2 0x61A JUMP JUMPDEST JUMPDEST DUP1 PUSH1 0x40 MSTORE POP POP POP JUMP JUMPDEST PUSH32 0x4E487B7100000000000000000000000000000000000000000000000000000000 PUSH1 0x0 MSTORE PUSH1 0x41 PUSH1 0x4 MSTORE PUSH1 0x24 PUSH1 0x0 REVERT JUMPDEST PUSH1 0x0 DUP1 REVERT JUMPDEST PUSH1 0x0 DUP1 REVERT JUMPDEST PUSH1 0x0 DUP1 REVERT JUMPDEST PUSH1 0x0 DUP1 REVERT JUMPDEST PUSH1 0x0 PUSH1 0x1F NOT PUSH1 0x1F DUP4 ADD AND SWAP1 POP SWAP2 SWAP1 POP JUMP JUMPDEST PUSH2 0x677 DUP2 PUSH2 0x57F JUMP JUMPDEST DUP2 EQ PUSH2 0x682 JUMPI PUSH1 0x0 DUP1 REVERT JUMPDEST POP JUMP JUMPDEST PUSH2 0x68E DUP2 PUSH2 0x589 JUMP JUMPDEST DUP2 EQ PUSH2 0x699 JUMPI PUSH1 0x0 DUP1 REVERT JUMPDEST POP JUMP JUMPDEST PUSH2 0x6A5 DUP2 PUSH2 0x593 JUMP JUMPDEST DUP2 EQ PUSH2 0x6B0 JUMPI PUSH1 0x0 DUP1 REVERT JUMPDEST POP JUMP JUMPDEST PUSH2 0x6BC DUP2 PUSH2 0x5A0 JUMP JUMPDEST DUP2 EQ PUSH2 0x6C7 JUMPI PUSH1 0x0 DUP1 REVERT JUMPDEST POP JUMP INVALID LOG2 PUSH5 0x6970667358 0x22 SLT KECCAK256 PUSH16 0x2B0661E3EA41D075D7E8F1D82A6AAFAC GASPRICE 0xC0 SMOD 0x21 CALLDATASIZE 0xE4 PUSH26 0x2B5381EE36F768AB64736F6C6343000807003300000000000000 "
				},
				"gasEstimates": {
					"creation": {
						"codeDepositCost": "358400",
						"executionCost": "24660",
						"totalCost": "383060"
					},
					"external": {
						"getDecimals()": "infinite",
						"getDescription()": "infinite",
						"getLatestPrice()": "infinite"
					}
				},
				"methodIdentifiers": {
					"getDecimals()": "f0141d84",
					"getDescription()": "1a092541",
					"getLatestPrice()": "8e15f473"
				}
			},
			"storageLayout": {
				"storage": [
					{
						"astId": 51,
						"contract": "chainlink/getprice_chainlink.sol:PriceConsumerV3",
						"label": "priceFeed",
						"offset": 0,
						"slot": "0",
						"type": "t_contract(AggregatorV3Interface)45"
					}
				],
				"types": {
					"t_contract(AggregatorV3Interface)45": {
						"encoding": "inplace",
						"label": "contract AggregatorV3Interface",
						"numberOfBytes": "20"
					}
				}
			},
			"userdoc": {
				"kind": "user",
				"methods": {
					"constructor": {
						"notice": "Network : Goerli Aggregator: ETH/USD Address: 0xD4a33860578De61DBAbDc8BFdb98FD742fA7028e"
					},
					"getLatestPrice()": {
						"notice": "Returns the latest price"
					}
				},
				"version": 1
			}
		}
	}
}